:020000040800F2
:100000003804002005010008290100082F0100081C
:1000100033010008370100083B0100080000000020
:100020000000000000000000000000003F01000888
:1000300041010008000000004301000845010008DC
:100040001F0100081F0100081F0100081F01000810
:100050001F0100081F0100081F0100081F01000800
:100060001F0100081F0100081F0100081F010008F0
:100070001F0100081F0100081F0100081F010008E0
:100080001F0100081F0100081F0100081F010008D0
:100090001F0100081F0100081F0100081F010008C0
:1000A0001F0100081F0100081F0100081F010008B0
:1000B0001F0100081F0100081F0100081F010008A0
:1000C0001F0100081F0100081F0100081F01000890
:1000D0001F0100082B0100081F0100081F01000874
:1000E0001F0100081F0100081F010008DFF810D0E1
:1000F00001F092FF004800470D100008AFF30080A8
:10010000380400200648804706480047FEE7FEE71F
:10011000FEE7FEE7FEE7FEE7FEE7FEE7FEE7FEE7B7
:10012000171F0008ED000008704700BFFEE700BF82
:10013000FEE700BFFEE700BFFEE700BFFEE7704737
:1001400070477047704700004FF0E021096921F0C7
:1001500004014FF0E0221161C21700EB5272C2F3AA
:10016000C702234B1A701946097801EB4102C2EB12
:10017000C1114FF6FF7202EAC1011E4A1180704799
:1001800001461C4A12884A434FF0E0235A6100227C
:100190009A6101221A6100BF4FF0E022106900F05D
:1001A00001021AB100F48032002AF5D000224FF08B
:1001B000E0231A619A61704701460D4A12784A435A
:1001C0004FF0E0235A6100229A6101221A6100BFB8
:1001D0004FF0E022106900F001021AB100F4803201
:1001E000002AF5D000224FF0E0231A619A6170478F
:1001F000000000200200002030B5014601F01F047D
:10020000C1F34513CA0AE50205EB43151544A8B22C
:1002100030BD2DE9F04706460F4690469A46002429
:1002200045464FEA4800C0F103094AE07A1991B205
:10023000321990B2524600F0B5FE7A1991B2321BD3
:1002400090B2524600F0AEFE7A1B91B2321990B2D3
:10025000524600F0A7FE7A1B91B2321B90B2524672
:1002600000F0A0FE3A1991B2721990B2524600F015
:1002700099FE3A1991B2721B90B2524600F092FE6A
:100280003A1B91B2721990B2524600F08BFE3A1BA3
:1002900091B2721B90B2524600F084FEB9F1000F89
:1002A00005DA042000FB049000F1060907E0601B5A
:1002B000042101FB009000F10A09681E85B2601C50
:1002C00084B2AC42B2DBAC4237D17A1991B2321966
:1002D00090B2524600F066FE7A1991B2321990B28D
:1002E000524600F05FFE7A1B91B2321990B252462C
:1002F00000F058FE7A1B91B2321B90B2524600F0C9
:1003000051FE3A1991B2721990B2524600F04AFE6B
:100310003A1991B2721B90B2524600F043FE3A1B5A
:1003200091B2721990B2524600F03CFE3A1B91B263
:10033000721B90B2524600F035FEBDE8F0872DE901
:10034000FF4F83B0804689464946404600F0FCFD99
:100350000598A0EB08050698A0EB0906002D02DB26
:100360000120029003E04FF0FF3002906D42002E1A
:1003700002DB0120019003E04FF0FF300190764254
:100380004FEA450A4FEA460BB54219DDABEB0504CF
:10039000002712E049464046109A00F003FE002C68
:1003A00005DBA4EB0A04019848441FFA80F95C4479
:1003B000029840441FFA80F87F1CAF42EADD18E043
:1003C000AAEB0604002712E049464046109A00F0C6
:1003D000E9FD002C05DBA4EB0B04029840441FFA56
:1003E00080F85444019848441FFA80F97F1CB742B2
:1003F000EADD07B0BDE8F08F2DE9F84305460C466D
:1004000016461F46DDF820804EF67D700090A81934
:1004100082B2234621462846FFF791FF42F6651037
:1004200004F1010CBC441FFA8CF305EB060CACF193
:10043000010C1FFA8CF204F1010C1FFA8CF105EB90
:10044000060CACF1010C00901FFA8CF0FFF777FF5F
:1004500042F665100090E01983B2A81982B2E01943
:1004600081B22846FFF76BFF4EF67D700090E019D1
:1004700083B22A4621462846FFF761FF04F1010CAA
:10048000BC44ACF1020C1FFA8CF305F1010CB4442E
:10049000ACF1020C1FFA8CF204F1010C1FFA8CF182
:1004A00005F1010C1FFA8CF0CDF80080FFF747FF33
:1004B000BDE8F8832DE9F84305460C4616461F466D
:1004C000DDF82080B8F1000F39D14EF67D70009034
:1004D000A81982B2234621462846FFF730FF42F68C
:1004E000651004F1010CBC441FFA8CF305EB060CFB
:1004F000ACF1010C1FFA8CF204F1010C1FFA8CF123
:1005000005EB060CACF1010C00901FFA8CF0FFF724
:1005100016FF42F665100090E01983B2A81982B266
:10052000E01981B22846FFF70AFF4EF67D70009071
:10053000E01983B22A4621462846FFF700FFB8F1AA
:10054000010F39D142F665100090A81982B22346F6
:1005500021462846FFF7F3FE4EF67D7004F1010CAC
:10056000BC441FFA8CF305EB060CACF1010C1FFA2E
:100570008CF204F1010C1FFA8CF105EB060CACF1C6
:10058000010C00901FFA8CF0FFF7D9FE4EF67D703B
:100590000090E01983B2A81982B2E01981B228460E
:1005A000FFF7CDFE42F665100090E01983B22A46AF
:1005B00021462846FFF7C3FEB8F1020F39D14FF6A6
:1005C000FF700090A81982B2234621462846FFF703
:1005D000B6FE4FF6FF7004F1010CBC441FFA8CF319
:1005E00005EB060CACF1010C1FFA8CF204F1010CC6
:1005F0001FFA8CF105EB060CACF1010C00901FFA10
:100600008CF0FFF79CFE4FF6FF700090E01983B26C
:10061000A81982B2E01981B22846FFF790FE4FF682
:10062000FF700090E01983B22A4621462846FFF762
:1006300086FEBDE8F883F8B504460D4616461F460B
:1006400044F208202B463246294600902046FFF708
:1006500076FE48F210406A1C93B291B2621C009080
:1006600090B23246FFF76BFE44F208203B4622462A
:10067000294600902046FFF762FE48F21040631CB6
:100680009AB26B1C99B2631C009098B23B46FFF77C
:1006900056FE4FF6FF703B463246394600902046E4
:1006A000FFF74DFE4FF6FF703B463246294600905D
:1006B0003046FFF744FEF8BDF8B506460F4614462F
:1006C0001D464FF6FF703B462246394600903046A5
:1006D000FFF735FE4FF6FF702B4632463946009045
:1006E0003046FFF72CFE48F210406A1E93B291B2DA
:1006F000721C009090B22246FFF721FE44F20820BF
:100700002B462246294600903046FFF718FE48F255
:100710001040631E9AB27B1C99B2631E009098B27F
:100720002B46FFF70CFE44F208202B4622463946A2
:1007300000902046FFF703FEF8BD2DE9F84F07466D
:10074000884693469A46DDF828900097B3E099F8DA
:10075000000080283DDA99F800600D2E05D1009F39
:1007600008F110001FFA80F830E0202E03DDA6F11A
:10077000200086B200E00026002422E000251CE0D4
:1007800004EB0610E849085C80212941084040B18B
:1007900008EB040291B27A1990B25A4600F002FCBA
:1007A00009E0D34507D008EB040291B27A1990B260
:1007B000524600F0F7FB681CC5B2082DE0DB601C58
:1007C000C4B2102CDADB07F1080087B209F1010985
:1007D00071E0002668E006EB0610D44911F810001D
:1007E00099F8001088425DD106EB0610CF4901EB65
:1007F0004000407899F80110884253D100244FE01E
:10080000002520E006EB0610C84901EB4000801CE3
:1008100010F8141080202841014041B108EB040277
:1008200091B27A1990B25A4600F0BCFB09E0D34568
:1008300007D008EB040291B27A1990B2524600F048
:10084000B1FB681CC5B2082DDCDB002524E006EBFB
:100850000610B64901EB4000801C012101EB440168
:10086000405C80212941084048B108EB040291B264
:100870007A19083290B25A4600F094FB0AE0D34548
:1008800008D008EB040291B27A19083290B25246AD
:1008900000F088FB681CC5B2082DD8DB601CC4B210
:1008A000102CADDB701C86B2322E94DB09F10209EC
:1008B00007F1100087B299F8000000287FF447AFD5
:1008C000BDE8F88F2DE9F05F0646884693469A46C4
:1008D000DDF82890E2E099F80000802835DA99F8F0
:1008E0000070202F03DDA7F1200087B200E0002771
:1008F000002522E000241CE005EB07108A49095C72
:1009000080202041014041B108EB050291B232192B
:1009100090B25A4600F046FB09E0D34507D008EBF9
:10092000050291B2321990B2524600F03BFB601CB6
:10093000C4B2082CE0DB681CC5B2102DDADB09F16B
:10094000010906F1080086B2A8E000279EE007EB47
:10095000870000EB4710764911F8100099F8001055
:1009600088427CD107EB870000EB4710704901EB10
:100970004000407899F801108842F2D1002580E0CB
:10098000002423E007EB870000EB4710684901EBE8
:100990004000801C05EB4501405C8021214108405E
:1009A00040B108EB050291B2321990B25A4600F0FC
:1009B000F9FA09E0D34507D008EB050291B23219E4
:1009C00090B2524600F0EEFA601CC4B2082CD9DB9B
:1009D000002426E007EB870000EB4710544901EBA9
:1009E0004000801C05EB4501491C405C80212141F1
:1009F000084048B108EB050291B23219083290B2B2
:100A00005A4600F0CFFA0AE0D34508D008EB0502B9
:100A100091B23219083290B2524600F0C3FA601C0B
:100A2000C4B2082CD6DB002427E007EB870000EBDC
:100A300047103F4901EB4000801C05EB4501891C34
:100A4000405C80212141084050B108EB050291B281
:100A50003219103290B25A4600F0A4FA0BE013E0BB
:100A6000D34508D008EB050291B23219103290B28A
:100A7000524600F097FA601CC4B2082CD5DB681C03
:100A8000C5B2182DFFF67CAF781C87B2142FFFF685
:100A90005EAF09F1020906F1180086B299F800006C
:100AA00000287FF418AFBDE8F09F2DE9F05F0746FE
:100AB000884692469946002531E000242BE01D49E6
:100AC0000A9801EBC01000EB850010F804B0002676
:100AD0001DE08020304100EA0B0050B108EB050218
:100AE00091B207EBC402324490B2524600F05AFA77
:100AF0000BE0CA4509D008EB050291B207EBC4022E
:100B0000324490B24A4600F04DFA701CC6B2082E2C
:100B1000DFDB601CC4B2042CD1DB681CC5B2202D05
:100B2000CBDBBDE8F09F00005A200008CC2D000868
:100B3000B43400084B26000808B50121082000F055
:100B400091FF4FF47E40ADF8000003208DF80200C5
:100B500010208DF803006946F94800F0C7FC08BD75
:100B60000021082118E000F080022AB14FF4004271
:100B7000F34B10331A6004E04FF40042F04B14338F
:100B80001A604FF40052EE4B14331A601B1F1A60A8
:100B90004206100E4A1ED1B20029E4DC704702461C
:100BA00000BF108900F002000028FAD0918100BF38
:100BB000108900F001000028FAD09089C0B2704777
:100BC00002884FF6C7731A400280012902D10288B9
:100BD000028003E0028842F020020280028842F094
:100BE00040020280704700B587B00121092000F063
:100BF00039FF4FF42040ADF8040003208DF80600C3
:100C000018208DF8070001A9CD4800F06FFC4FF4C3
:100C10008040ADF8040048208DF8070003208DF8CF
:100C2000060001A9C64800F061FC4FF4F050ADF891
:100C3000040003208DF8060010208DF8070001A99C
:100C4000BF4800F053FC0121880300F018FF00208A
:100C5000ADF808004FF48270ADF80A000020ADF83E
:100C60000C000220ADF80E000120ADF8100040028B
:100C7000ADF812000020ADF81400ADF81600072002
:100C8000ADF8180002A9AF4800F076FF0121AD4889
:100C900001F017F807B000BD00B503464FF400603F
:100CA000A74914310860401008601946A548FFF7AD
:100CB00076FF4FF40060A2491031086000BD00B516
:100CC00003464FF400609E49143108604010091F2C
:100CD000086019469B48FFF762FF4FF4006098498F
:100CE0001031086000BD10B504462012FFF7E7FF81
:100CF000E0B2FFF7E4FF10BD30B505460C462846CC
:100D0000FFF7CAFF2046FFF7EEFF30BD10B54FF4E6
:100D100080508B49143108606420FFF731FA4FF49A
:100D200080508749103108603220FFF729FA10BD42
:100D300010B5FFF758FFFFF7E9FF1120FFF7ACFFF1
:100D40000020FFF7BCFFCF20FFF7A6FF0020FFF732
:100D5000B6FFC120FFF7B3FF3020FFF7B0FFED2053
:100D6000FFF79AFF6420FFF7AAFF0320FFF7A7FF12
:100D70001220FFF7A4FF8120FFF7A1FFE820FFF773
:100D80008BFF8520FFF79BFF1120FFF798FF78204E
:100D9000FFF795FFF620FFF77FFF0120FFF78FFF9A
:100DA0003020FFF78CFF0020FFF789FFCB20FFF7F3
:100DB00073FF3920FFF783FF2C20FFF780FF00200F
:100DC000FFF77DFF3420FFF77AFF0520FFF777FF5D
:100DD000F720FFF761FF2020FFF771FFEA20FFF700
:100DE0005BFF0020FFF76BFF0020FFF768FFC020CC
:100DF000FFF752FF2020FFF762FFC120FFF74CFFF3
:100E00001120FFF75CFFC520FFF746FF3120FFF7F9
:100E100056FF3C20FFF753FFC720FFF73DFFA920F7
:100E2000FFF74DFF3A20FFF737FF5520FFF747FF49
:100E30003620FFF731FFE820FFF741FFB120FFF731
:100E40002BFF0020FFF73BFF1820FFF738FFB420EF
:100E5000FFF722FF0020FFF732FF0020FFF72FFFF0
:100E6000F220FFF719FF0020FFF729FF2620FFF7E8
:100E700013FF0120FFF723FFE020FFF70DFF0F20F6
:100E8000FFF71DFF1720FFF71AFF1420FFF717FFCA
:100E90000920FFF714FF0C20FFF711FF0620FFF7D2
:100EA0000EFF4320FFF70BFF7520FFF708FF3620EA
:100EB000FFF705FF0820FFF702FF1320FFF7FFFEF3
:100EC0000520FFF7FCFE1020FFF7F9FE0B20FFF7CF
:100ED000F6FE0820FFF7F3FEE120FFF7DDFE00201D
:100EE000FFF7EDFE1F20FFF7EAFE2320FFF7E7FEE6
:100EF0000320FFF7E4FE0E20FFF7E1FE0420FFF7DA
:100F0000DEFE3920FFF7DBFE2520FFF7D8FE4D205F
:100F1000FFF7D5FE0620FFF7D2FE0D20FFF7CFFE2C
:100F20000B20FFF7CCFE3320FFF7C9FE3720FFF779
:100F3000C6FE0F20FFF7C3FE2920FFF7ADFE10BD50
:100F4000000C01400038004030B505460C462A2010
:100F5000FFF7A2FE2846FFF7C6FE2B20FFF79CFEF8
:100F60002046FFF7C0FE2C20FFF796FE30BDF0B5FF
:100F700007460C4615461E462A20FFF78DFE3846CA
:100F8000FFF7B1FE2846FFF7AEFE2B20FFF784FEE9
:100F90002046FFF7A8FE3046FFF7A5FE2C20FFF7FE
:100FA0007BFEF0BD70B505460E4614463146284618
:100FB000FFF7CAFF2046FFF796FE70BD30B5044626
:100FC000EF2340F23F1200210846FFF7D0FF4FF415
:100FD00000600C4908604010091F0860002508E007
:100FE00021120948FFF7DBFDE1B20748FFF7D7FD03
:100FF0006D1CB5F5963FF3D34FF400600149091F0E
:10100000086030BD140C01400038004000F083FF40
:101010004820FFF799F804E000F09EF9C820FFF798
:10102000AFF8F9E708B54EF67D70FFF7C7FFD5A01A
:101030004EF67D731F22022100901020FFF77DFBEA
:10104000D4A04EF67D734FF4784214210090102006
:10105000FFF773FB3A23712226210F20FFF72CFBA9
:10106000D0A04EF67D734FF4FC6228210090102032
:10107000FFF763FB5823712244210F20FFF71CFB6D
:10108000CCA04EF67D731F22462100901020FFF762
:1010900054FB7623712262210F20FFF70DFBC9A0BC
:1010A0004EF67D734FF47842642100901020FFF7D4
:1010B00044FBC8A04EF67D734FF478428C2100901B
:1010C0001020FFF73AFBC54840794EF67D734FF488
:1010D00078427D2100906420FFF7E7FC4FF47A709E
:1010E000FFF74EF8BD4800794EF67D734FF4784215
:1010F0007D2100906420FFF7D8FC4FF47A70FFF751
:101100003FF8B648C0784EF67D734FF478427D21A3
:1011100000906420FFF7C9FC4FF47A70FFF730F8B5
:10112000AE4880784EF67D734FF478427D21009072
:101130006420FFF7BAFC4FF47A70FFF721F8A74854
:1011400040784EF67D734FF478427D210090642004
:10115000FFF7ABFC4FF47A70FFF712F89F48007866
:101160004EF67D734FF478427D2100906420FFF7A6
:101170009CFC08BDF8B500244EF67D70FFF71EFFFD
:1011800097A04EF67D734FF4784214210090102002
:10119000FFF7D3FA4FF47A70FEF7F2FF4EF67D7048
:1011A000FFF70CFF00BF21E0032094FBF0F04001AB
:1011B0001E3085B2032094FBF0F100FB114000EBE0
:1011C00080004FF6FF7101EAC0068449601C085C8C
:1011D0004EF67D734FF47842294600903046FFF773
:1011E00064FC6420FEF7CCFF601CC4B20A2CDBDB7D
:1011F000F8BD08B57DA04EF67D731F221421009026
:101200001E20FFF75FFB80A04EF67D731F22462154
:1012100000901E20FFF756FB7FA04EF67D731F2225
:10122000782100901E20FFF74DFB40F2DC50FEF7C6
:10123000A7FF08BD38B501244EF67D70FFF7BEFE4E
:1012400058A04EF67D731F220A2100901420FFF74C
:1012500074FA4FF49660FEF793FF25E04FF6FF70A7
:10126000FFF7ACFE4FF4FA70FEF78AFF0020FFF79D
:10127000A5FE4FF4FA70FEF783FF4FF47840FFF7B6
:101280009DFE4FF4FA70FEF77BFF4FF4FC60FFF712
:1012900095FE4FF4FA70FEF773FF1F20FFF78EFEE6
:1012A0004FF4FA70FEF76CFF201EA4F10101CCB2DE
:1012B000D4D138BD2DE9F84307464EF67D70FFF7CF
:1012C0007DFE40A04EF67D731F220A210090102063
:1012D000FFF733FA4FF47A70FEF752FF4EF67D7047
:1012E000FFF76CFE002633E000252EE006EB860CAF
:1012F0004FEACC0C0CF1270C1FFA8CF305EB850C94
:101300004FEACC0C0CF1270C1FFA8CF206EB860C82
:101310004FEACC4C4FEA1C4105EB850C4FEACC4C14
:101320004FEA1C40FFF723FE00240AE017F8149050
:1013300007EB440090F8018049EA0820FFF7D3FC4E
:10134000641CB4F5C86FF1DB6D1C082DCEDB761C78
:10135000062EC9DBBDE8F883FFF7EAFC4FF4007006
:10136000314908604EF67D70FFF728FE08E0002046
:10137000FFF7A0FF4FF6FF70FFF720FEFFF739FFE2
:10138000F5E70000C8ABB6AFB5E7D7D3BCBCCAF52C
:1013900000000000D2BABEA7B2E2CAD4B3CCD0F2E9
:1013A00000000000D1D5C9ABCCEEB3E4B2E2CAD4A0
:1013B00000000000CEC4D7D6CFD4CABEB2E2CAD491
:1013C00000000000CDBCC6ACCFD4CABEB2E2CAD4C5
:1013D0000000000057656C636F6D6500040000201D
:1013E0004E756D20546573740000000049662079C5
:1013F0006F75206861766520736F6D652074726FFC
:1014000075626C652C000000506C6561736520632B
:10141000616C6C206D652E0054656C3A3138393240
:101420003634313239333000100C014010B50446E7
:10143000CC48844208D10121042000F02DFB00217A
:10144000042000F029FB46E0C748844208D101216E
:10145000082000F021FB0021082000F01DFB3AE0ED
:10146000C248844208D10121102000F015FB002160
:10147000102000F011FB2EE0BD48844208D101216C
:10148000202000F009FB0021202000F005FB22E0D5
:10149000B848844208D10121402000F0FDFA002123
:1014A000402000F0F9FA16E0B348844208D1012147
:1014B000802000F0F1FA0021802000F0EDFA0AE02F
:1014C000AE48844207D10121801500F0E5FA0021E1
:1014D000A01500F0E1FA10BD10B50121084600F09A
:1014E000DBFA0021012000F0D7FA10BD2DE9F04110
:1014F000024600250026002000230024002791F842
:1015000003C00CF00F0591F803C00CF0100CBCF1F7
:10151000000F03D091F802C04CEA050591F800C015
:10152000BCF1000F31D0146800202BE04FF0010C0B
:101530000CFA00F3B1F800C00CEA03069E4220D179
:1015400083004FF00F0C0CFA03F7BC4305FA03FCC1
:101550004CEA040491F803C0BCF1280F06D14FF007
:10156000010C0CFA00FCC2F814C00AE091F803C0A8
:10157000BCF1480F05D14FF0010C0CFA00FCC2F889
:1015800010C0401C0828D1D31460B1F800C0BCF1D1
:10159000FF0F34DD546800202EE000F1080C4FF0FE
:1015A000010808FA0CF3B1F800C00CEA03069E42E9
:1015B00021D183004FF00F0C0CFA03F7BC4305FA5E
:1015C00003FC4CEA040491F803C0BCF1280F05D1D8
:1015D00000F1080C08FA0CF8C2F8148091F803C066
:1015E000BCF1480F07D100F1080C4FF0010808FAD0
:1015F0000CF8C2F81080401C0828CED35460BDE817
:10160000F0814FF6FF710180022181700421C170C9
:1016100070470246002093680B400BB1012000E0A8
:10162000002070470146886880B27047024600205B
:10163000D3680B400BB1012000E000207047014649
:10164000C86880B2704701617047416170470AB154
:10165000016100E041617047C16070474FF4803222
:101660000A438261816182618269826970470246B0
:101670000020434B18684FF68073184040EA021070
:1016800008433F4B186070473E49C8617047F0B54A
:101690000A46002300240021002500F00046B6F190
:1016A000004F02D1364EF16901E0354E7168C0F34A
:1016B000034583B200F44016B6F5401F08D121F06F
:1016C00070612F4E766826F070662D4F7E6012E0B6
:1016D00000F48016B6F5801F06D1032606FA05F43D
:1016E000A14341F0706106E0460D360103FA06F6AB
:1016F000B14341F0706122B1460D360103FA06F69E
:10170000314300F00046B6F1004F02D11C4EF161AA
:1017100001E01B4E7160F0BD30B500228B071C0F3D
:101720000F2303FA04F2164B08338C1053F82430BD
:101730009343134C08348D1044F8253023468C1005
:1017400053F824308C07240F00FA04F423430C4C84
:1017500008348D1044F8253030BD0A49DC3108606A
:101760007047000000080140000C014000100140DB
:101770000014014000180140001C014000200140FD
:101780000000014000002042DF48006840F00100F6
:10179000DD49086008464068DC490840DA4948608D
:1017A00008460068DA490840D749086008460068DA
:1017B00020F4802008600846406820F4FE0048605D
:1017C0004FF41F0088607047CF49096821F48031C9
:1017D000CD4A11601146096821F480211160B0F5ED
:1017E000803F03D0B0F5802F0ED106E0C6490968CE
:1017F00041F48031C44A116007E0C349096841F4EB
:10180000A021C14A116000E000BF00BF704710B5C1
:1018100001460022002300204A11012A02D1BA4CBD
:10182000236806E0022A02D1B74C236A01E0B64CD5
:10183000636A01F01F02012494401C400CB1012096
:1018400000E0002010BD38B50020009000240025E5
:1018500000BF3120FFF7DBFF05460098401C0090D9
:101860000098B0F5A06F01D0002DF2D03120FFF725
:10187000CEFF08B1012400E00024204638BD014617
:101880000020A14A106820F0F80040EAC100106072
:101890007047A04908607047024600209A4B58687C
:1018A00020F47C1042EA01031843974B58607047BC
:1018B00098490866704701460020934A506820F016
:1018C00003000843506070478F48406800F00C00E8
:1018D0007047014600208C4A506820F0F000084311
:1018E0005060704701460020874A506820F4E0604D
:1018F00008435060704701460020834A506820F436
:10190000605040EAC1005060704729B17E4A527A67
:1019100002437D4B5A7204E07B4A527A82437A4BEF
:101920005A7270477B49D8310860704701460020E1
:10193000754A506820F440400843506070470021C9
:10194000714A20321170704A82F82010012802D0AA
:1019500004280AD104E001216B4A2032117005E00D
:101960000521694A2032117000E000BF00BF7047B6
:101970006949086070476449096A0143624A116213
:101980007047654944390860704730B5002100222E
:10199000002400235C4D6D6805F00C0121B1042981
:1019A00005D0082923D105E05C4D056022E05B4DA0
:1019B00005601FE0544D6D6805F47012524D6D685E
:1019C00005F48034022505EB92421CB9544D554371
:1019D00005600BE04C4D6D6805F400351DB1504DB0
:1019E0005543056002E04D4D5543056002E04B4D07
:1019F000056000BF00BF444D6D6805F0F0010909A6
:101A0000484D6B5C0568DD4045603F4D6D6805F4F1
:101A1000E061090A434D6B5C4568DD4085603A4DE5
:101A20006D6805F46051C90A3E4D6B5C4568DD4048
:101A3000C560354D6D6805F44041890B3A4D6B5CCE
:101A4000C568B5FBF3F5056130BD29B12E4A526971
:101A500002432D4B5A6104E02B4A526982432A4BC0
:101A60005A61704729B1284A92690243264B9A610C
:101A700004E0254A92698243234B9A61704729B159
:101A8000214AD2690243204BDA6104E01E4AD2693E
:101A900082431D4BDA61704729B11B4AD268024369
:101AA000194BDA6004E0184AD2688243164BDA60B8
:101AB000704729B1144A12690243134B1A6104E0BA
:101AC000114A12698243104B1A617047124940391A
:101AD000086070470F49C86470470B49C871704768
:101AE0000948406A40F080700749486270470146E3
:101AF0000020054A92680A400AB1012000E0002057
:101B00007047014988727047001002400000FFF8DA
:101B1000FFFFF6FE000042428004424200127A00BB
:101B200000093D000E0000201E00002010B50446F4
:101B3000BE48844208D101218014FFF7ADFF002187
:101B4000A014FFF7A9FF16E0B948844208D101218B
:101B50000014FFF7AEFF00212014FFF7AAFF0AE0F0
:101B6000B448844207D10121C013FFF7A2FF00212E
:101B7000E013FFF79EFF10BD10B50022028802F4AB
:101B800041520B884C8823438C882343CC882343C1
:101B90000C8923434C8923438C892343CC892343D9
:101BA0001A430280838B4FF2FF74234083830B8A96
:101BB000038210BD2DE9F04F85B005460C464FF06D
:101BC000000902274FF000084FF0010B0026B24633
:101BD000A88B4FF240010840A88302202884B5F862
:101BE0001C90A068022801D100BF38E0A08810B97D
:101BF0004FF0010B01E04FF0020B8D48854200D100
:101C000000E000BF6846FFF7C0FEDDF800A0E088F6
:101C1000B0F5007F0AD14FEA1A2000EB80004000A7
:101C2000A168B0FBF1F0401D86B20BE04FEA4B100B
:101C3000BAFBF0F000EB80004000A168B0FBF1F0CF
:101C4000401D86B20A20B6FBF0F606F00108A6EBAE
:101C50000800C0F34F074FF6FF7000EA0828022F74
:101C600001DBFF2F02DD02274FF00008E08840EA89
:101C7000080038432884A088A18908436188084364
:101C80002188084340F4006040EA0909A5F81C9047
:101C900005B0BDE8F08F0021018041808180C180C6
:101CA000018141818181C181072101827047002129
:101CB000018041808180C180022181600021818179
:101CC000704721B1028842F04002028004E002889D
:101CD0004FF6BF731A400280704721B1828B42F4E5
:101CE0008062828304E0828B4FF6FF331A40828346
:101CF000704730B5002400230C110125A540ABB27C
:101D00001AB185881D43858002E085889D438580C2
:101D100030BD1AB183880B43838002E083888B43F4
:101D200083807047818170470146888970474FF6EC
:101D3000FF62914204D0028842F48072028004E083
:101D400002884FF6FF631A400280704721B18288F3
:101D500042F00402828004E082884FF6FB731A404E
:101D60008280704702884FF2FF731A400280028817
:101D70000A4302807047018841F480510180704716
:101D800021B1028842F40052028004E002884DF63C
:101D9000FF731A400280704702460020012901D0DB
:101DA000108B00E0908A70470146088A7047B1F5B1
:101DB000804F04D1028842F48042028004E002880D
:101DC0004BF6FF731A4002807047024600201389C9
:101DD0000B400BB1012000E000207047CA43028194
:101DE0007047F0B50246002000240023002501F0D2
:101DF0000F070126BE40B4B20B1101269E40B3B2BC
:101E0000968806EA03051689264016B10DB1012011
:101E100000E00020F0BD10B5002201F00F04012306
:101E2000A3409AB2D343038110BD000000300140AB
:101E300000380040003C00400CB5002001900090AC
:101E40006C48006840F480306A49086000BF694807
:101E5000006800F4003000900198401C0190009848
:101E600018B90198B0F5A06FF1D16248006800F48C
:101E7000003010B10120009001E000200090009897
:101E8000012843D15C48006840F010005A490860BE
:101E90000846006820F0030008600846006840F02B
:101EA000020008605348406852494860084640684C
:101EB00048600846406840F48060486008464068D2
:101EC00020F47C1048600846406840F4E810486000
:101ED0000846006840F08070086000BF4548006810
:101EE00000F000700028F9D04248406820F003005C
:101EF000404948600846406840F00200486000BF22
:101F00003C48406800F00C000828F9D10CBD10B521
:101F1000FFF792FF10BD10B53648006840F0010091
:101F200034490860084640683449084031494860EF
:101F300008460068324908402E4908600846006893
:101F400020F4802008600846406820F4FE004860C5
:101F50004FF41F008860FFF7DAFF4FF00060294957
:101F6000086010BD10B5002100200022214B5B68E5
:101F700003F00C0121B1042906D0082928D107E07B
:101F8000214B224C236027E01F4B204C236023E091
:101F9000184B5B6803F47010164B5B6803F48032D7
:101FA000022303EB904022B9194B4343174C2360A3
:101FB0000DE0104B5B6803F4003323B1144B434333
:101FC000124C236003E0104B4343104C236003E0AA
:101FD0000D4B0E4C236000BF00BF064B5B68C3F384
:101FE00003130C4CE15C094B1B68CB40074C23608E
:101FF00010BD000000100240002002400000FFF869
:10200000FFFFF6FE08ED00E000127A002400002039
:1020100000093D0028000020064C074D06E0E0685E
:1020200040F0010394E8070098471034AC42F6D31F
:10203000FEF760F8343A0008543A000802E008C895
:10204000121F08C1002AFAD170477047002001E032
:1020500001C1121F002AFBD17047000000000000E0
:102060000000000000000000000000101010101020
:102070001010101000001010000000006C6C2424E0
:10208000000000000100000000000024242424FEC1
:1020900048484848FC909090900000103C54929022
:1020A000503814121292547810000000225C94A848
:1020B000481010242A52548800000000304848502C
:1020C000206E54948C888A74000000003030101008
:1020D00000000000000000000000000408101020B4
:1020E0002020202020101008040000804020201014
:1020F000101010101020204080000000000010542C
:1021000038103854100000000000000000101010BB
:1021100010FE101010100000000000000000000071
:10212000000000000000101020000000000000006F
:1021300000FE0000000000000000000000000000A1
:102140000000000000001010000000000404080857
:10215000101020204040808000000000384482821F
:102160008282828282824438000000001070101047
:10217000101010101010107C0000000038448282F3
:1021800004081020408284FC0000000038448202D1
:10219000043804020282443800000000040C1414C5
:1021A00024244444FE04040E00000000FC808080CF
:1021B000B8C4820202828478000000003C4282801F
:1021C000B8C4828282824438000000007E428204C9
:1021D0000408080810101010000000003844828223
:1021E00044384482828244380000000038448282AD
:1021F0008282463A0282443800000000000010103B
:10220000000000001010000000000000000010108E
:102210000000000000101020000000000000061860
:102220006080601806000000000000000000000050
:10223000FE0000FE00000000000000000000C030B2
:102240000C020C30C0000000000000384482820202
:102250000408101010001010000000003844829A8A
:10226000AAAAAAAAAA9680423C0000001010102830
:10227000282844447C4444EE00000000FC424242D2
:10228000427C4242424242FC000000003C448280C8
:10229000808080808282443800000000F8444242FE
:1022A00042424242424244F800000000FC444240A4
:1022B000447C4440404244FC00000000FC44424056
:1022C000447C4440404040F000000000344C828098
:1022D00080808E8484844C3400000000EE444444AA
:1022E000447C4444444444EE000000007C10101040
:1022F000101010101010107C000000003E0808089C
:10230000080808080888887000000000EE44484863
:1023100050605048484444EE00000000E040404017
:1023200040404040404244FC00000000C6446C6C09
:102330006C545454444444EE00000000CE446464A1
:102340006454544C4C4C44E40000000038448282F5
:10235000828282828282443800000000F844424235
:1023600042447840404040E000000000384482820F
:102370008282828282BA443C02000000F0484444D7
:1023800044487048444444E6000000003C448280D5
:1023900040300C0202824478000000007C5492100D
:1023A000101010101010103800000000EE444444CB
:1023B000444444444444443800000000EE4444444F
:1023C000442828282810101000000000EE4454541F
:1023D000545454542828282800000000EE4444286F
:1023E00028101028284444EE00000000EE44442841
:1023F0002828101010101038000000007E448408B7
:1024000008102020408284FC0000001C10101010D6
:1024100010101010101010101C000000EE44545446
:10242000FE54545428282828000000701010101062
:1024300010101010101010107000003048840000B0
:10244000000000000000000000000000000000008C
:102450000000000000000000FE000040200000001E
:10246000000000000000000000000000000000006C
:102470007884047C84848C7600000000C040404056
:1024800058644242424264580000000000000000CC
:102490003844808080804438000000000C0404042C
:1024A000344C848484844C3600000000000000001A
:1024B000788484FC80808478000000001824202028
:1024C000F8202020202020700000000000000000E4
:1024D0003A444478807C82827C000000C0404040C6
:1024E00058644444444444EE0000000010100000CE
:1024F00030101010101010380000000010100000F4
:10250000301010101010109060000000C0404040CB
:102510005C485060504844EE00000000301010103D
:102520001011101010101039000000000000000001
:10253000ACD29292929292D600000000000000006D
:1025400058E44444444444EE00000000000000000D
:10255000384482828282443800000000000000007B
:10256000D864424242645840E0000000000000008D
:10257000364C8484844C34040E00000000000000BB
:102580006C3020202020207000000000000000009F
:10259000788884601884447800000000002020209F
:1025A000F820202020202418000000000000000057
:1025B000C64242424242463A00000000000000008B
:1025C000EE444428282810100000000000000000FD
:1025D000EE44445454282828000000000000000065
:1025E000EE442810102844EE000000000000000017
:1025F000EE444428281010A0C00000000000000095
:102600007E448810204284FC0000000C1010101042
:1026100010601010101010100C000010101010108E
:102620001010101010101010100000C020202020DA
:102630002018202020202020C000000000000000E2
:1026400000728C000000000000000000000000008C
:102650001FE000003FF000003FF000001FE000011D
:1026600080060003C00F0003C00F0003C00F00036B
:10267000C00F0003C00F0003C00F0003C00F000312
:10268000C00F000300030000000000000000000075
:102690000000000300030003C00F0003C00F00038D
:1026A000C00F0003C00F0003C00F0003C00F0003E2
:1026B000C00F0003C00F0001800600001FE00000F3
:1026C0003FF000003FF000001FE0000000000000AD
:1026D0000000000000800000018000000380000076
:1026E00007800000078000000780000007800000CE
:1026F00007800000078000000780000007800000BE
:1027000007800000018000000000000000000000C1
:10271000000000000180000007800000078000002A
:10272000078000000780000007800000078000008D
:102730000780000007800000078000000380000081
:102740000180000000800000000000000000000088
:102750001FE000003FF00000FFF00001FFE000007C
:1027600000060000000F0000000F0000000F000036
:10277000000F0000000F0000000F0000000F00001D
:10278000000F00001FE300007FF800007FF800004A
:102790001FE0000300000003C0000003C0000003AE
:1027A000C0000003C0000003C0000003C00000031D
:1027B000C0000003C0000001800000001FF0000006
:1027C0003FF800003FFC00001FFE00000000000377
:1027D000FF800001FFC00000FFC000007F800000FC
:1027E00000180000003C0000003C0000003C00001D
:1027F000003C0000003C0000003C0000003C0000E9
:10280000003C00007F8C0001FFE00001FFF00000B1
:102810007F800000000C0000003C0000003C000035
:10282000003C0000003C0000003C0000003C0000B8
:10283000003C0000003C0000001800007F80000009
:10284000FFC00001FFC00003FF8000000000000087
:1028500000000002000100030003000380070003E2
:10286000C00F0003C00F0003C00F0003C00F000320
:10287000C00F0003C00F0003C00F0003C00F000310
:10288000C00F00031FE300007FF800007FFC000082
:102890001FE0000000030000000F0000000F000018
:1028A000000F0000000F0000000F0000000F0000EC
:1028B000000F0000000F0000000F000000070000E4
:1028C0000003000000010000000000000000000004
:1028D0001FFC00003FF800003FF000001FE0000177
:1028E00080000003C0000003C0000003C00000031C
:1028F000C0000003C0000003C0000003C0000003CC
:10290000C00000031FE000007FF800007FF8000017
:102910001FE0000000030000000F0000000F000097
:10292000000F0000000F0000000F0000000F00006B
:10293000000F0000000F0000000600003FE0000054
:102940007FF00000FFF00001FFE000000000000049
:102950001FFC00003FF800003FF000001FE00001F6
:1029600080000003C0000003C0000003C00000039B
:10297000C0000003C0000003C0000003C00000034B
:10298000C00000031FE000007FF800007FFC000093
:102990001FE0000300030003C00F0003C00F00038B
:1029A000C00F0003C00F0003C00F0003C00F0003DF
:1029B000C00F0003C00F0001800600001FE00000F0
:1029C0003FF000003FF000001FE0000000000007A3
:1029D000FFE00003FFC00001FF880000FF180000B7
:1029E0000038000000780000007800000078000047
:1029F00000780000007800000078000000780000F7
:102A00000078000000180000000000000000000036
:102A100000000000001800000078000000780000AE
:102A200000780000007800000078000000780000C6
:102A300000780000007800000078000000380000F6
:102A40000018000000080000000000000000000066
:102A50001FE000003FF000003FF000001FE0000119
:102A600080060003C00F0003C00F0003C00F000367
:102A7000C00F0003C00F0003C00F0003C00F00030E
:102A8000C00F00031FE300007FF800007FFC000080
:102A90001FE0000300030003C00F0003C00F00038A
:102AA000C00F0003C00F0003C00F0003C00F0003DE
:102AB000C00F0003C00F0001800600001FE00000EF
:102AC0003FF000003FF000001FE0000000000000A9
:102AD0001FE000003FF000003FF000001FE0000199
:102AE00080060003C00F0003C00F0003C00F0003E7
:102AF000C00F0003C00F0003C00F0003C00F00038E
:102B0000C00F00031FE300007FF800007FFC0000FF
:102B10001FE0000000030000000F0000000F000095
:102B2000000F0000000F0000000F0000000F000069
:102B3000000F0000000F0000000600001FE0000072
:102B40003FF000007FF00000FFE000000000000008
:102B50000000000000000000000000000000000075
:102B60000000000000000000000000000000000065
:102B70000000000000000000000000000000000055
:102B80000000000000000000000000000000000045
:102B90000000000000000000000000000000000035
:102BA0007800000078000000780000007800000045
:102BB0007800000078000000000000000000000025
:102BC0000000000000000000000000000000000005
:102BD00000000000000000000000000000000000F5
:102BE00000000000000000000000000007000000DE
:102BF0000F8000000F8000000F8000000700000021
:102C000000000000000000000000000000000000C4
:102C10000000000000000000070000000F8000001E
:102C20000F8000000F80000007000000000000007F
:102C30000000000000000000000000000000000094
:102C40000000000000000000000000000000000084
:102C5000000000000000000000000007C006000F98
:102C6000E0060000000C0030181800301818003082
:102C700018300030183000301860003008C00007ED
:102C8000C0C0000FE080000000000000000FE00066
:102C90000607C000063018000C3018000C30180071
:102CA0001830180030301800303018006000000074
:102CB000C00FE000C007C0000000000000000000DE
:102CC0000000000000000000000000000000000004
:102CD00000000000000000000000000000000000F4
:102CE0000000000700E0000887FC00088E030008D1
:102CF00098018007180080003000000030000000BC
:102D00007000000060000000600000006000000033
:102D10006000000060000000700000003000000053
:102D20003000000038000000180100000C03000013
:102D300007FC000001F0000000000000000000009F
:102D40000000000000000000000000000000000083
:102D50000000000000000000000000000000000073
:102D60000000000000000000000000000000000063
:102D70000000000000000000000000000000000053
:102D800000000000000000003FF000007FF00000A5
:102D90007FE00000FFC00000000000000000000015
:102DA0000000000000000000000000000000000023
:102DB0000000000000000000000000000000000013
:102DC000000000000000000000000000B5E7020065
:102DD000020002007FF0421042107FF042104210C9
:102DE0007FF042000208020801F800000000D7D37B
:102DF0007FF000200040008001000200FFF8020088
:102E0000020002000200020002000E0000000000AA
:102E1000C8AB0100010002800440082010102FE818
:102E2000C106010001001FF00100010001007FFC4C
:102E30000000B6AF004000407C40004001FC004470
:102E4000FE4420442044208448844484FD044504F6
:102E500002280410BCBC10201020102013FEFC20FF
:102E60001020102015FC18843088D04810501020F5
:102E7000105051882606CAF50100012001100110EA
:102E80007FFC038005400540092011102108410402
:102E90000102010001000100D2BA0080404027F881
:102EA000114001408278424816A81AD023502220AF
:102EB00042204250028800000000BEA73FE02020D0
:102EC0003FE020203FE00000FDF885088508FDF880
:102ED00085088508FDF8850800000000B2E20008BA
:102EE0004F8828880AA88AA84AA80AA82AA82AA82F
:102EF0004228450884888888103800000000CAD419
:102F00004050204820400FF80040E0402740224039
:102F1000224022202A2833A82E1800080000000092
:102F2000B3CC00001BF0E210221023F0F8002000C8
:102F300033F068806080A3F02080208027F80000B4
:102F40000000D0F2020001003FF820002FF0202006
:102F5000224021803FF8208820904080408083805C
:102F600000000000D1D5200010F87E20444028F851
:102F70007E8848A850A864A848A872A884501888D9
:102F8000610800000000C9AB100010003FE04040A5
:102F900080807FF04210421042107FF040004008D5
:102FA00040083FF800000000CCEE20802FF8208081
:102FB00027F0F41027F0241027F0241027F0341005
:102FC000CFF80220041000000000B3E40400020067
:102FD000FFF80800104020207FF00890088008804B
:102FE000088010882088C07800000000CEC404004B
:102FF00002000200FFF81040104008800880050021
:103000000200050008803060C01800000000D7D61C
:1030100004000200FFF8800880083FC00080010023
:103020000200FFF80200020002000E000000000093
:10303000CFD43FE0202020203FE0202020203FE090
:1030400008804890289028A008800880FFF8000099
:103050000000CABE00003FE0000000000000FFF8D2
:1030600002001240122022104208820802000E00C4
:1030700000000000CDBC7FF84008440847C848481D
:10308000548843084CC8733840884C08430840882B
:103090007FF800000000C6AC0080208020802080E7
:1030A0003FF02000200020003FC020402040204072
:1030B0004040804000000000B4A520403840484017
:1030C00091F07D50555055507D5055F054407C4006
:1030D000545057F88C0800000000C3FE2220222024
:1030E00027F8FA2027F0241027F03410E7F020808A
:1030F0002FF821402220EC1800000000CAE4408094
:103100004140F22044108BE8A000F78824A827A8AB
:1031100034A8E7A824A8248825B800000000C8EB3C
:1031200008000400040002000200050005000880F9
:10313000088010401040202040108008000000004F
:10314000C8AB020002000500088010402020DFD834
:10315000020002001FC0020002000200FFF800008F
:103160000000B3CC00001BF0E210221023F0F800A6
:10317000200033F068806080A3F02080208027F852
:1031800000000000BCBC208020802080F7F0208060
:10319000208027E03220E220214020802140222090
:1031A000EC1800000000CAF50200024002200200F4
:1031B000FFF807000A800A8012402220421082088D
:1031C0000200020000000000D6A702000200FFF883
:1031D000020002007FE0102010400880050002007D
:1031E000050018C0E03800000000B3D62080208021
:1031F00023F0F880208027F828203020E7F82020CE
:10320000222021202020E0E000000000D7A80200BA
:1032100002007FF004000400FFF8080010003FE007
:10322000002000401C800300008000000000D7A2A6
:1032300001004080200017F00080808040800080E6
:1032400017F010802080208040804FF800000000A0
:10325000C5FA204024402440F448245027602440EC
:103260003440E4402440244025482648E438000007
:103270000000B7A202002220221044007FF80400C0
:1032800008000FE0142024404280810006C0383836
:1032900000000000B3C900A0009000807FF84080CB
:1032A00040907C90449044A044A0444858A84118C1
:1032B000820800000000B9A601000100F90023F017
:1032C000211021102110211021103910C2100210DC
:1032D0000410086000000000D2C600000020007842
:1032E0000CE47904516810307E6019981A3C2FE480
:1032F00048E40838003000600000D1A1000001203F
:10330000012003FC62203420042003FC240021B0AF
:1033100021202220323E18000FE00000D4F10000EE
:10332000000010FC1304110C3DF8703E10D01590F5
:103330007CF0503E18101BFE023000200000CFEE43
:103340000000000003FE00607C4012FC1104110626
:10335000113611241F44794400C0009C01860000EE
:10336000C4BF000000000FE03C18200820043E0409
:10337000600460047E046004200C20081FF00180BB
:103380000000B6CC0000080011FC103E3EF82D8C69
:103390002904490409043E8C50FC10881EC811FC05
:1033A000100E0000B0B400000040006012FE1302D6
:1033B0003A427F4410C41BFE3C987190113011A01A
:1033C0000078004C0000C8B70000004000F878C446
:1033D0001F8C313821EC2126413A7DE2272225FA43
:1033E0003D26012401040000B6A800000100017080
:1033F0005FFC700420042FF801001100113821C473
:1034000031003F0063E040380000B3A4000000003A
:103410000818086008C00B001E00181C7FF0100080
:10342000118010E01838098E0F000000B0B40000C1
:103430000040006012FE13023A427F4410C41BFE9B
:103440003C987190113011A00078004C0000B7B585
:103450000000000007F80600240014F8078C04049C
:103460002408261825F0647C64C220801FC0000058
:10347000BBD8000000001FF030182008278C2C4417
:10348000284428442CC427842004300C1FF80380CF
:10349000000000000000000000000000000000002C
:1034A000000000000000000000000000000000001C
:1034B00000000000B4BF0000000000000201000690
:1034C0003FC00C3FE018030010020033366037267F
:1034D000203E66301C643018642031FEE03F1FC07F
:1034E0001C0C00000C000704003E07F00001C000A7
:1034F0000000000000000000000000000000C9AB58
:1035000000000000000001FE0003E3000703000CC0
:1035100003001C3F003BFFC03F30600C30200C30EC
:10352000200C10200C10600FFFC0083F00080000A6
:103530000800600E3FE007FC0000000000000000F3
:103540000000000000000000CCEE000000000000C1
:1035500000030000FFE00C07F00C06000CFF803FAA
:10356000F0E01FC0600CFE300CCC3004F83004FFDB
:103570002004C0201FFE603EC06001FFF001FFF08C
:10358000006060004000000000000000000000003B
:103590000000B3E400000000000000200000300044
:1035A00007FFF03FFFE00300000601800C018008E8
:1035B00001C01807E00FFE7007E0000206000604D5
:1035C000000404000404000C06700C07E000000076
:1035D000000000000000000000000000B2E2000057
:1035E0000000000000003039FC301FCC300706B06E
:1035F0000F06F01907B03137B03136F01F27F00150
:1036000067F001E5F001E1F00041F00CF8B03CD8C2
:1036100030008C300080300000000000000000000E
:10362000000000000000CAD40000000000000803F1
:10363000600C03700C0330003FE0003F8008010085
:103640003C0180047F80047D800C00800C10C00C45
:1036500010C00C18400C1C600F7E6006703000001B
:10366000300000000000000000000000000000002A
:10367000CEC400000000C00000E00000700001FFA8
:10368000E01FFFC0180100000300000600000E004C
:10369000001C000E180007300001E00000F00000E0
:1036A000FC00018F000303C00201E00000000000E5
:1036B00000000000000000000000D7D6000000005D
:1036C0000000002000003F0031FFE03FC020380034
:1036D0003030FE2033C660100200000C00001800DD
:1036E000001800000C0007FFE03FFFE000040000AE
:1036F0000C00000C000000000000000000000000B2
:1037000000000000CFD400000000000007FF000F01
:1037100003C00C00401FF8601800600800400E0154
:10372000C007FF00000000018400018400198780A9
:103730000F8CE0078C2000CC0003FFE01FFFC000CF
:103740000000000000000000000000000000CABEF1
:103750000000000000000E00001FFFC0007FE0001E
:103760000000000000000000000000003FC03FFF1C
:10377000E00030000030000030000613000C13C0E1
:103780000C18F018180018180000000000000000C5
:103790000000000000000000CDBC000000000000A0
:1037A00007FF000F03801CC0C019FC6011C6603306
:1037B000062033E63036FF30301FF030703030FCFA
:1037C00030339F3036002010E060187C400E01C07E
:1037D00003FF0000380000000000000000000000AF
:1037E0000000C6AC00000000000008180018080027
:1037F000180800180800180C201FFFF01FF8001808
:10380000000010000010F8001FFE001E030010034F
:103810000010030010030010030018020000000055
:10382000000000000000000000000000CFD40000F5
:103830000000000007FF000F03C00C00401FF860ED
:103840001800600800400E01C007FF0000000001E2
:1038500084000184001987800F8CE0078C2000CC45
:103860000003FFE01FFFC000000000000000000098
:10387000000000000000CABE0000000000000E00B2
:10388000001FFFC0007FE0000000000000000000FB
:10389000000000003FC03FFFE000300000300000AB
:1038A00030000613000C13C00C18F018180018187C
:1038B0000000000000000000000000000000000008
:1038C000B4A50000000000000601800FC1801E6149
:1038D00080304FC020CFE0078D303FC93033793082
:1038E0003379303FFB3037FF203267E03FE3803FE2
:1038F000E3C03263603267F0304FB0000000000078
:1039000000000000000000000000C3FE00000000F6
:1039100000000030C000FFF00C79C00C1F800C7F4D
:10392000E03FE0600CC0300CFC3004C03007C03019
:103930001E60603C3FC0041C00047FE000FFE0000C
:1039400030C00060600000000000000000000000C7
:1039500000000000CAE40000000000000C03800C1E
:103960000FC0081C703F70001F9FC0101FC01000C8
:1039700000367C3017E6301FE3B0067FB00277F0E8
:1039800007E3F03F7FF01336F003263003263000C4
:103990000000000000000000000000000000C8EB74
:1039A00000000000000006000003800001C00000CD
:1039B000E00000700000780000CC0000C600018329
:1039C000000301800700C00600E00C007018003002
:1039D000180000300000000000000000000000009F
:1039E00000000000000000000000000000000000D7
:1039F00000000000000000000000000000000000C7
:103A000000000000000000000000000000000000B6
:103A100000000000000000000000000000000000A6
:103A20000000000000000000000000000000000096
:103A300000000000543A0008000000203800000098
:103A40003C2000088C3A00083800002000040000E8
:103A50004C200008000000000001020304050607D6
:103A60000809000000000102030401020304060724
:103A7000080902040608000000A24A040000000031
:0C3A800000000000010203040607080912
:04000005080000ED02
:00000001FF
