:020000040800F2
:1000000000040020050100080D0200080902000894
:100010000B0200084D010008390300080000000031
:100020000000000000000000000000002D02000899
:100030004F010008000000000F020008E502000860
:100040001F0100081F0100081F0100081F01000810
:100050001F0100081F0100081F0100081F01000800
:100060001F0100081F0100081F0100081F010008F0
:100070001F0100081F0100081F0100081F010008E0
:100080001F0100081F0100081F0100081F010008D0
:100090001F0100081F0100081F0100081F010008C0
:1000A0001F0100081F0100081F0100081F010008B0
:1000B0001F0100081F0100081F0100081F010008A0
:1000C0001F0100081F0100081F0100081F01000890
:1000D0001F0100081F0100081F0100081F01000880
:1000E0001F0100081F0100081F010008DFF810D0E1
:1000F00000F01AF80048004759030008AFF30080E9
:10010000000400200648804706480047FEE7FEE757
:10011000FEE7FEE7FEE7FEE7FEE7FEE7FEE7FEE7B7
:10012000E9020008ED000008064C074D06E0E06813
:1001300040F0010394E8070098471034AC42F6D32E
:10014000FFF7D8FFA8030008B8030008FEE77047D0
:1001500000E0401E0028FCD170472DE9F04100224C
:10016000CC7804F00F03E40601D58C7823430C7897
:100170004FF00F0714F0FF0F4FF0010C1CD0056873
:100180000CFA02F40E882640A64211D1960007FA16
:1001900006F825EA080503FA06F848EA0505CE78C8
:1001A000282E02D0482E02D002E0446100E0046113
:1001B000521C082AE4D305600A88FF2A1ED9456824
:1001C000002202F108060CFA06F40E882640A64228
:1001D00010D1960007FA06F825EA080503FA06F892
:1001E00048EA0505CE78282E00D14461CE78482E05
:1001F00000D10461521C082AE3D34560BDE8F081B8
:100200004161704701617047FEE7FEE77047704744
:10021000054A002903D091690143916170479169B2
:10022000814391617047000000100240704700F068
:1002300001B800000CB50022019200922748016825
:1002400041F4803101604FF4A063016801F4003192
:1002500000910199491C0191009911B901999942A4
:10026000F3D10168890302D50121009100E00092D9
:100270000099012930D11A490A6842F010020A6037
:100280000A6822F003020A600A6842F002020A6069
:100290004168416041684160416841F4806141606A
:1002A000416821F47C114160416841F4E8114160EA
:1002B000016841F08071016001688901FCD54168E5
:1002C00021F003014160416841F002014160416851
:1002D000C1F381010229FAD10CBD000000100240D7
:1002E000002002407047000010B50F48016841F03F
:1002F0000101016041680D4A1140416001680C4AEA
:1003000011400160016821F480210160416821F4FD
:10031000FE0141604FF41F018160FFF788FF05492E
:100320004FF00060086010BD001002400000FFF8B0
:10033000FFFFF6FE08ED00E0FEE702E008C8121F2E
:1003400008C1002AFAD170477047002001E001C1BE
:10035000121F002AFBD1704708B501211020FFF7BA
:1003600057FF4FF40054ADF8004010208DF8030003
:1003700003208DF802000A4D69462846FFF7EDFE7E
:10038000084E21462846FFF73DFF3046FFF7E0FEC6
:1003900021462846FFF734FF3046FFF7D9FEF0E745
:1003A0000010014080841E00B803000800000020F7
:0803B000000400004A030008EC
:04000005080000ED02
:00000001FF
