:020000040800F2
:10000000000400200101000849020008190200084C
:1000100045020008490100088103000800000000B3
:10002000000000000000000000000000690200085D
:100030004D010008000000004D0200086D0200089C
:100040001B0100081B0100081B0100081B01000820
:100050001B0100081B0100081B0100081B01000810
:100060001B0100081B0100081B0100081B01000800
:100070001B0100081B0100081B0100081B010008F0
:100080001B0100081B0100081B0100081B010008E0
:100090001B0100081B0100081B0100081B010008D0
:1000A0001B0100081B0100081B0100081B010008C0
:1000B0001B0100081B0100081B0100081B010008B0
:1000C0001B0100081B0100081B0100081B010008A0
:1000D0001B0100081B0100081B0100081B01000890
:1000E0001B0100081B0100081B010008DFF80CD0F1
:1000F00000F018F8004800478503000800040020BD
:100100000648804706480047FEE7FEE7FEE7FEE7B1
:10011000FEE7FEE7FEE7FEE7FEE7FEE77102000806
:10012000ED000008064C074D06E0E06840F00103D2
:1001300094E8070098471034AC42F6D3FFF7DAFF93
:10014000C4030008D4030008FEE700007047000065
:100150002DE9F047CA7802F00F0CD30644BF8B7824
:100160004CEA030C09880B0625D082465AF8144B3A
:1001700000F1100E00254FF001094FF00F08002785
:1001800006E000BF1E600137082F05F1040511D0FD
:1001900009FA07F60E42F6D008FA05F324EA03033B
:1001A0000CFA05F41C43282A5346EBD0482AEAD11E
:1001B0007346E7E70460B1F5807F38BFBDE8F0879C
:1001C000436800F1100E00F1140900254FF4807A05
:1001D0004FF00F08002705E034600137082F05F1C4
:1001E000040512D00AFA07F404EA0106A642F4D183
:1001F00008FA05F6B3430CFA05F63343282A4E46AF
:10020000EAD0482AE9D17646E6E74360BDE8F087C0
:100210004161704701617047FEE7000080B582B020
:100220001020012100F014F842F20000C1F2030096
:10023000019041F20000C4F2010001A9FFF788FF1C
:1002400002B080BDFEE7000070470000704700006C
:10025000002941F21801C4F202010A680CBF22EA27
:1002600000001043086070477047000070470000AE
:1002700082B041F20400C4F2020050F8041C0022D3
:1002800041F0010140F8041C0168CFF6FF02114063
:10029000016050F8041C4FF6FF72CFF6F662114071
:1002A00040F8041C50F8041C21F4802140F8041C80
:1002B000016821F4FE0101604FF41F01416000213B
:1002C0000191009150F8041C41F4803140F8041C65
:1002D00050F8041C01F400310091019901310191A1
:1002E000009919B90199B1F5A06FF1D150F8041C2A
:1002F000890354BF0021012100910099012936D1C1
:1003000042F20001C4F202010A6842F010020A60DF
:100310000A6822F003020A600A6842F002020A60D8
:100320000168016001680160016841F48061016059
:10033000016821F47C110160016841F4E811016059
:1003400050F8041C41F0807140F8041C50F8041C63
:100350008901FBD5016821F003010160016841F0CA
:1003600002010160016801F00C010829FAD14EF682
:100370000850CEF200004FF00061016002B07047FB
:10038000FEE7000041F20004C4F20104FFF746FF5B
:1003900020464FF40051FFF73DFF20464FF4005137
:1003A000FFF736FFF4E702E008C8121F08C1002A71
:1003B000FAD170477047002001E001C1121F002AE6
:1003C000FBD17047D40300080000002000040000A7
:0403D000B603000868
:04000005080000ED02
:00000001FF
