:020000040800F2
:100000000804002005010008C1020008B902000828
:10001000BD0200089D010008DD040008000000008A
:10002000000000000000000000000000E5020008E1
:10003000A101000800000000C30200083D04000800
:100040001F0100081F0100081F0100081F01000810
:100050001F0100081F0100081F0100081F01000800
:100060001F0100081F0100081F0100081F010008F0
:100070001F0100081F0100081F0100081F010008E0
:100080001F0100081F0100081F0100081F010008D0
:100090001F0100081F0100081F0100081F010008C0
:1000A0001F0100081F0100081F0100081F010008B0
:1000B0001F0100081F0100081F0100081F010008A0
:1000C0001F0100081F0100081F0100081F01000890
:1000D0001F0100081F0100081F0100081F01000880
:1000E0001F0100081F0100081F010008DFF810D0E1
:1000F00000F02CF8004800474D050008AFF30080E1
:10010000080400200648804706480047FEE7FEE74F
:10011000FEE7FEE7FEE7FEE7FEE7FEE7FEE7FEE7B7
:100120007D040008ED00000840EA01039B0703D0AE
:1001300009E008C9121F08C0042AFAD203E011F826
:10014000013B00F8013B521EF9D27047064C074DA7
:1001500006E0E06840F0010394E807009847103497
:10016000AC42F6D3FFF7C6FFE40600080407000818
:1001700008B50121082000F0A5F82020ADF8000006
:1001800003208DF8020010208DF803006946024814
:1001900000F007F808BD0000000C014000BFFEE7BA
:1001A00070472DE9F041024600250026002000237B
:1001B0000024002791F803C00CF00F0591F803C04C
:1001C0000CF0100CBCF1000F03D091F802C04CEA07
:1001D000050591F800C0BCF1000F31D01468002073
:1001E0002BE04FF0010C0CFA00F3B1F800C00CEA60
:1001F00003069E4220D183004FF00F0C0CFA03F748
:10020000BC4305FA03FC4CEA040491F803C0BCF1BA
:10021000280F06D14FF0010C0CFA00FCC2F814C0F4
:100220000AE091F803C0BCF1480F05D14FF0010C72
:100230000CFA00FCC2F810C0401C0828D1D314608E
:10024000B1F800C0BCF1FF0F34DD546800202EE08F
:1002500000F1080C4FF0010808FA0CF3B1F800C0E7
:100260000CEA03069E4221D183004FF00F0C0CFADA
:1002700003F7BC4305FA03FC4CEA040491F803C0FD
:10028000BCF1280F05D100F1080C08FA0CF8C2F8EF
:10029000148091F803C0BCF1480F07D100F1080C9D
:1002A0004FF0010808FA0CF8C2F81080401C08282A
:1002B000CED35460BDE8F08100BFFEE700BFFEE78B
:1002C0007047704729B1064A92690243044B9A610C
:1002D00004E0034A92698243014B9A61704700002F
:1002E00000100240704710B500F002F810BD000089
:1002F0000CB50020019000903348006840F4803035
:100300003149086000BF3048006800F400300090B8
:100310000198401C0190009818B90198B0F5A06FA1
:10032000F1D12948006800F4003010B1012000909C
:1003300001E0002000900098012843D12348006884
:1003400040F01000214908600846006820F00300D2
:1003500008600846006840F0020008601A484068DB
:10036000194948600846406848600846406840F4BB
:10037000806048600846406820F47C104860084669
:10038000406840F4E81048600846006840F080701B
:10039000086000BF0C48006800F000700028F9D029
:1003A0000948406820F00300074948600846406853
:1003B00040F00200486000BF0348406800F00C00B5
:1003C0000828F9D10CBD00000010024000200240B6
:1003D00070B50446B4F57A7F10D00B48B0FBF4F545
:1003E00000200A490860284600F08AF801200849E0
:1003F000C1F89401284600F083F803E04FF47A70C6
:1004000000F07EF870BD000020A107009481214219
:1004100000802142042808D14FF0E021096941F011
:1004200004014FF0E022116107E04FF0E02109697B
:1004300021F004014FF0E022116170477047000085
:1004400010B504466FF00400FFF7E4FFE11704EB7A
:100450005171C1F3C701074A11701046007800EBD3
:100460004001C1EBC0104FF6FF7101EAC000024924
:10047000088010BD000000200200002010B51348C5
:10048000006840F0010011490860084640681049C2
:1004900008400E494860084600680E4908400B496C
:1004A00008600846006820F480200860084640681C
:1004B00020F4FE0048604FF41F008860FFF713FF30
:1004C0004FF000600449086010BD000000100240B9
:1004D0000000FFF8FFFFF6FE08ED00E000BFFEE7BA
:1004E00002E008C8121F08C1002AFAD170477047FD
:1004F000002001E001C1121F002AFBD1704700005B
:100500000146114A12784A434FF0E0235A61002213
:100510009A611A46126942F001021A6100BF4FF057
:10052000E022106900F001021AB100F48032002AC2
:10053000F5D04FF0E022126922F001024FF0E023E3
:100540001A6100229A617047000000204820FFF7DE
:1005500077FFFFF70DFE01E000F002F8FCE7000076
:1005600070B5C6B01C2217493FA8FFF7DDFD7C22FD
:10057000154920A8FFF7D8FD7C22144901A8FFF7F0
:10058000D3FD0A26002418E0002508E020A9095D13
:100590003FAA32F81100FFF71BFF681C85B201A8C3
:1005A000005D20A9095D3FAA32F811104843B0FB55
:1005B000F6F0A842EAD8601C84B2792CE4D346B0A5
:1005C00070BD0000D0050008EC05000868060008B2
:1005D000F700060126014A015D018801B801EE011C
:1005E0000B024B029302BA021003E803050506084A
:1005F000070605060D0D05050608070605030D0D82
:1006000002020305030506030201060605060503AB
:1006100006050D0D05050608070605060D0D050561
:100620000608070605030D0D020203050305060370
:10063000020106060506050306010D08090A0A0956
:10064000080A0908060D060809090806090806052A
:100650000D0203050503050506080706060A090934
:100660000806050608000000020402020202020851
:100670000404020402020202020804040204020446
:100680000202040202080204020202020208040436
:10069000020402020202020804040204020202022C
:1006A0000208040402040204020204020208020412
:1006B0000202020202080402020204020202020210
:1006C00008040202020402020202020804020202F8
:1006D00004020205020602040202020402040202EB
:1006E0000C000000040700080000002004000000C7
:1006F000E0040008080700080400002004040000CB
:08070000F004000800000000F5
:04000005080000ED02
:00000001FF
