:020000040800F2
:100000000004002001010008210200081902000874
:100010001D02000849010008590300080000000003
:100020000000000000000000000000004102000885
:100030004D010008000000002502000845020008EC
:100040001B0100081B0100081B0100081B01000820
:100050001B0100081B0100081B0100081B01000810
:100060001B0100081B0100081B0100081B01000800
:100070001B0100081B0100081B0100081B010008F0
:100080001B0100081B0100081B0100081B010008E0
:100090001B0100081B0100081B0100081B010008D0
:1000A0001B0100081B0100081B0100081B010008C0
:1000B0001B0100081B0100081B0100081B010008B0
:1000C0001B0100081B0100081B0100081B010008A0
:1000D0001B0100081B0100081B0100081B01000890
:1000E0001B0100081B0100081B010008DFF80CD0F1
:1000F00000F018F8004800475D03000800040020E5
:100100000648804706480047FEE7FEE7FEE7FEE7B1
:10011000FEE7FEE7FEE7FEE7FEE7FEE7490200082E
:10012000ED000008064C074D06E0E06840F00103D2
:1001300094E8070098471034AC42F6D3FFF7DAFF93
:10014000DC030008EC030008FEE700007047000035
:100150002DE9F047CA7802F00F0CD30644BF8B7824
:100160004CEA030C09880B0625D082465AF8144B3A
:1001700000F1100E00254FF001094FF00F08002785
:1001800006E000BF1E600137082F05F1040511D0FD
:1001900009FA07F60E42F6D008FA05F324EA03033B
:1001A0000CFA05F41C43282A5346EBD0482AEAD11E
:1001B0007346E7E70460B1F5807F38BFBDE8F0879C
:1001C000436800F1100E00F1140900254FF4807A05
:1001D0004FF00F08002705E034600137082F05F1C4
:1001E000040512D00AFA07F404EA0106A642F4D183
:1001F00008FA05F6B3430CFA05F63343282A4E46AF
:10020000EAD0482AE9D17646E6E74360BDE8F087C0
:100210004161704701617047FEE70000FEE70000A2
:100220007047000070470000002941F21801C4F235
:1002300002010A680CBF22EA000010430860704700
:10024000704700007047000082B041F20400C4F221
:10025000020050F8041C002241F0010140F8041C87
:100260000168CFF6FF021140016050F8041C4FF600
:10027000FF72CFF6F662114040F8041C50F8041CDF
:1002800021F4802140F8041C016821F4FE01016082
:100290004FF41F01416000210191009150F8041CAE
:1002A00041F4803140F8041C50F8041C01F4003182
:1002B0000091019901310191009919B90199B1F5A4
:1002C000A06FF1D150F8041C890354BF0021012113
:1002D00000910099012936D142F20001C4F20201D5
:1002E0000A6842F010020A600A6822F003020A60FB
:1002F0000A6842F002020A60016801600168016058
:10030000016841F480610160016821F47C110160A1
:10031000016841F4E811016050F8041C41F080715B
:1003200040F8041C50F8041C8901FBD5016821F039
:1003300003010160016841F002010160016801F000
:100340000C010829FAD14EF60850CEF200004FF009
:100350000061016002B07047FEE7000082B040F625
:10036000000404200121C4F20104FFF75DFF40F204
:100370000010C1F20300019001A92046FFF7E8FE3A
:10038000002520464FF48071FFF744FF20464FF4CC
:100390008071FFF73DFF0135B5F57A6FF1D14FF46C
:1003A0007A6500BF20464FF48071FFF731FF204689
:1003B0004FF48071FFF72EFF013DF3D1E0E702E03B
:1003C00008C8121F08C1002AFAD1704770470020E0
:1003D00001E001C1121F002AFBD17047EC030008A5
:0C03E0000000002000040000CE03000814
:04000005080000ED02
:00000001FF
