:020000040800F2
:10000000080400200101000819020008110200087C
:100010001502000849010008A904000800000000BA
:100020000000000000000000000000005102000875
:100030004D010008000000001D02000855020008E4
:100040001B0100081B0100081B0100081B01000820
:100050001B0100081B0100081B0100081B01000810
:100060001B0100081B0100081B0100081B01000800
:100070001B0100081B0100081B0100081B010008F0
:100080001B0100081B0100081B0100081B010008E0
:100090001B0100081B0100081B0100081B010008D0
:1000A0001B0100081B0100081B0100081B010008C0
:1000B0001B0100081B0100081B0100081B010008B0
:1000C0001B0100081B0100081B0100081B010008A0
:1000D0001B0100081B0100081B0100081B01000890
:1000E0001B0100081B0100081B010008DFF80CD0F1
:1000F00000F018F800480047AD040008080400208C
:100100000648804706480047FEE7FEE7FEE7FEE7B1
:10011000FEE7FEE7FEE7FEE7FEE7FEE7590200081E
:10012000ED000008064C074D06E0E06840F00103D2
:1001300094E8070098471034AC42F6D3FFF7DAFF93
:100140005805000868050008FEE700007047000039
:100150002DE9F047CA7802F00F0CD30644BF8B7824
:100160004CEA030C09880B0625D082465AF8144B3A
:1001700000F1100E00254FF001094FF00F08002785
:1001800006E000BF1E600137082F05F1040511D0FD
:1001900009FA07F60E42F6D008FA05F324EA03033B
:1001A0000CFA05F41C43282A5346EBD0482AEAD11E
:1001B0007346E7E70460B1F5807F38BFBDE8F0879C
:1001C000436800F1100E00F1140900254FF4807A05
:1001D0004FF00F08002705E034600137082F05F1C4
:1001E000040512D00AFA07F404EA0106A642F4D183
:1001F00008FA05F6B3430CFA05F63343282A4E46AF
:10020000EAD0482AE9D17646E6E74360BDE8F087C0
:10021000FEE70000FEE700007047000070470000A6
:10022000002941F21C01C4F202010A680CBF22EA53
:100230000000104308607047002941F21801C4F221
:1002400002010A680CBF22EA0000104308607047F0
:10025000704700007047000082B041F20400C4F211
:10026000020050F8041C002241F0010140F8041C77
:100270000168CFF6FF021140016050F8041C4FF6F0
:10028000FF72CFF6F662114040F8041C50F8041CCF
:1002900021F4802140F8041C016821F4FE01016072
:1002A0004FF41F01416000210191009150F8041C9E
:1002B00041F4803140F8041C50F8041C01F4003172
:1002C0000091019901310191009919B90199B1F594
:1002D000A06FF1D150F8041C890354BF0021012103
:1002E00000910099012936D142F20001C4F20201C5
:1002F0000A6842F010020A600A6822F003020A60EB
:100300000A6842F002020A60016801600168016047
:10031000016841F480610160016821F47C11016091
:10032000016841F4E811016050F8041C41F080714B
:1003300040F8041C50F8041C8901FBD5016821F029
:1003400003010160016841F002010160016801F0F0
:100350000C010829FAD14EF60850CEF200004FF0F9
:100360000061016002B070470288002918BF0121B6
:1003700022F001021144018070470000B0B5028CE8
:1003800022F001020284038C8288B0F818C00C8924
:1003900023F002032343A0F180444D88A4F5963452
:1003A000B1F800E04FEAB424072C43EA050313D860
:1003B000012505FA04F414F0E50F0DD04C8923F063
:1003C0000C0324F004048D8823438C892B4322F4EE
:1003D0004072CD8922432A432CF0730545EA0E056D
:1003E00082800583C98881860384B0BD028B22F098
:1003F00008021143018370478186704740F6FF333E
:10040000B0F800C0C4F2000398420FDCB0F1804F96
:100410001ED040F20043C4F20003984218D040F6C8
:100420000003C4F20003984212D016E040F60043E5
:10043000C4F2000398420BD043F20043C4F201031C
:10044000984205D042F60043C4F20103984204D119
:100450004B882CF0700243EA020C41F2004240F457
:100460008063C4F20002934204D0CA882CF4407323
:1004700042EA030CA0F800C08A888285A0F180427D
:10048000A2F596320B884FEAB222072A038507D8D5
:10049000012303FA02F212F0E50F1CBF097A01866C
:1004A0000121818270470000FEE7000088B005202E
:1004B0000121FFF7C1FE01200121FFF7B1FE01205C
:1004C000C1F60300079040F60000C4F2010007A93E
:1004D000FFF73EFE4720049040F2E730059004A964
:1004E0004FF08040FFF78AFF6020C0F201000090CB
:1004F0000020CDF8060069464FF08040FFF73EFF30
:100500004FF080400821FFF771FF4FF0804001213C
:10051000FFF72AFF40F2000448F28045C2F20004CF
:10052000C0F21E0521884FF08040FFF765FF284686
:10053000013800BFFCD1F5E702E008C8121F08C16E
:10054000002AFAD170477047002001E001C1121F54
:10055000002AFBD170470000680500080000002059
:08056000080400004805000832
:04000005080000ED02
:00000001FF
