:020000040800F2
:100000005005002005010008AD0C0008DD090008BE
:10001000A90C0008D7090008C71300080000000059
:10002000000000000000000000000000A10F000818
:10003000DB09000800000000210D00088D100008F9
:100040001F0100081F0100081F0100081F01000810
:100050001F0100081F0100081F0100081F01000800
:100060001F0100081F0100081F0100081F010008F0
:100070001F0100081F0100081F0100081F010008E0
:100080001F0100081F0100081F0100081F010008D0
:100090001F0100081F0100081F0100081F010008C0
:1000A0001F0100081F0100081F0100081F010008B0
:1000B0004D1100081F0100081F0100081F01000862
:1000C0001F0100081F0100081F0100081F01000890
:1000D0001F010008E11200081F0100081F010008AD
:1000E0001F0100081F0100081F010008DFF810D0E1
:1000F00000F0FEFB0048004783270008AFF30080B4
:10010000500500200648804706480047FEE7FEE706
:10011000FEE7FEE7FEE7FEE7FEE7FEE7FEE7FEE7B7
:1001200091100008ED000008F0B480EA0102D40F3D
:100130004200B2EB410F02D20246084611464A0085
:1001400042D0C30DDDB2C1F3C752AD1A202D35DA4E
:10015000C1F3160141F4000204B15242C5F1200678
:1001600002FA06F12A411044B3EBD05F23D0C4B1A8
:10017000012DA0EBC35009DCF0BC4FF0004202EAB5
:10018000C352DBB200F5000000F058BA400000F1A5
:10019000807000EBC350A0F1807040EAD17049003C
:1001A00009E0490841EAC071A0EBC35000F5000026
:1001B000400800EBC350F0BC00F037BA61420122A6
:1001C00002EB4101001BF6E7F0BC704781F00041F3
:1001D000AAE780F00040A7E780EA010210B502F02C
:1001E0000043400022D04A001FD0010E01EB1261F3
:1001F000C0F35600C2F3560240F4000042F400027D
:10020000A0FB022000047F39140400D0401C50EAF7
:10021000124001D44000491EC2B20C0604EBD010BB
:10022000401C4008802A02D003E0002010BD20F0CE
:100230000100002900DA0020184310BD30B480EA24
:10024000010202F0004530F0004221F0004013D0DE
:1002500090B1C30DD40DC2F31601C0F31600E41A19
:1002600041F4000140F400027D34914201D3641C4A
:1002700000E04900002C02DA30BC002070474FF447
:1002800000000023914201D3891A034340084FEA3A
:100290004101F7D151B1914202D14FF0004105E047
:1002A00002D24FF0010101E06FF0010103EBC450F5
:1002B000284430BC00F0B9B92DE9FE4F804681EAF0
:1002C0000300C00F0C46009021F0004123F00045D0
:1002D000B8EB0200A94105D24046214690461C4693
:1002E0000B46024623F00040104347D0270DC7F3CA
:1002F0000A00C3F30A510290401A019040286BDAB9
:10030000C3F3130040F4801B0098924620B10023F1
:10031000D2EB030A63EB0B0B01985946C0F1400284
:10032000504600F061F906460D4650465946019A7E
:1003300000F069F910EB08006141002487EA1152CE
:1003400084EAE7731A4340D0009A62B3019A012A03
:100350004FEA075215DC001B61EB02014FF000422F
:1003600002EA0752CDE90042001C41F580113246F5
:100370002B4600F0A0F903B0BDE8F08F40462146BF
:10038000F9E7001B61EB0201001C41F58013001826
:100390005B412018A2F5001747EB030140EAD57036
:1003A000B6196D4111E06D084FEA360645EAC07591
:1003B0004FEA0752001B61EB0201001C41F580115E
:1003C00049084FEA30000019514132462B4603B02C
:1003D000BDE8F04F00F060B9009801224000002312
:1003E000D0EB020263EBE073009821464FEAE07421
:1003F000B8EB000061EB0401E9E783F000435BE741
:1004000081F0004158E72DE9FE4F81EA030404F032
:10041000004421F0004100944FF0000B23F0004312
:1004200050EA01045ED052EA03045BD0C3F30A54DD
:10043000C1F30A552C44A4F2F3340194A0FB0254F6
:10044000C1F3130141F48011C3F3130343F4801388
:1004500001FB024400FB034E840A970A44EA8154DC
:1004600047EA8357A4FB076802958D0A05FB0785B9
:100470004FEA932C04FB0C542705029D4FEA0658C3
:1004800047EA1637B5EB08056EEB070C870E920EA0
:1004900047EA811742EA8312A7FB0201B6EB0B0180
:1004A00064EB00042B0D43EA0C335E1844EB1C5044
:1004B000DA465146E7FB0201C5F313044FEA0B335A
:1004C00043EA14534FEA0432019C43EA0603A4F1C1
:1004D0000C040294009CCDE900B400F0ECF803B0E9
:1004E000BDE8F08F00200146F9E7C10F80EAE07017
:1004F0000844CA079623002100F0A0B800F000428B
:1005000030F000400AD0C10D01F56071C0F3160053
:1005100042EA0151C20840071143704700200146DA
:10052000704701F0004330B421F0004150EA01026D
:1005300006D00A0DA2F56072C1F31301002A02DC95
:1005400030BC00207047440F44EAC104C100E018E9
:1005500030BC00EBC25000F068B830B50B46014625
:1005600000202022012409E021FA02F59D4205D352
:1005700003FA02F5491B04FA02F52844151EA2F1FC
:100580000102F1DC30BD2DE9F05F05460020924606
:100590009B4688460646814640241BE02846414645
:1005A0004746224600F0B6F953465A46C01A9141D2
:1005B00010D311461846224600F016F82D1A67EBA4
:1005C00001084F4622460120002100F00DF817EBEC
:1005D00000094E41201EA4F10104DFDC48463146EB
:1005E0002A464346BDE8F09F202A04DB203A00FA61
:1005F00002F1002070479140C2F1200320FA03F37A
:10060000194390407047202A06DBCB17203A41FA65
:1006100002F043EAE07306E041FA02F3D040C2F18F
:10062000200291400843194670470029A8BF70472F
:10063000401C490008BF20F00100704710B4B0FA18
:1006400080FC00FA0CF050EA010404BF10BC7047B3
:1006500049B1CCF1200421FA04F411FA0CF118BFCD
:10066000012121430843A3EB0C01CB1D4FEA00619C
:100670004FEA102042BF002010BC704700EBC3506F
:1006800010440029A4BF10BC7047401C490008BF9B
:1006900020F0010010BC704710B5141E73F1000467
:1006A00008DA401C41F1000192185B411A4301D164
:1006B00020F0010010BD2DE9F04D92469B4611B18E
:1006C000B1FA81F202E0B0FA80F220329046FFF7F0
:1006D0008BFF04460F4640EA0A0041EA0B015346ED
:1006E0005A46084313D0114653EA010019D0C8F105
:1006F0004002504600F00EF905460E465046594657
:100700004246FFF771FF084305D0012004E0204670
:100710003946BDE8F08D0020054346EAE0762C43DB
:1007200037430A986305E40AA0EB08000022FD0A9B
:1007300044EA47540A3002D500200146E9E70105A2
:1007400010196941DDE9084500196941BDE8F04D1E
:10075000A2E72DE9F04D81EA030404F0004B21F0FB
:10076000004514464FF0000A23F0004150EA05020C
:1007700020D054EA01021DD0C5F30A570246C5F342
:100780001303C1F31300C1F30A5640F4801543F478
:100790008013A7EB0608101BD64608F2FD3873EB52
:1007A000050002D308F1010801E092185B41B8F19D
:1007B000000F03DA00200146BDE8F08D00204FF461
:1007C0008011064684460EE0171B73EB050705D320
:1007D000121B63EB050306434CEA010C49084FEA80
:1007E000300092185B4150EA0107EDD152EA030054
:1007F00012D082EA040083EA0501084305D0101BE9
:10080000AB4106D20122002306E000224FF0004354
:1008100002E06FF0010253101AEB06004CEB085196
:1008200010EB0A0041EB0B01BDE8F04DFFF734BFC0
:1008300070B521F0004303430CD0C1F30A550024E6
:10084000D5EB040564EB0403D617AD1AB34102DB04
:100850000020014670BD201841EB025170BDC1F36C
:100860000A52C1F3130140F2FF3341F480119A425E
:1008700002DA00200146704740F233439A42A2F266
:10088000334202DC524200F045B8FFF7ADBE000033
:1008900030B5041E71F1000404DB4FF00044404207
:1008A00064EB0101141E73F1000405DB1C464FF0DC
:1008B0000043524263EB04038B4208BF824230BDC7
:1008C00030B5041E71F1000404DB4FF000444042D7
:1008D00064EB0101141E73F1000405DB1C464FF0AC
:1008E0000043524263EB0403994208BF904230BD7B
:1008F000064C074D06E0E06840F0010394E807006D
:1009000098471034AC42F6D3FFF7F4FBB02B000845
:10091000D02B0008202A04DB203A21FA02F0002123
:10092000704721FA02F3D040C2F1200291400843FF
:10093000194670472DE9F04D00231A461B1A8A41CB
:1009400003DB00200146BDE8F08DC1F30A52C1F37C
:10095000130141F480154FF0000BD10702D10018AC
:100960006D41521E0027044640F2FF11384601EB4C
:10097000620A3E468046024600204FF48011FFF78F
:10098000C9FFC2197141BB1846EB0100B4EB030C5F
:1009900075EB000C04D3E41A65EB000517460E4610
:1009A000241908F101006D4180463428E3DDF9196E
:1009B00046EB0600091BA84103D24FF0FF32134655
:1009C00001E0002213461BEB070046EB0A51BDE88D
:1009D000F04DFFF761BE00BFFEE7704700BFFEE7C6
:1009E00010B500200E4908600E48006820F07040E5
:1009F0000C4908600846006840F04050086000203C
:100A00000949C1F89C0100F011F80120044908606F
:100A100000F00CF800200449C1F8980110BD000056
:100A200098812142000C01400080214210B5022033
:100A300001F022FD10BD000010B500200E49086035
:100A40000E48006820F070400C49086008460068B5
:100A500040F04050086001200949C1F89C01FFF7AF
:100A6000E5FF012004490860FFF7E0FF002004498A
:100A7000C1F8980110BD000098812142000C01408E
:100A80000080214270B5054600241648006820F019
:100A90007040144908600846006840F00040086053
:100AA000002614E0002010490860FFF7BFFF012076
:100AB0000E49C1F898016006040E0B487C380068A6
:100AC00008B1601CC4B2FFF7B1FF701CC6B2082E9B
:100AD000E8DB15B9FFF7B0FF01E0FFF781FF204623
:100AE00070BD0000000C014098812142008021422D
:100AF00070B504461748006820F07040154908603A
:100B00000846006840F04050086000201249086024
:100B100000251BE0E00920B101200F49091D0860F4
:100B200003E000200C49091D08606006040EFFF771
:100B30007DFF012008490860FFF778FF0020074982
:100B4000C1F89801FFF772FF681CC5B2082DE1DB00
:100B500070BD0000000C01409881214200802142BC
:100B600010B51648006820F0704014490860084627
:100B7000006840F0405008600120114908601148A9
:100B8000D0F81C0108B9002010BD01200C49091F34
:100B90000860FFF74BFF00200A49C1F89C01084894
:100BA0008038006808B10020EEE7FFF73FFF002023
:100BB0000349091F08600120E6E70000000C01401E
:100BC0009C8121420080214210B50E48006820F02F
:100BD00070400C4908600846006840F040500860CA
:100BE0000020094908600949C1F89C01FFF71EFF70
:100BF0000120054908600549C1F89C01FFF716FF6F
:100C000010BD0000000C014098812142008021426B
:100C100010B500241548006820F0704013490860A2
:100C20000846006840F00040086001201049086054
:100C3000FFF7FCFE01200F49C1F89801FFF7F6FE0F
:100C400009E0601CC4B2642C03DDFFF7BDFF002087
:100C500010BDFFF7EBFE0648803800680028F0D191
:100C60000349091F08600120F2E70000000C014061
:100C70009C8121420080214210B500240DE000201B
:100C800007490860C82001F0D1FB01200549C1F8DF
:100C9000B401C82001F0CAFB641C042CEFDB10BDBA
:100CA000B40122420000224200BFFEE7704700006C
:100CB00070B5002100230F22C47804B3154C2468BA
:100CC00004F4E064C4F5E064210AC1F10403CA40FD
:100CD000447804FA03F184781440214309010E4C4E
:100CE0000678A155047804F01F050124AC4005786E
:100CF0006D11AD0005F1E025C5F8004109E004786B
:100D000004F01F050124AC40044D0678761145F827
:100D1000264070BD0CED00E000E400E080E100E062
:100D20007047000029B1064AD2690243044BDA61D8
:100D300004E0034AD2698243014BDA617047000044
:100D4000001002402DE9F04F91B0044689469246CA
:100D50000EA88B490FAB0AAACDE9001089498A4831
:100D600001F0B0FB8648008800F4807000287DD038
:100D70000A98FFF7BAFB05464FF09D41FFF75EFA70
:100D8000824908600B98FFF7B0FB05464FF09D4184
:100D9000FFF754FA7E4908600C98FFF7A6FB05465A
:100DA0004FF09D41FFF74AFA7A4908600D98FFF726
:100DB0009CFB05464FF09D41FFF740FA76490860DD
:100DC000724801684FF08040FFF706FA05907148BD
:100DD00001680598FFF700FA83466D4801684FF0F7
:100DE0004040FFF7F9F905906B4801680598FFF757
:100DF000F3F959460690FFF797F90790FFF77EFB46
:100E0000CDE9080100F0CAFF07464FF06632634B98
:100E1000FFF7F9FA0546FFF784FB20605D4801689B
:100E20004FF08040FFF7D8F902905A4801680298C5
:100E3000FFF7D2F98346564801684FF04040FFF76C
:100E4000CBF90290524801680298FFF7C5F959465C
:100E50000390FFF7BBF980464FF07E51FFF764F92E
:100E60000746FFF74BFBCDE9060100E084E0474869
:100E700001684FF08040FFF7AFF9039044480168E4
:100E80000398FFF7A9F98046424801684FF0804077
:100E9000FFF7A2F90390404801680398FFF79CF917
:100EA00083464146FFF740F90746FFF727FBCDE9A8
:100EB0000401DDE9062301F0B9F94FF06632374B42
:100EC000CDE90801FFF79FFA0546FFF72AFBC9F8AD
:100ED0000000314801680068FFF77EF904902D4852
:100EE00001680068FFF778F90290294801680068F6
:100EF000FFF772F90190254801680068FFF76CF967
:100F000000900199FFF710F983460299FFF75EF907
:100F100003900499FFF75AF90590FFF7EFFA054699
:100F20000E461D48016819480068FFF755F90490FE
:100F30001848016816480068FFF74EF903900499B5
:100F4000FFF7F2F84FF080410590FFF745F983462F
:100F5000FFF7D4FA2A463346CDE9060101F066F9D7
:100F60004FF066320D4BCDE90801FFF74CFA07460A
:100F7000FFF7D7FACAF8000011B0BDE8F08F000003
:100F800018000020120000200C0000201C0000208F
:100F900020000020240000202800002066A64C40ED
:100FA000704710B500F002F810BD00000CB500202D
:100FB000019000903348006840F480303149086067
:100FC00000BF3048006800F4003000900198401CD9
:100FD0000190009818B90198B0F5A06FF1D1294897
:100FE000006800F4003010B10120009001E0002002
:100FF00000900098012843D12348006840F0100079
:10100000214908600846006820F00300086008468F
:10101000006840F0020008601A48406819494860BA
:101020000846406848600846406840F48060486070
:101030000846406820F47C1048600846406840F448
:10104000E81048600846006840F08070086000BF03
:101050000C48006800F000700028F9D0094840688A
:1010600020F00300074948600846406840F002004D
:10107000486000BF0348406800F00C000828F9D120
:101080000CBD00000010024000200240704700002C
:1010900010B51348006840F0010011490860084687
:1010A0004068104908400E494860084600680E49EB
:1010B00008400B4908600846006820F4802008605A
:1010C0000846406820F4FE0048604FF41F00886026
:1010D000FFF767FF4FF000600449086010BD000093
:1010E000001002400000FFF8FFFFF6FE08ED00E0F0
:1010F0007FB505460C4601210846FFF713FEADF803
:101100000850ADF804400020ADF80A00ADF8060024
:1011100001A94FF0804000F091F801224121880799
:1011200000F082F80121880700F061F81C208DF89A
:10113000000000208DF8010003208DF8020001203E
:101140008DF803006846FFF7B3FD7FBD2DE9FF472B
:101150000121880700F057F801281ED1124A1349CF
:101160001348FFF7EFFD10480068FFF7C7F9044682
:101170000D460E480068FFF7C1F906460F460C48B9
:101180000068FFF7BBF9804642460B4609A0CDE94F
:101190000067CDE9024500F019F90121880700F048
:1011A00023F8BDE8FF8700000800002004000020AD
:1011B000000000200A0D20B8A9D1F6BDC73D252E9C
:1011C0003266202020202020BAE1B9F6BDC73D2597
:1011D0002E3266202020202020C6ABBABDBDC73DE0
:1011E000252E3266200A0D00CA430282704721B1C3
:1011F000028842F00102028004E002884FF6FE738A
:101200001A400280704730B50246002000230024B7
:10121000158A05EA0103958905EA010413B10CB1A9
:10122000012000E0002030BD1AB183890B43838187
:1012300002E083898B43838170470000002202888B
:101240001D4B98420ED01D4B98420BD0B0F1804FF1
:1012500008D01B4B984205D01A4B984202D01A4B2B
:10126000984204D14FF68F731A404B881A43174B9C
:10127000984207D0164B984204D04FF6FF431A40CD
:10128000CB881A4302808B8883850B8803850A4BA1
:1012900098420BD0094B984208D00E4B984205D08B
:1012A0000D4B984202D00D4B984201D10B7A038628
:1012B0000123838270470000002C0140003401406C
:1012C0000004004000080040000C004000100040F6
:1012D000001400400040014000440140004801402B
:1012E00010B540F225511D4800F03EF810B31B48E0
:1012F00000F064F8C4B21A48008800F40040C8B98D
:101300001748008800F4804060B10A2C03D0002008
:101310001349088020E01248008840F4004010493A
:10132000088019E00D2C06D10D48008840F480405B
:101330000B49088010E00A480088C0F30D000949F5
:101340000C5407480088401C05490880084600885E
:10135000C72801DD0020088010BD000000380140D2
:10136000700000208800002070B502460024002391
:101370000025002040F66A16B14200D100BFC1F33B
:10138000421501F01F03012606FA03F3012D02D1D5
:101390009689334006E0022D02D1168A334001E0DF
:1013A000968A33400C12012606FA04F4168834405B
:1013B00013B10CB1012000E0002070BD0146888807
:1013C000C0F30800704700BFFEE700000FB4054BF4
:1013D00010B503A9044A029800F05CF910BC5DF84E
:1013E00014FB0000912600086C000020490050EA20
:1013F000C12018BF04204A0D18BF40F0010040F280
:10140000FF72B2EB515F08BF40F00200012808BF35
:10141000052070472DE9F0414F1E00EBC70104463F
:10142000D1E9000115461E4637F006020DD02A46C6
:101430003346FEF7E8FF7F1E04EBC703D3E9002322
:10144000FEF73AFF37F00602F1D1022F25D0042F24
:1014500013D0062F18BFBDE8F0812A463346FEF7A9
:10146000D2FFD4E90A23FEF727FF2A463346FEF7C8
:10147000CAFFD4E90823FEF71FFF2A463346FEF7CA
:10148000C2FFD4E90623FEF717FF2A463346FEF7CC
:10149000BAFFD4E90423FEF70FFF2A463346FEF7CE
:1014A000B2FFD4E90223FEF707FF2A463346FEF7D0
:1014B000AAFFD4E90023BDE8F041FEF7FDBE0122FA
:1014C000FFF7B6B9FEF7F8BE0022134610461146E4
:1014D000FFF73FB9024A00201107FFF7A9B9000042
:1014E00001FDFFFF02E008C8121F08C1002AFAD15F
:1014F00070477047002001E001C1121F002AFBD194
:101500007047000001490860704700007400002027
:101510002DE9FF5F82B00021DDE90430020DDDF826
:1015200040B0034318D044F61050A2F2FF324243B9
:101530001514119801281FD0A5EB0B00401C5FEA81
:10154000000A4FF000064E4FDFF83891B046504683
:1015500015D5CAF1000413E0119801244AA301280B
:1015600001D16FEA0B010298119AC0E90031C0E97C
:10157000024206B0BDE8F09FCBF10000DFE7044671
:101580000021404A491842EB0450CDE9001012E016
:10159000E00707D032463B4640464946FEF733FF58
:1015A0008046894632463B4610461946FEF72BFFD9
:1015B00006460F466410002CEAD1DDE90401DDE99E
:1015C0000023BAF1000F06DAFEF71DFF42464B4634
:1015D000FEF719FF05E0FFF7BCF842464B46FFF760
:1015E000B8F804460E460022284BFFF769F903D8E5
:1015F0004FF0FF30014607E00022254B20463146E0
:10160000FEF75AFEFFF72BF9102409E0002C0ADB45
:101610000A220023FEF7B7FF039B30321A55641EDF
:1016200050EA0102F2D1641C039AC4F1110314447C
:10163000119A012A03D0012208430DD10AE0084380
:1016400004D000204FF0110B119072E7A3EB0B05B3
:101650006D1E0DE05B4504DD4FF0000205F1010554
:1016600004E003DA4FF00002A5F10105002AECD0F6
:1016700002981199C0E90231C0E9004579E70000FC
:10168000000014400000F03F300000000000F04374
:101690000000E03F2DE9FF4F95B09A468846064688
:1016A0000025EEE1252877D100242746F94A0121BB
:1016B000039400E0044316F8013F203B01FA03F0D5
:1016C0001042F7D130782A2811D06FF02F033078EC
:1016D000A0F13002092A16D8039A44F0020402EB62
:1016E000820203EB42021044761C0390EFE758F8A5
:1016F000042B0392002A03DA504244F4005403906E
:1017000044F00204761C30782E2816D116F8010F0A
:1017100044F004042A280DD06FF02F023078A0F195
:101720003003092B09D807EB870302EB4303C718E3
:10173000761CF3E758F8047B761C30786C280FD0C1
:1017400006DC4C2817D068280DD06A2814D104E094
:10175000742810D07A280FD10DE044F400140AE068
:1017600044F4801401E044F440147278824202D1BF
:1017700004F58014761C761C307866280BD013DCB8
:10178000582877D009DC002875D04528F6D046289F
:10179000F4D047281AD193E118E0632835D06428A3
:1017A00079D0652812D18BE1702873D008DC6728C6
:1017B000F1D069286FD06E280DD06F2806D1ACE02B
:1017C00073282CD0752874D0782853D05246179996
:1017D00090476D1C54E1C4F30250022809D003283D
:1017E0000DD0D8F8001004280DD00D6008F10408C1
:1017F00046E1D8F80010EA17C1E90052F6E7D8F838
:1018000000100D80F2E70D70F0E718F8041B8DF85A
:10181000001000208DF80100EB46012003E058F88D
:1018200004BB4FF0FF3061074FF0000102D40DE020
:1018300009F101018946B9420FDA8145F8DB1BF84D
:1018400009100029F4D108E009F10101894681421B
:10185000FADB1BF809100029F6D103985346A0EBD8
:10186000090721463846179A00F080FA284400EB11
:10187000090507E044E008E10DE01BF8010B5246C2
:1018800017999047B9F10109F7D2534621463846D6
:10189000179AF2E039E00A21C4F302524FF0000B2C
:1018A0000091022A06D058F8040BC117032A09D068
:1018B0000AE023E008F1070020F00702F2E8020145
:1018C000904605E000B2C117042A01D140B2C11709
:1018D000002906DA0A460021404261EB02012D226E
:1018E00002E0220504D52B228DF80420012203E01A
:1018F000E20701D02022F7E7914657E00A2100E0F5
:1019000010214FF0000B00910BE010214FF0000B65
:1019100044F004040827009103E008204FF0000B76
:101920000090C4F30252022A05D058F8040B00219B
:10193000032A08D008E008F1070020F00702F2E8C7
:101940000201904603E080B2042A00D1C0B24FF0F9
:10195000000922072AD53278702A07D0DDF800C0A6
:101960008CF0100C5CEA0B0C05D00EE040228DF8D8
:101970000420012208E050EA010306D030238DF84C
:1019800004308DF8052002229146009B83F0080365
:1019900053EA0B030AD150EA010201D1620705D5CF
:1019A00030228DF804204FF001097F1E3278582A2A
:1019B00004D039A20C920CAA02920BE03BA2F9E7E8
:1019C0005B46009AFEF7DFFD0C9B9B5C029A521E61
:1019D0000292137050EA0102F2D1029804A9081A87
:1019E00000F1200B600702D524F4803400E00127C9
:1019F0005F4502DDA7EB0B0000E0002000EB0B01D0
:101A0000009003984944401A0390E00306D45346DB
:101A10002146179A039800F0A9F90544002706E02B
:101A200001A85246C05D179990476D1C7F1C4F4519
:101A3000F6DBE0030CD553462146179A039800F0D5
:101A400095F9054404E030205246179990476D1CE3
:101A50000099481E00900029F5DC08E002980299E0
:101A600052460078491C0291179990476D1CBBF1B2
:101A70000001ABF1010BF1DC5BE100F065F905441D
:101A8000761C307800287FF40DAE19B02846BDE8EA
:101A9000F08F0000092801003031323334353637F9
:101AA00038396162636465660000000030313233AA
:101AB000343536373839414243444546000000004A
:101AC000600700D4062708F1070020F00700F0E8BF
:101AD0000223804603F0004C5FEA0C0001D097A07F
:101AE00009E0200501D596A005E0E00701D095A00A
:101AF00001E0AFF24C001390307823F000436528EA
:101B00000CD006DC452809D046281DD047287FD1B7
:101B10003BE0662818D067287AD136E00021112FE3
:101B200001DB112000E0781CCDE9000104A90CA81C
:101B3000FFF7EEFCDDE90D010C9A4FF0000B07F109
:101B40000109109200914EE04FF000400097CDE95E
:101B5000011004A90CA8FFF7DBFCDDE90D020C9BCA
:101B60000F994FF0000B91461093009211B9791C18
:101B700000EB0109B7EB090003D4C0F1FF3B07F10B
:101B80000109A9EB0700019042E0012F00DA0127CB
:101B90000021112F01DD112000E03846CDE90001C0
:101BA00004A90CA8FFF7B4FCDDE90D010C9A009123
:101BB0004FF0000BB946109221070FD4009A4A4506
:101BC00003DA914601E0A9F10109B9F1010F05DD40
:101BD000109AA9F10101515C3029F4D0B84202DA1F
:101BE00010F1040F03DA0121CDE9011010E0002803
:101BF00003DC8344A9EB000102E0411C494500DD00
:101C00008946A0EB0B00401C01904FF00040029071
:101C1000200705D40198484502DB4FF0FF300190C2
:101C200000208DF84B0002980DF14B07B0F1004FEA
:101C300025D002200C902B200D90029800280CDA61
:101C4000404202902D200D9007E00A210298FEF7F5
:101C500084FC3031029007F8011D0C99481E0C904D
:101C60000029F2DC02980028EFD1791E0D98087047
:101C7000307800F0200040F0450007F8020D11A870
:101C8000C01BC01D02901398007800B1012000EB2A
:101C90000901019801EBE071029801440398401A90
:101CA000401E0390E00306D453462146179A03983A
:101CB00000F05CF805441398007818B15246179963
:101CC00090476D1CE00323D553462146179A03988D
:101CD00000F04CF805441BE0BBF1000F07DB009857
:101CE000584504DD1098179910F80B0001E017997A
:101CF00030205246904701980BF1010B401E05F130
:101D00000105019004D12E205246179990476D1C71
:101D1000B9F10001A9F10109DEDC05E017F8010BBA
:101D20005246179990476D1C0299481E029000294F
:101D3000F4DC53462146179A03989EE62D000000D6
:101D40002B000000200000002DE9F0410446002592
:101D50001E461746880404D405E039462020B047C3
:101D60006D1C641EF9D52846BDE8F0812DE9F041CF
:101D7000044600251E469046C80301D5302700E0E2
:101D80002027880404D505E041463846B0476D1C3D
:101D9000641EF9D52846BDE8F08100002DE9F04D1C
:101DA0008D4F21F0004A86B005460C46BA452ADB25
:101DB000AAEB070028430AD08848824501DC1AD1E3
:101DC000CDB106B02846BDE8F04DFFF778BB844A98
:101DD000844B2846FEF717FB07460E46824A834B84
:101DE00028462146FEF70FFB06B03A463346BDE8CB
:101DF000F04DFEF761BA0120FFF784FB06B0BDE8A5
:101E0000F04DFFF761BB7A48824542DABAF1795F5B
:101E10000BDA2846FFF7EAFA042808BFFFF75AFB57
:101E2000284606B02146BDE8F08D2A460B461046EE
:101E3000FEF7E9FA834602466E480E460B46062137
:101E40007844FFF7E7FA5A463346FEF7DCFA804655
:101E500069488A465A46334604217844FFF7DAFA3D
:101E60005A463346FEF7CFFA00223B46FEF724FAE5
:101E700002460B4640465146FEF76BFC2A46234677
:101E8000FEF7C1FA06B02A462346BDE8F04DFEF73C
:101E900013BA284624F0004100223D463B46FEF797
:101EA000AFFA4FF0FF32FEF7C3FC06460246534836
:101EB0000F460B4606217844FFF7ACFA32463B4604
:101EC000FEF7A1FACDE900014D4832463B46042118
:101ED0007844FFF79FFA32463B46FEF794FA002219
:101EE0002B46FEF7E9F9834602913046394600F069
:101EF00096FD804643480D46504517DCDDE900015C
:101F00005A46029BFEF725FC42462B46FEF77BFA1B
:101F100042462B46FEF7D0F90122FEF789FC304AF3
:101F2000304BFEF76AFA304A304B4CE04FF0000A73
:101F300052460B464046FEF7BFF9CDE90310524624
:101F40002B4610461946FEF75EFA32463B46FEF730
:101F500057FADDE90332FEF7FCFB06460F46DDE9E2
:101F600000015A46029BFEF7F4FB834600910122D2
:101F700030463946FEF75CFC194A1A4BFEF740FA28
:101F800006460F46012240462946FEF751FC5A46B6
:101F9000009BFEF738FA32463B46FEF72EFA06461D
:101FA0000F46012250462946FEF742FC0E4DDFF84F
:101FB00058802A464346FEF723FA32463B46FEF750
:101FC0001FFA2A464346FEF71BFA002CD8BF81F0C1
:101FD000004106B0BDE8F08D0000F03F0000F07F4A
:101FE000075C143326A6913C182D4454FB21F93F7D
:101FF0000000E03F7C0C0000920C0000060C00008A
:102000001C0C00003333EF3FFB21E93F2DE9F84F73
:1020100004460D4621F0004000917349814211DCD5
:102020007249884201DC06D12CB120462946BDE820
:10203000F84FFFF744BA6E48002DCCBF6D496E498A
:10204000BDE8F88F6D49814211DD6D498142D8BFED
:102050004FF0FF366DDD20462946FFF7C7F904280B
:1020600008BFFFF737FA20462946BDE8F88F6549D3
:10207000654F25F00045814233DD6449814219DD19
:10208000002632464FF0804320462946FEF714F9D9
:1020900080468A46012220462946FEF7C9FB0022D7
:1020A0003B46FEF7AAF942465346FEF752FB04466A
:1020B0000D463EE001260022BA463B462046294610
:1020C000FEF7FAF880460F4600225346204629467E
:1020D000FEF793F942463B46FEF73BFB04460D46AE
:1020E00027E04B4981421BDDDFF828A102260022B0
:1020F000534620462946FEF786F900223B46FEF766
:10210000DBF880460F460022534620462946FEF75C
:1021100074F942463B46FEF71CFB04460D4608E0B8
:10212000032622462B4600203B49FEF712FB0446BD
:102130000D4622462B4610461946FEF764F98B469B
:10214000824602460B46FEF75EF9074602463348D2
:1021500088460B4606217844FFF75CF952465B46F9
:10216000FEF751F982462E488B463A4643460521F2
:102170007844FFF74FF93A464346FEF744F90246E2
:102180000B46002E504659460CDAFEF795F82246CB
:102190002B46FEF738F901B022462B46BDE8F04F3A
:1021A000FEF72EB9FEF788F822462B46FEF72BF9EC
:1021B0001C4A7A4402EBC603D3E90023FEF71DF95B
:1021C00022462B46FEF719F9174A7A4402EBC6035A
:1021D000D3E90023FEF714F9009A002AB8BF81F072
:1021E0000041BDE8F88F0000000010440000F07FBF
:1021F000182D4454FB21F93FFB21F9BF0000DC3FBF
:102200000000203E0000F33F0000F03F0000E63FEA
:10221000008003400000F83F0000F0BF1E0A0000ED
:10222000DC0900007A090000420900002DE9F04DA8
:102230009446CCF1000423F000464CEA0404594FC4
:1022400046EAD4749A46884621F00042BC4206D839
:10225000454240EA050442EAD474BC4204D9BDE8D0
:10226000F04D6246FFF72EB9AAF14055A5F17F6502
:1022700055EA0C040BD0022404EAAA744A4DDFF894
:102280002CE144EAD87452EA000B04D00CE0BDE81B
:10229000F04DFFF7BBBE002C14BF012CBDE8F08D44
:1022A000022C30D0032C32D056EA0C0B0AD0BE429E
:1022B00020D1BA4209D126F0804622F0804233462E
:1022C000114617E000291ADB25E0DFF8E4B0FB44F3
:1022D000002C04BFDBE90001BDE8F08D012C02BF3A
:1022E000DBE9000181F00041BDE8F08D022C0AD04D
:1022F000032C0CD0BA4212D1B8F1000F0BDA2A48E5
:102300002C49BDE8F08D28462B49BDE8F08D2846C4
:102310007146BDE8F08D24482849BDE8F08D921B38
:1023200012153C2AC4BF204F244E10DCBAF1000F16
:10233000BEBF12F13C0F00273E4608DB6246FEF7A7
:1023400008FA21F00041FFF761FE07460E4694B1FE
:10235000012C08BF86F000460DD0194A194B022CFB
:102360003846314615D0FEF748F82A46BDE8F04D0C
:10237000114BFEF742B80022134638463146FEF7AD
:1023800087FA04BF0220FFF7BDF838463146BDE8A2
:10239000F08DFEF732F82A46BDE8F04D064BFEF709
:1023A0002FB800000000F07F182D4454FB2109C015
:1023B000D6080000FB21F9BFFB210940FB21F93FB2
:1023C000075C143326A6A13C2DE9F0410446E078D1
:1023D00000F0C006E07800F03F05607800F00100F2
:1023E00098B1EF102846E91705EB5171C910A5EB1C
:1023F000C101491C01F0FF080B48006820B10A48E0
:10240000414602683846904700BF607800F00800F7
:1024100030B10548406818B1B011034A5168884787
:102420000020BDE8F0810000780000200146114A3C
:1024300012884A434FF0E0235A6100229A611A46FB
:10244000126942F001021A6100BF4FF0E0221069E8
:1024500000F001021AB100F48032002AF5D04FF0EA
:10246000E022126922F001024FF0E0231A610022FB
:102470009A6170476A0000200146114A12784A4367
:102480004FF0E0235A6100229A611A46126942F025
:1024900001021A6100BF4FF0E022106900F0010252
:1024A0001AB100F48032002AF5D04FF0E022126910
:1024B00022F001024FF0E0231A6100229A61704776
:1024C000680000202DE9F04F8DB00746884615467C
:1024D0009946DDE9166B0024002030806B49887B2B
:1024E0005A4605A900F05CF918B1601E0DB0BDE8B0
:1024F000F08F6648807A00F01400002867D09DF8BD
:10250000140000069DF8151040EA01409DF81610D1
:1025100040EA01209DF81710084328609DF8180034
:1025200000069DF8191040EA01409DF81A1040EA93
:1025300001209DF81B10084368609DF81C000006F0
:102540009DF81D1040EA01409DF81E1040EA012050
:102550009DF81F100843A8609DF8200000069DF814
:10256000211040EA01409DF8221040EA01209DF828
:1025700023100843E86004F11000C4B22868001476
:102580000190686800140290A86800140390E8683D
:102590000014049001984043029901FB0100039943
:1025A00001FB0100049901FB010ABAF1706F02DB23
:1025B000BAF1885F05DD00F053F900203080401E3D
:1025C00094E7B6F9000040F48070308000BF2F48D7
:1025D000807A00F0400020B305A9601C085C095D0A
:1025E00040EA012000B2A8F8000005A9E01C095C3F
:1025F00005AAA01C105C41EA002000B2A8F8020065
:1026000005A9601D095C201D105C41EA002000B294
:10261000A8F80400A01DC4B2B6F9000040F00800FC
:1026200030801A48408900F4C07008B305A9601CC6
:10263000085C095D40EA012000B2388005A9E01C71
:10264000095C05AAA01C105C41EA002000B2788059
:1026500005A9601D095C201D105C41EA002000B244
:10266000B880A01DC4B2B6F9000040F07000308000
:102670000648807A00F0030018B105A90819FFF791
:10268000A3FE484600F0CAF900202FE7780000209A
:1026900000BF054A128802F04002002AF9D0C2B2F7
:1026A000014B1B1D1A807047003801402DE9F04195
:1026B00006460F4614461D46FEF752FA10B9012091
:1026C000BDE8F0817106080EFEF712FAFEF7A0FAD7
:1026D00018B9FEF779FA0120F2E73846FEF708FA52
:1026E000FEF796FAFEF73CFA012101EB4601C8B26B
:1026F000FEF7FEF9FEF78CFA0DE0012C04D1002064
:10270000FEF7C0F9287003E00120FEF7BBF928703E
:102710006D1C601EC4B2002CEFD1FEF755FA0020EC
:10272000CEE72DE9F04105460E4617469846FEF7DE
:1027300017FA10B90120BDE8F0816906080EFEF70E
:10274000D7F9FEF765FA18B9FEF73EFA0120F2E76D
:102750003046FEF7CDF9FEF75BFA00240BE018F8DF
:102760000400FEF7C5F9FEF753FA18B9FEF72CFA84
:102770000020E0E7641CBC42F1DBFEF725FA0020F4
:10278000D9E70EB50020009001900290FEF774FA90
:1027900040F2CF2140F2CF70FEF7AAFC00BFFEE767
:1027A000F8B504460F4616462C4890F8240010B998
:1027B0004FF0FF30F8BD2948807A10B94FF0FF3054
:1027C000F8E7264A1268917A244A526810786B46D4
:1027D0000222FFF76BFF10B14FF0FF30EAE79DF8E0
:1027E00001009DF8001040EA0125A54203DA00200F
:1027F0003070401EDEE7194840684088B5EB600F36
:1028000017DD164A1268517C144A526810786B46DC
:102810000122FFF74BFF10B14FF0FF30CAE79DF8E0
:10282000000000F0100020B100F01AF86FF0010075
:10283000C0E7E2B2094B1B68D97A084B5B6818788D
:102840003B46FFF733FF10B14FF0FF30B2E795FB87
:10285000F4F0401E30700020ACE700003C00002087
:1028600008B56D48807A10B94FF0FF3008BD0020E0
:102870000090694A1268D17B674A526810786B46AB
:102880000122FFF74EFF10B14FF0FF30EEE7624A32
:1028900012685179604A526810786B460122FFF73E
:1028A00040FF10B14FF0FF30E0E75B4A126811794A
:1028B000594A526810786B460122FFF732FF10B177
:1028C0004FF0FF30D2E7544890F82400002850D051
:1028D0000C200090504A126811794F4A52681078C3
:1028E0006B460122FFF71DFF10B14FF0FF30BDE72F
:1028F000C02000904848807A00F0010020B19DF887
:10290000000040F020000090434A12681179424ACA
:10291000526810786B460122FFF703FF10B14FF0A9
:10292000FF30A3E73C48407C10B10220009001E05A
:1029300000200090384A1268D17B374A52681078DC
:102940006B460122FFF7EDFE10B14FF0FF308DE72F
:1029500000200090304A126851792F4A526810784E
:102960006B460122FFF7DDFE002852D04FF0FF300A
:102970007CE704200090284A12681179264A5268A0
:1029800010786B460122FFF7CCFE10B14FF0FF30FC
:102990006CE72148807C20B91F48807A00F0010054
:1029A00010B94020009001E0602000901A4A12689F
:1029B0001179194A526810786B460122FFF7B1FE6F
:1029C00010B14FF0FF3051E71348407C10B10120A7
:1029D000009001E0002000900F4A1268D17B0E4A5F
:1029E000526810786B460122FFF79BFE10B14FF042
:1029F000FF303BE7084A12685179074A526810785D
:102A0000054B10330122FFF78CFE10B14FF0FF3061
:102A10002CE700202AE700003C00002070472DE949
:102A2000F04106460F46FDF785FF041E0D4618BF10
:102A30000120284320F00040C0F17F6000F1E04019
:102A4000C00F0ED0301C18BF0120384320F00040CA
:102A5000C0F17F6000F1E040C00F04BF0120FEF72D
:102A600051FD20462946BDE8F081000068000004C1
:102A700076005401F7FD000175191A0C6A231B1C1E
:102A80001F207274433B4138393A6B6C376F062410
:102A90006D6E700083000000000800000001001847
:102AA00032000500000020410000D242295C0F3EA8
:102AB0009A99993E3333733F295C0F3E0000000022
:102AC000555555555555C53F7D6FEB0312D6D4BFAF
:102AD0005544880E55C1C93F3B8F68B52882A4BFB5
:102AE00088B20175E0EF493F09F7FD0DE13D023F76
:102AF0004B2D8A1C273A03C0C88A599CE52A0040FE
:102B000059018D1B6C06E6BF82922EB1C5B8B33F4A
:102B10004FBB610567ACDD3F182D4454FB21E93FF5
:102B20009BF681D20B73EF3F182D4454FB21F93FE4
:102B3000E2652F227F2B7A3C075C143326A6813C6A
:102B4000BDCBF07A8807703C075C143326A6913C15
:102B5000C4EB98999999C9BF711623FEC671BCBF81
:102B60006D9A74AFF2B0B3BF9AFDDE522DDEADBFE9
:102B70002F6C6A2C44B4A2BF0D5555555555D53F01
:102B8000FF8300922449C23F6E204CC5CD45B73F1C
:102B9000513DD0A0660DB13FEB0D76244B7BA93F94
:102BA00011DA22E33AAD903F00000000000000007F
:102BB000D02B00080000002078000000E41400087A
:102BC000482C000878000020D8040000F414000805
:102BD00000000000000000000000000000000000F5
:102BE0000000000000000000000000000000803F26
:102BF000000000000000000000000000FF000000D6
:102C0000FF0000000100000000000000782A00081A
:102C10006C2A000800000000000000000000000016
:102C200000000000000000000000000000000000A4
:102C300000000000942A00080000000000000000CE
:082C400000000000000000008C
:04000005080000ED02
:00000001FF
