:020000040800F2
:10000000580C0020A9010008291E0008E518000866
:10001000251E0008B11500089B2B000800000000F9
:10002000000000000000000000000000BD250008E6
:10003000C5170008000000004B2200082527000813
:10004000C3010008C3010008C3010008C301000880
:10005000C3010008C3010008C3010008C301000870
:10006000C3010008C3010008C3010008C301000860
:10007000C3010008C3010008C3010008C301000850
:10008000C3010008C3010008C3010008C301000840
:10009000C3010008C3010008C3010008C301000830
:1000A000C3010008C3010008C3010008C301000820
:1000B000E5270008C3010008C3010008C3010008C8
:1000C000C3010008C3010008C3010008C301000800
:1000D000C301000879290008C3010008C301000812
:1000E000C3010008C3010008C301000800F002F8C2
:1000F00000F04AF80AA090E8000C82448344AAF178
:100100000107DA4501D100F03FF8AFF2090EBAE875
:100110000F0013F0010F18BFFB1A43F0010318473B
:10012000B4940000D4940000103A24BF78C878C179
:10013000FAD8520724BF30C830C144BF04680C60ED
:10014000704700000023002400250026103A28BF35
:1001500078C1FBD8520728BF30C148BF0B60704739
:10016000662906F0BE85642900F08480002070476F
:100170001FB500F0B7FC04000020002105F0A0FC32
:10018000E0601FBD10B510BD00F0DCFD1146FFF7AB
:10019000EFFF04F03BFB00F0FAFD03B4FFF7F2FFC2
:1001A00003BC02F080FD0000094880470948004771
:1001B000FEE7FEE7FEE7FEE7FEE7FEE7FEE7FEE717
:1001C000FEE7FEE704480549054A064B7047000074
:1001D00029270008ED00000858060020580C0020D0
:1001E0005808002058080020704710B54C1084EAC9
:1001F000530404D54042C1F1000138BF491E1B42DF
:1002000004D55242C3F1000338BF5B1E00F02DF944
:1002100014F0804F04D04042C1F1000138BF491EA4
:1002200014F0004F04D05242C3F1000338BF5B1EEC
:1002300010BD00000FB4044910B503AA029800F0E5
:100240001DFC10BC5DF814FB940000200FB41CB51D
:10025000074B06AA7B4469460090059800F0F5FB21
:100260000020694600F004FC1CBC5DF814FB000093
:10027000190800002DE9F041064600241068752990
:10028000314616A510D0AFF30080002802DA4042B4
:1002900013A507E031688A0701D512A502E04907D6
:1002A00004D511A5012401E0AFF3008000210A224A
:1002B00006F1240709E0B0FBF2FCB0FBF2F302FB0D
:1002C0001C00303078541846491C0028F3D12346CE
:1002D0002A463046BDE8F04100F049B90000000070
:1002E0002D0000002B000000200000002DE9F04749
:1002F0004FF0000A89460446C0F820A02046E16875
:100300008847002876D0252806D0D4E901219047D7
:10031000206A401C2062F1E7E168204600258847FA
:10032000C4F81CA006460027C4F818A02A2E09D03D
:10033000304602F0B1FC38B304EB8708303EC8F811
:10034000186019E059F8041B204604EB87029161FC
:10035000E1688847012F064618D1E069002820DAB5
:1003600025F020051DE0D8F8180000EB800006EB12
:1003700040003038C8F818002046E1688847064633
:1003800002F08AFC0028EED1012F0AD02E2E08D1CF
:100390002046E16888477F1C0646022F45F020056D
:1003A000C4DBA069002803DA404245F00105A061E2
:1003B000E80701D025F01005B6B1A6F141001928D3
:1003C00002D8203645F400654A463146204625606D
:1003D0004D46FFF7C5FE58B1012806D0ED1D25F0AA
:1003E000070000F1080989E704E005F1040985E741
:1003F00030468AE7206ABDE8F08740EA010310B57D
:100400009B070FD1042A0DD310C808C9121F9C42A4
:10041000F8D020BA19BA884201D9012010BD4FF096
:10042000FF3010BD1AB1D30703D0521C07E00020E3
:1004300010BD10F8013B11F8014B1B1B07D110F840
:10044000013B11F8014B1B1B01D1921EF1D1184643
:1004500010BD02F0FF0343EA032242EA024200F029
:1004600021BB704770477047704753EA020C00F099
:1004700069802DE9F04B4FF00006002B1FBFB3FA47
:1004800083F503FA05F424FA05F65E4012BF16431D
:10049000B2FA82F502FA05F4C5F120051EBF22FA70
:1004A00005FC44EA0C04203556EA044C4FEA144497
:1004B00018BF641C4FF000084FF00009904271EB28
:1004C000030C39D3002919BFB1FA81F701FA07F6F5
:1004D000B0FA80F700FA07F6C7F120071EBF20FA2E
:1004E00007FC46EA0C062037B6FBF4FCA7EB050731
:1004F000103F07F01F0BCBF120060CFA0BFB2CFA78
:1005000006F644BFB3460026202FA4BF5E464FF038
:10051000000B5BEA060C08BF4FF0010B19EB0B094F
:10052000ABFB027C48EB0608C01B06FB02CC0BFBB6
:1005300003CC71EB0C01C1E70B460246414648462D
:10054000BDE8F08B13B54FF000004FF00001AFF3A2
:100550000080BDE81C40704710B500F0C7FA006885
:1005600010BD10B5044600F0C1FA046010BD2DE9BD
:10057000F0470D4699469246044600F1240801686A
:10058000880604D5E06921F01001216000E0012017
:10059000A84201DD471B00E00027A1697A1902EBA0
:1005A0000900081AA0612078C00602D42046AFF3E3
:1005B0000080002608E0D4E901211AF806009047DF
:1005C000206A401C761C20624E45F4DB2078C00671
:1005D0000AD52046AFF3008006E0D4E9012130209F
:1005E0009047206A401C2062381EA7F10107F4DC06
:1005F00007E0D4E9012118F805009047206A401C63
:100600002062281EA5F10105F3DC2046AFF300802F
:100610002078000602D50220BDE8F0870120FBE724
:1006200070472DE9FF4F0C461E464FF0FF378BB049
:10063000D2E90001DDF860800A908A46C1F30A55CC
:1006400005B93D46002108464FF00000BAF1000F01
:1006500000F4400005DA00EB80004FF4400101EAAD
:1006600050004FEA9059B9F1010F00DDB9460A98E0
:1006700050EA4A000ED044F61050A5F2FF3545432B
:100680002F14B8F1000F1ED07542291E1EDDC9F1CE
:1006900000021CE0B8F1010F4FF0000001D0302142
:1006A00003E0F24305E02154401CB042FBDB30463E
:1006B0000022002121540B99C1F80880C1E90020D3
:1006C0000FB0BDE8F08FBD1B6D1CDEE74A4600DAB7
:1006D000694206A800F094FA06AB93E8070003AB62
:1006E00083E8070050460A9900F09AFB8DE807005E
:1006F000A0F500501F3800900398002D0ADD42F24B
:100700001F014A460844002303A90390684600F0ED
:1007100003FE09E0A0F500504A461F38002303A954
:100720000390684600F00DFE8DE807000004000C01
:1007300003D04FF0FF30410800E01046B8F1000F41
:1007400003D00022009215461EE0751E05D400F06D
:10075000D1F9303262556D1EF9D5B34601220843F6
:1007600002D000227F1C04E02078302801D1002232
:100770007F1E002A099784D01DE0112D07DA00F0B2
:10078000B9F9303262556D1C50EA0102F5D10843C7
:1007900002D00098C8B10EE00021681E05E0235C7D
:1007A000625C63542254401E491C8142F7DBAB4615
:1007B000A81B401E0990002004F80B000B98099A12
:1007C000C0F80880C0E9002B7AE711264FF0000836
:1007D00057E72DE9F04F88460446D21D22F0070165
:1007E00091B0D1E90001CDE90A0102F0D8F9024641
:1007F0000B98C00F01D02D2007E02068810701D59C
:100800002B2002E0202101EAC000032A099001D038
:10081000072A05DB03464146204600F0B1F90BE10B
:100820002078800601D5E06900E00620B8F1650F68
:10083000814606D0B8F1660F18D0B8F1670F70D1B5
:1008400031E00020B9F1110F009001DB112301E02C
:1008500009F101030AAA01A90CA8FFF7E2FEDDE9EC
:100860000C70002609F10105834647E001204B4644
:1008700000904FF000470AAA01A90CA8FFF7D1FE8B
:10088000DDE90DB00C995D46002610B909F10100B3
:100890000D18B9EB050003D4C0F1FF3609F10105CD
:1008A000A5EB09002BE0B9F1010F01DA4FF00109C6
:1008B0000020B9F1110F0090484601DD112300E03E
:1008C00003460AAA01A90CA8FFF7ABFEDDE90C70EC
:1008D0004D4600268346207800070AD4AB4500DA4F
:1008E0005D4601A8012D04DD411911F8011C3029D4
:1008F00007D04F4502DA17F1040F04DA01208246CF
:100900000FE06D1EEEE7002F02DCED1B3E4403E01E
:10091000781CA84200DD7D1CB81B00F1010A4FF0D5
:1009200000472078000703D4AA4501DB4FF0FF3AC7
:100930000021B7F1004F0DF143088DF8431024D08A
:1009400002202B23002F01DA7F422D230A21021ED1
:10095000A0F1010000DC5FB197FBF1FC97FBF1F225
:1009600001FB1C7C17460CF1300C08F801CDEEE7BA
:10097000A8F1010003702188090501D5452100E097
:100980006521A0F1010800F8011C09980FA9A1EB4D
:100990000807FF1D00B10120411901EBEA70A169B0
:1009A0003844081A401EA0612078C00602D42046B0
:1009B000AFF30080099828B1D4E901219047206A5B
:1009C000401C20622078C00622D52046AFF300806C
:1009D0001EE0002E04DBB34502DD01A8805D00E0CF
:1009E0003020D4E901219047206A401C2062761C07
:1009F000AAF101005FEA000A0AD100F073F8C068AA
:100A00000168405CD4E901219047206A401C2062C3
:100A1000281EA5F10105DCDC07E0D4E9012118F866
:100A2000010B9047206A401C2062381EA7F1010785
:100A3000F3DC2046AFF30080032011B041E6000054
:100A400001694A1C02610878704700B58FB0CDE992
:100A500001310021059105497944CDE90310114682
:100A60006846FFF743FC0FB000BD0000E5FFFFFF45
:100A70000A6802F8010B0A6070470000074B70B566
:100A80000D467B44FFF7E1FF0446284600F02AF9B3
:100A900010B14FF0FF3070BD204670BDEF35000043
:100AA0004FF000020429C0F0128010F0030C00F097
:100AB0001F81CCF1040CBCF1020F18BF00F8012B10
:100AC000A8BF20F8022BA1EB0C0100F011B95FEADE
:100AD000C17C24BF00F8012B00F8012B48BF00F8AF
:100AE000012B7047004870471406002000487047EB
:100AF000F405002030B5B0F10A024FEA900E71F112
:100B000000034EEA817EB0EB0E0061EB91014FEAEB
:100B1000101E4EEA017E10EB0E0041EB11114FEA60
:100B2000102E4EEA016E10EB0E0041EB11214FEA40
:100B3000104E4EEA014E10EB0E0041EB11414018F1
:100B400041F100014FEAD00040EA41704FEAD10183
:100B500010EB80054FEA810444EA907444EB0104F1
:100B60006D1944EB0404521BA3414FF0000348BF2E
:100B70000A3200D530BD401C41F1000130BD0000FB
:100B80002DE9F0411F46044603260168072A01F4B7
:100B9000006004DB08B116A505E016A503E008B166
:100BA00015A500E015A521F010002060A069C01E69
:100BB000A0610FB1401EA0612046AFF300804FB18D
:100BC000D4E9012138469047206A401C2062C01CAD
:100BD000206206E0206AFAE7D4E9012115F8010B4A
:100BE0009047761EF8D22046AFF30080BDE8F08132
:100BF0004E414E006E616E00494E4600696E6600C1
:100C00002DE9F047814616468AB0354878440DC82C
:100C10008DE80D0032487844801C03AC0DC884E890
:100C20000D0041F69B300844372190FBF1F290FB18
:100C3000F1F5A5F1800501FB12041B3C02D56442CD
:100C4000012000E00020DFF898A080460027FA4449
:100C5000AAF1BE0A0EE0E0070AD03246684607EB6A
:100C6000470101230AEB810100F06BFB8DE80700CF
:100C700064107F1C002CEED1194F7F44AE3F19E069
:100C8000E80715D007EB04100DF1180A90E80E00E4
:100C90008AE80E00C068F04201D1981908903246E7
:100CA000012306A903A800F04CFB03AB83E807006F
:100CB0006D10641C002DE3D14FF0010332466946EC
:100CC000B8F1000F03A802D000F026FB01E000F00D
:100CD00038FBC9E90001C9F808200AB0BDE8F0876F
:100CE0005C890000007B00F0800070474FF000023C
:100CF00000B5134694469646203922BFA0E80C5012
:100D0000A0E80C50B1F12001BFF4F7AF090728BFEC
:100D1000A0E80C5048BF0CC05DF804EB890028BF68
:100D200040F8042B08BF704748BF20F8022B11F091
:100D3000804F18BF00F8012B704700000048704733
:100D4000F40500207546FFF7F9FFAE460500694639
:100D5000534620F00700854618B020B5FFF732FA59
:100D6000BDE820404FF000064FF000074FF00008AC
:100D70004FF0000B21F00701AC46ACE8C009ACE82D
:100D8000C009ACE8C009ACE8C0098D46704710B591
:100D90000446AFF300802046BDE81040FFF7FDB9E0
:100DA0004FF0013C50F8042B51F8043B9A4221D1FA
:100DB000A2EB0C03934313EACC1317D150F8042B86
:100DC00051F8043B9A4215D1A2EB0C03934313EA6A
:100DD000CC130BD150F8042B51F8043B9A4209D1A3
:100DE000A2EB0C03934313EACC13DBD04FF00000CB
:100DF000704700BFD01A01BAB1FA81F101F01801B1
:100E000022FA01F0CB40C1F12001DBB2C0B2C01A1E
:100E10002CFA01F3D11A914311EAC311E6D17047BC
:100E20005FEA400C08BF91F0000F4FEA8C234FEAB5
:100E3000C12243EA51514FEA1C5018BF00F5F0405F
:100E40004FEA300018BF41F000415FEA6C5C00F0EF
:100E50002980BCF1FF3F08BF40F080407047130C71
:100E600006BF12044FF0100C4FF0000C130E04BF1D
:100E700012020CF1080C130F04BF12010CF1040C48
:100E8000930F04BF92000CF1020CD30F04BF520069
:100E90000CF1010C11464FF00002A0F11F00A0EB75
:100EA0000C00704711F0004F08BF704731F000414F
:100EB0003FF4D5AF0B0C06BF09044FF0100C4FF0F8
:100EC000000C0B0E04BF09020CF1080C0B0F04BF41
:100ED00009010CF1040C8B0F04BF89000CF1020C0A
:100EE000CB0F04BF49000CF1010CCCF12003A0EBA7
:100EF0000C0022FA03F302FA0CF241EA030100F1BA
:100F00000100704720F07F4C80EA030023F07F4708
:100F1000ACEB070303F57C5300F0004003F1FF0343
:100F20002DE980494FEA154B09B44FEA144325EAED
:100F30000B4E24EA03480FF2042606EB1327490858
:100F40003E785FEA320203FB0667C7F5000707FB3E
:100F500006F64FEA54374FEAD64606F1020607FB7B
:100F6000066CCCF1005C4FEA1C472CEA074C07FBEF
:100F700006F40CFB06F504EB15464FEA961634BF53
:100F800000204FF000404FEAD13706FB07FC4FEA44
:100F90001C4C0CFB0BF7D21B03FB0CF761EB07019E
:100FA0000CFB0EF7B0EB074072EB17420CFB08F797
:100FB00034BFA2EB0742B2EB074261EB17414FEAA5
:100FC0000C444FEA910706FB07FC4FEA1C4C0CFB54
:100FD0000BF7B0EBC74072EB573203FB0CF734BF93
:100FE000A2EBC742B2EBC74261EB57310CFB0EF7E5
:100FF000B0EBC70072EB57720CFB08F734BFA2EBE3
:10100000C702B2EBC70261EB5771039F4FEA8161E0
:1010100041EA921104EBCC044FEAD1374FEA8262E5
:1010200006FB07FC42EA90124FEA80604FEA1C4C34
:101030000CFB0BF7D21B03FB0CF761EB07010CFB5E
:101040000EF7B0EB074072EB17420CFB08F734BF0A
:10105000A2EB0742B2EB074261EB17414FEA8C5516
:101060004FEA910704EB9C2406FB07FC4FEA1C4C5B
:101070000CFB0BF7B0EBC74072EB573203FB0CF7DE
:1010800034BFA2EBC742B2EBC74261EB57310CFB56
:101090000EF7B0EBC70072EB57720CFB08F734BFCA
:1010A000A2EBC702B2EBC70261EB577115EB4C25FF
:1010B0004FEA816141EA92114FEA82624FEAD137E9
:1010C00042EA901206FB07FC44F100044FEA8060FC
:1010D0004FEA1C4C0CFB0BF7D21B03FB0CF761EB2C
:1010E00007010CFB0EF7B0EB074072EB17420CFB4D
:1010F00008F734BFA2EB0742B2EB074261EB17419E
:1011000015EB1C154FEA813141EA92414FEA8232D8
:1011100042EA90424FEA80304FEA0C7644F10004F4
:1011200048EA03434EEA0B484FF0000EB2EB080CBE
:1011300071EB030724BF624639464EEB0E0E4FF0AB
:10114000000B0018524149414BEB0B0BB2EB080C62
:1011500071EB03077BF1000B24BF624639464EEB6F
:101160000E0E4FF0000B0018524149414BEB0B0B98
:10117000B2EB080C71EB03077BF1000B24BF624656
:1011800039464EEB0E0E51EA020718BF46F0010633
:1011900016EB0E7655F1000254F1000103D5BDE8BF
:1011A0008901BDE80088BDE88901BDE80048B6199D
:1011B000524141EB0101A3F10103704780807F7E22
:1011C0007D7C7B7A797877767675747372717170BD
:1011D0006F6E6E6D6C6C6B6A6A696868676666656F
:1011E0006464636362616160605F5F5E5E5D5D5CFD
:1011F0005C5B5B5A5A59595858575756565555556E
:101200005454535352525251515050504F4F4F4ECD
:101210004E4D4D4D4C4C4C4B4B4B4A4A4A4949491B
:10122000484848474747474646464545454444445D
:10123000444343434342424242414141002B9C4686
:1012400030D477002BD01CB54FEA370703B44FF0EA
:1012500010004FF01001BAF1000F06D0BCF1000FE2
:10126000DCBF40F0080040F008014FF000000FBC68
:10127000BDE810400BF1010BBBF1010F08BF5FEAA5
:10128000170722BF12F1010211F101014FF00041D5
:1012900043F1000300F0004043EA00007047F9D337
:1012A0005708D0E746EA064613F1400F4FEA1646C4
:1012B0001FDD13F1200FDFBF16430A460021203344
:1012C0005B42BED0C3F1200746EA064602FA07F7A2
:1012D0004FEA164646EA0706C3F1200722FA03F250
:1012E00001FA07F721FA03F14FF0000342EA07027F
:1012F000A7E746EA020646EA06464FEA164646EAE7
:101300000106BCBF46EA0646360C4FF000034FF01C
:1013100000024FF0000194E72DE9804C9A46934675
:1013200070B491E8380007C831EA400C48BF34EA8D
:10133000430C03D5FFF7E6FDFFF780FFF0BCBDE8E7
:10134000008C2DE9804C9A46934670B491E83800A1
:1013500007C810F0804F08BF13F0804F03D100F092
:1013600005F8FFF76BFFF0BCBDE8008C20F07F476D
:1013700080EA030023F07F4C07EB0C03A3F57C53BA
:1013800000F00040A3F1FE0392F0000F00F0B380E4
:1013900095F0000F00F077802DE901494FEA1140E8
:1013A0004FEA144621EA004800FB06FC24EA0647FF
:1013B00008FB06F607FB08F800FB07F718EB0648E2
:1013C0004CEB164C4FEA124B18EB07484FEA154608
:1013D0004CEB174022EA0B4E0BFB06FC25EA0647B6
:1013E0000EFB06F607FB0EFE0BFB07F71EEB064E89
:1013F0004CEB164C4FF000061EEB074E4CEB174B18
:1014000018EB0B0840F1000018EB0E0B58EB00082E
:1014100040F100008F1A4FF000013CBFC943661B2A
:1014200014BFB5EB040C00213CBFC943F61B4FEAC7
:1014300017444EEA8E0E27EA04454FEA1C4704FB88
:1014400007622CEA074C05FB07F70CFB05F604FBCB
:101450000CFC16EB074642EB174216EB0C4642EB30
:101460001C421BEB060658EB0202414146EA9E066F
:1014700001D5BDE80189B619524141EB0101A3F143
:101480000103BDE801894FEA14454FEA114724EAF8
:10149000054621EA074C05FB07F406FB07F70CFBA2
:1014A00006F105FB0CFC11EB074144EB17444FEA36
:1014B000124711EB0C4144EB1C4422EA074C05FB9C
:1014C00007F206FB07F70CFB06F605FB0CFC16EB18
:1014D000074642EB174216EB0C4642EB1C456A18D6
:1014E00054F1000148BF7047B619524141EB010168
:1014F000A3F10103704795F0000F37D04FEA114276
:101500004FEA144721EA024624EA074C02FB07F19E
:1015100006FB07F70CFB06F402FB0CFC14EB07447C
:1015200041EB17414FEA154714EB0C4441EB1C41CA
:1015300025EA074C02FB07F506FB07F70CFB06F64E
:1015400002FB0CFC16EB074645EB174516EB0C4669
:1015500045EB1C42121951F1000148BF7047B61902
:10156000524141EB0101A3F1010370474FEA1445D9
:101570004FEA114724EA054621EA074C05FB07F12B
:1015800006FB07F70CFB06F24FF0000605FB0CFC10
:1015900012EB074241EB174112EB0C4251EB1C419D
:1015A00048BF7047921841EB0101A3F10103704756
:1015B00000BFFEE738B5002000906B460122752180
:1015C000682003F07DF82CA0FEF734FE9DF80000A3
:1015D00068280ED000BF3148006800F4E060304950
:1015E0000843001D2D490860BFF34F8F00BF00BFA7
:1015F000FEE703F095FA00283CD1782004F09AF831
:1016000010B91DA0FEF716FE782003F077F910B987
:1016100024A0FEF70FFEC82004F03EF810B92BA05E
:10162000FEF708FE02F0C2F810B932A0FEF702FE83
:101630003D4803F0B0F8044602F012FB10B93BA09D
:10164000FEF7F8FD40F2731001F058FF10B941A009
:10165000FEF7F0FDC82002F033FA10B947A0FEF7FC
:10166000E9FD04F011F9012003F012FF10B94CA0BC
:10167000FEF7E0FD38BD00006D70755F7365745F47
:1016800073656E736F7220636F6D706C6574652027
:101690002E2E2E2E2E2E0D0A000000000CED00E046
:1016A0000000FA056D70755F636F6E66696775722D
:1016B000655F6669666F20636F6D706C6574652029
:1016C0002E2E2E2E2E2E0D0A000000006D70755F3E
:1016D0007365745F73616D706C655F7261746520B2
:1016E000636F6D706C657465202E2E2E2E2E2E0D60
:1016F0000A000000646D705F6C6F61645F6D6F74F1
:10170000696F6E5F6472697665725F6669726D7724
:1017100061726520636F6D706C657465202E2E2E6E
:101720002E2E2E0D0A00000054000020646D705F04
:101730007365745F6F7269656E746174696F6E2032
:10174000636F6D706C657465202E2E2E2E2E2E0DFF
:101750000A000000646D705F656E61626C655F66B3
:1017600065617475726520636F6D706C657465205A
:101770002E2E2E2E2E2E0D0A00000000646D705F9E
:101780007365745F6669666F5F7261746520636F0D
:101790006D706C657465202E2E2E2E2E2E0D0A0077
:1017A0006D70755F7365745F646D705F7374617481
:1017B0006520636F6D706C657465202E2E2E2E2E45
:1017C0002E0D0A0070472DE9F04102460025002643
:1017D000002000230024002791F803C00CF00F051F
:1017E00091F803C00CF0100CBCF1000F03D091F87D
:1017F00002C04CEA050591F800C0BCF1000F31D0E1
:10180000146800202BE04FF0010C0CFA00F3B1F843
:1018100000C00CEA03069E4220D183004FF00F0C5B
:101820000CFA03F7BC4305FA03FC4CEA040491F8F4
:1018300003C0BCF1280F06D14FF0010C0CFA00FCDC
:10184000C2F814C00AE091F803C0BCF1480F05D1FA
:101850004FF0010C0CFA00FCC2F810C0401C082824
:10186000D1D31460B1F800C0BCF1FF0F34DD54686F
:1018700000202EE000F1080C4FF0010808FA0CF3EC
:10188000B1F800C00CEA03069E4221D183004FF05C
:101890000F0C0CFA03F7BC4305FA03FC4CEA0404F2
:1018A00091F803C0BCF1280F05D100F1080C08FA2B
:1018B0000CF8C2F8148091F803C0BCF1480F07D1AE
:1018C00000F1080C4FF0010808FA0CF8C2F810807B
:1018D000401C0828CED35460BDE8F08141617047B8
:1018E0000161704700BFFEE770B505460E46002453
:1018F00000F032F9284600F0F7F8641C00F084F993
:10190000304600F0F1F8641C00F07EF900F024F994
:10191000691CC8B200F0E8F8641C00F075F90020FA
:1019200000F0ACF8044600F04BF9204670BD000012
:1019300010B54FF400610948FFF7D2FF4FF4806102
:101940000648FFF7CDFF4FF400610448FFF7C6FFDC
:101950004FF480610148FFF7C1FF10BD000C01404A
:1019600010B54FF480610748FFF7BAFF4FF40061EC
:101970000448FFF7B3FF4FF400610248FFF7B0FFE0
:1019800010BD0000000C014010B54FF48061044808
:10199000FFF7A6FF4FF480610148FFF79FFF10BDDE
:1019A000000C014010B500200E4908600E48006888
:1019B00020F070400C4908600846006840F0405034
:1019C000086000200949C1F89C0100F011F80120CD
:1019D0000449086000F00CF800200449C1F898019F
:1019E00010BD000098812142000C0140008021427E
:1019F00010B5022001F03EFD10BD000008B5012128
:101A0000082000F033FCC020ADF8000010208DF855
:101A1000030003208DF8020069460448FFF7D3FE57
:101A2000C0210248FFF75CFF08BD0000000C014028
:101A300010B500200E4908600E48006820F0704084
:101A40000C4908600846006840F0405008600120DA
:101A50000949C1F89C01FFF7CBFF01200449086048
:101A6000FFF7C6FF00200449C1F8980110BD00002F
:101A700098812142000C01400080214270B505464A
:101A800000241648006820F0704014490860084699
:101A9000006840F000400860002614E00020104973
:101AA0000860FFF7A5FF01200E49C1F89801600604
:101AB000040E0B487C38006808B1601CC4B2FFF704
:101AC00097FF701CC6B2082EE8DB15B9FFF7B0FF10
:101AD00001E0FFF767FF204670BD0000000C0140E9
:101AE000988121420080214270B504461748006861
:101AF00020F07040154908600846006840F04050EA
:101B0000086000201249086000251BE0E00920B1B0
:101B100001200F49091D086003E000200C49091D40
:101B200008606006040EFFF763FF012008490860A3
:101B3000FFF75EFF00200749C1F89801FFF758FF43
:101B4000681CC5B2082DE1DB70BD0000000C01402F
:101B5000988121420080214210B51648006820F08B
:101B60007040144908600846006840F04050086022
:101B70000120114908601148D0F81C0108B9002063
:101B800010BD01200C49091F0860FFF731FF00203C
:101B90000A49C1F89C0108488038006808B1002053
:101BA000EEE7FFF725FF00200349091F0860012029
:101BB000E6E70000000C01409C81214200802142A8
:101BC00010B50E48006820F070400C4908600846C7
:101BD000006840F040500860002009490860094949
:101BE000C1F89C01FFF704FF012005490860054981
:101BF000C1F89C01FFF7FCFE10BD0000000C014085
:101C0000988121420080214210B5002415480068C7
:101C100020F07040134908600846006840F000401A
:101C20000860012010490860FFF7E2FE01200F491B
:101C3000C1F89801FFF7DCFE09E0601CC4B2642C17
:101C400003DDFFF7BDFF002010BDFFF7D1FE064802
:101C5000803800680028F0D10349091F086001207E
:101C6000F2E70000000C01409C81214200802142EB
:101C700070B505460E46144631462846FFF734FE39
:101C80002070012070BDF8B506460F4614461D466B
:101C90006A4639463046FFF7EBFF2DB10120A040E0
:101CA0009DF80010084305E00120A0409DF80010B9
:101CB00021EA0000C0B200909DF80020394630466D
:101CC00000F036F8F8BD2DE9F8430746884614467B
:101CD0001D46089E6A4641463846FFF7C9FF28B3AD
:101CE000601CFF2101FA00F0C4F108012944491EDB
:101CF000FF220A41104300F0FF09C5F1080006FA6F
:101D000000F0C6B2C4F1070006419DF8000000EAE9
:101D1000090000909DF80000304300909DF80020DD
:101D20004146384600F004F8BDE8F8830020FBE7A0
:101D300037B504460D4602AB01222946204600F085
:101D400001F83EBD2DE9F04180460D4616461F467E
:101D50000024FFF701FF4046FFF7C6FEFFF754FFE0
:101D60002846FFF7C1FEFFF74FFF00BF06E0385DD2
:101D7000FFF7BAFEFFF748FF601CC4B2B442F6DBBF
:101D8000FFF71EFF0120BDE8F08110B5022000F032
:101D900010F8032000F021F8002000F014F80020D3
:101DA00000F037F8002000F02BF8002000F01FF8BA
:101DB00010BD38B50446032302226B21D0200094C5
:101DC000FFF781FF38BD38B50446022304221C21E9
:101DD000D0200094FFF777FF38BD38B504460223C2
:101DE00004221B21D0200094FFF76DFF38BD10B5F1
:101DF0000446234601223721D020FFF744FF10BDBF
:101E000010B50446234605226A21D020FFF73BFF88
:101E100010BD10B50446234606226B21D020FFF7E3
:101E200032FF10BD00BFFEE77047000070B5002113
:101E300000230F22C47804B3154C246804F4E06432
:101E4000C4F5E064210AC1F10403CA40447804FAED
:101E500003F184781440214309010E4C0678A15502
:101E6000047804F01F050124AC4005786D11AD0025
:101E700005F1E025C5F8004109E0047804F01F05EC
:101E80000124AC40044D0678761145F8264070BD1B
:101E90000CED00E000E400E080E100E070B500241B
:101EA0000CE0002506E00020074901EBC5010855BC
:101EB000681CC5B2802DF6DB601CC4B2082CF0DBB8
:101EC00000F0E2F870BD0000AC00002070B50B46D9
:101ED000CE1701EB5676C6F3C702CE1701EB567646
:101EE000F610A1EBC606F4B20123A340DDB20E4BFF
:101EF00003EBC0039B5CDB430B4E06EBC006B35405
:101F0000094B03EBC0039B5C2B43074E06EBC0065B
:101F1000B354054B03EBC0039B5CDB43024E06EB63
:101F2000C006B35470BD0000AC00002070B50A4676
:101F3000CE1701EB5676C6F3C703CE1701EB5676E4
:101F4000F610A1EBC606F4B20122A240D5B2054AB2
:101F500002EBC002D25C2A43024E06EBC006F254EA
:101F600070BD0000AC00002008B50121082000F081
:101F70007DF94FF44060ADF8000010208DF80300AB
:101F800003208DF8020069463E48FFF71CFC4FF421
:101F900040613C48FFF7A4FCC82001F045FA00214D
:101FA000AE2000F036F90021084600F032F9002199
:101FB000102000F02EF90021402000F02AF9002125
:101FC000812000F026F90021CF2000F022F9002125
:101FD000A12000F01EF90021C82000F01AF900210C
:101FE000A62000F016F90021A82000F012F9002127
:101FF0003F2000F00EF90021D32000F00AF9002163
:10200000084600F006F90021D52000F002F9002171
:10201000802000F0FEF80021D92000F0FAF800211D
:10202000F12000F0F6F80021DA2000F0F2F80021AB
:10203000122000F0EEF80021DB2000F0EAF8002189
:10204000402000F0E6F80021202000F0E2F8002116
:10205000022000F0DEF800218D2000F0DAF80021E7
:10206000142000F0D6F80021A42000F0D2F80021BE
:10207000A62000F0CEF80021AF2000F0CAF8FFF74C
:102080000DFF08BD000C014070B500241CE004F1F8
:10209000B001C8B2002100F0BCF80021084600F0F1
:1020A000B8F80021102000F0B4F8002508E0084935
:1020B00001EBC501085D012100F0ABF8681CC5B259
:1020C000802DF4DB601CC4B2082CE0DB70BD000086
:1020D000AC0000202DE9FF4F81B080460E461C4623
:1020E00000962046E31704EB5373DB1021464FEABA
:1020F000E47C04EB5C7C4FEAEC0CA4EBCC0CBCF174
:10210000000F02D04FF0010C01E04FF0000C6344CF
:10211000224604EBD27C4FEA6C0C03FB0CF303F079
:10212000FF0B03982038C7B2002547E00C2C07D1DD
:1021300007EB4700234901EB800010F805A014E0ED
:10214000102C05D1204800EB071010F805A00CE07A
:10215000182C07D107EBC7001C4901EB800010F8D1
:1021600005A002E005B0BDE8F08F4FF000091FE0C8
:102170000AF0800020B131464046FFF7D7FE03E069
:1021800031464046FFF7A2FE4FEA4A604FEA106A26
:10219000701CC6B20098301AA04205D1009E08F10A
:1021A000010000F0FF0806E009F1010000F0FF095E
:1021B000B9F1080FDCDB00BF681CC5B25D45B5DBBB
:1021C00000BFCFE71E7A0008927E000882840008D4
:1021D000F0B506460F4614461D4613E022782B46FE
:1021E00039463046FFF776FF284605EBD07106EBFF
:1021F0006101CEB2C5F18000B04202DA0026B81CFF
:10220000C7B2641C2078202802DB20787E28E5DD18
:10221000F0BD70B505460C46FFF78AFB782000F04C
:10222000CFF9FFF7B1FB1CB1402000F0C9F902E083
:10223000002000F0C5F9FFF7A7FB284600F0C0F921
:10224000FFF7A2FBFFF78CFB70BD704729B1064A70
:10225000D2690243044BDA6104E0034AD269824343
:10226000014BDA61704700000010024029B1064AB4
:1022700092690243044B9A6104E0034A92698243E3
:10228000014B9A61704700000010024030B50021F8
:102290000022002400232D4D6D6805F00C0121B1B2
:1022A000042905D0082923D105E0294D056022E045
:1022B000274D05601FE0254D6D6805F47012234D14
:1022C0006D6805F48034022505EB92421CB9214D5E
:1022D000554305600BE01D4D6D6805F400351DB1DB
:1022E0001C4D5543056002E0194D5543056002E061
:1022F000174D056000BF00BF144D6D6805F0F0017B
:102300000909154D6B5C0568DD4045600F4D6D6832
:1023100005F4E061090A104D6B5C4568DD4085609D
:102320000A4D6D6805F46051C90A0B4D6B5C456838
:10233000DD40C560054D6D6805F44041890B074DD2
:102340006B5CC568B5FBF3F5056130BD001002405C
:1023500000127A0000093D0020000020300000201B
:102360002DE9F04F91B00446894692460EA88B495C
:102370000FAB0AAACDE9001089498A4801F022FA78
:102380008648008800F4807000287DD00A9804F008
:10239000D5FA05464FF09D4104F09EF98249086048
:1023A0000B9804F0CBFA05464FF09D4104F094F9E8
:1023B0007E4908600C9804F0C1FA05464FF09D4133
:1023C00004F08AF97A4908600D9804F0B7FA0546D6
:1023D0004FF09D4104F080F9764908607248016829
:1023E0004FF0804004F00AFB0590714801680598A1
:1023F00004F004FB83466D4801684FF0404004F050
:10240000FDFA05906B480168059804F0F7FA594603
:10241000069004F0F3F8079004F0C4F8CDE9080141
:1024200000F098FC07464FF06632634B03F0E0FD86
:10243000054603F05BFB20605D4801684FF080407B
:1024400004F0DCFA02905A480168029804F0D6FAC7
:102450008346564801684FF0404004F0CFFA02909E
:1024600052480168029804F0C9FA5946039004F0F2
:10247000C3FB80464FF07E5104F0C0F8074604F0DD
:1024800091F8CDE9060100E084E0474801684FF08B
:10249000804004F0B3FA039044480168039804F0C4
:1024A000ADFA8046424801684FF0804004F0A6FA39
:1024B000039040480168039804F0A0FA834641461F
:1024C00004F09CF8074604F06DF8CDE90401DDE95D
:1024D000062300F087FE4FF06632374BCDE9080146
:1024E00003F086FD054603F001FBC9F80000314802
:1024F0000168006804F082FA04902D4801680068C1
:1025000004F07CFA029029480168006804F076FA29
:10251000019025480168006804F070FA0090019964
:1025200004F06CF88346029904F066FB039004996A
:1025300004F062FB059004F035F805460E461D4890
:1025400001681948006804F059FA049018480168B5
:102550001648006804F052FA0390049904F04EF80B
:102560004FF08041059004F049FA834604F01AF8D0
:102570002A463346CDE9060100F034FE4FF06632BC
:102580000D4BCDE9080103F033FD074603F0AEFA29
:10259000CAF8000011B0BDE8F08F00004000002034
:1025A0003A000020340000204400002048000020B1
:1025B0004C0000205000002066A64C4070470000F0
:1025C00070B50446002520E04FF480611048FFF705
:1025D00085F904F0800028B14FF400610C48FFF742
:1025E0007FF904E04FF400610948FFF777F94FF4F1
:1025F00080610748FFF774F94FF480610448FFF7E2
:102600006DF96006040E681CC5B2082DDCDB70BDD8
:10261000000C014010B500F001F810BD0CB5002011
:10262000019000903348006840F4803031490860E0
:1026300000BF3048006800F4003000900198401C52
:102640000190009818B90198B0F5A06FF1D1294810
:10265000006800F4003010B10120009001E000207B
:1026600000900098012843D12348006840F01000F2
:10267000214908600846006820F003000860084609
:10268000006840F0020008601A4840681949486034
:102690000846406848600846406840F480604860EA
:1026A0000846406820F47C1048600846406840F4C2
:1026B000E81048600846006840F08070086000BF7D
:1026C0000C48006800F000700028F9D00948406804
:1026D00020F00300074948600846406840F00200C7
:1026E000486000BF0348406800F00C000828F9D19A
:1026F0000CBD00000010024000200240042808D158
:102700004FF0E021096941F004014FF0E02211612E
:1027100007E04FF0E021096921F004014FF0E022C9
:10272000116170477047000010B51348006840F011
:1027300001001149086008464068104908400E49E8
:102740004860084600680E4908400B490860084682
:10275000006820F4802008600846406820F4FE00ED
:1027600048604FF41F008860FFF754FF4FF000608F
:102770000449086010BD0000001002400000FFF88E
:10278000FFFFF6FE08ED00E07FB505460C4601218F
:102790000846FFF75BFDADF80850ADF80440002097
:1027A000ADF80A00ADF8060001A94FF0804000F036
:1027B00091F801224121880700F082F80121880761
:1027C00000F061F81C208DF8000000208DF8010059
:1027D00003208DF8020001208DF803006846FFF702
:1027E00025FB7FBD2DE9FF470121880700F057F841
:1027F00001281ED1124A13491348FFF7B1FD1048B2
:10280000006803F0CFFE04460D460E48006803F052
:10281000C9FE06460F460C48006803F0C3FE80461A
:1028200042460B4609A0CDE90067CDE90245FDF718
:1028300001FD0121880700F023F8BDE8FF870000B3
:102840000800002004000020000000200A0D20B82D
:10285000A9D1F6BDC73D252E32662020202020209C
:10286000BAE1B9F6BDC73D252E32662020202020D2
:1028700020C6ABBABDBDC73D252E3266200A0D006D
:10288000CA430282704721B1028842F001020280ED
:1028900004E002884FF6FE731A400280704730B59C
:1028A0000246002000230024158A05EA01039589C9
:1028B00005EA010413B10CB1012000E0002030BD95
:1028C0001AB183890B43838102E083898B4383811F
:1028D00070470000002202881D4B98420ED01D4B0D
:1028E00098420BD0B0F1804F08D01B4B984205D0D6
:1028F0001A4B984202D01A4B984204D14FF68F736C
:102900001A404B881A43174B984207D0164B9842EF
:1029100004D04FF6FF431A40CB881A4302808B88BD
:1029200083850B8803850A4B98420BD0094B98424C
:1029300008D00E4B984205D00D4B984202D00D4B5B
:10294000984201D10B7A03860123838270470000ED
:10295000002C014000340140000400400008004009
:10296000000C0040001000400014004000400140F6
:10297000004401400048014010B540F225511D4877
:1029800000F04AF810B31B4800F002F9C4B21A482C
:10299000008800F40040C8B91748008800F480405F
:1029A00060B10A2C03D000201349088020E01248AF
:1029B000008840F400401049088019E00D2C06D131
:1029C0000D48008840F480400B49088010E00A4818
:1029D0000088C0F30D0009490C5407480088401CCA
:1029E0000549088008460088C72801DD00200880C6
:1029F00010BD000000380140980000202C05002088
:102A000021B1828942F40052828104E082894DF62C
:102A1000FF731A408281704770B50246002400237C
:102A20000025002040F66A16B14200D100BFC1F374
:102A3000421501F01F03012606FA03F3012D02D10E
:102A40009689334006E0022D02D1168A334001E018
:102A5000968A33400C12012606FA04F41688344094
:102A600013B10CB1012000E0002070BDF0B50346A9
:102A7000002400260025002040F66A17B94200D144
:102A800000BF1846C1F3421401F01F06012707FAE0
:102A900006F5012C01D10C3004E0022C01D11030DC
:102AA00000E014301AB107682F43076002E007689E
:102AB000AF430760F0BD00002DE9F04786B0054642
:102AC0000E460024A24600BFA1460027B08900B1EF
:102AD00000BF2F462C8A4CF6FF700440F088044358
:102AE0002C82AC894EF6F3100440B088318908433B
:102AF000718908430443AC81AC8A4FF6FF4004401F
:102B0000B0890443AC8201A8FFF7C0FB1F4887428D
:102B100002D1DDF810A001E0DDF80CA0A88900F4D6
:102B2000004040B10AEBCA0000EB0A1031684900CE
:102B3000B0FBF1F807E00AEBCA0000EB0A103168BD
:102B40008900B0FBF1F86420B8FBF0F00401200923
:102B5000642101FB1089A88900F4004040B13220B3
:102B600000EBC900B0FBF1F000F00700044308E0FF
:102B7000322000EB09106421B0FBF1F000F00F00EF
:102B800004432C8106B0BDE8F08700000038014006
:102B900001468888C0F30800704700BFFEE749007F
:102BA00050EAC12018BF04204A0D18BF40F00100B0
:102BB00040F2FF72B2EB515F08BF40F00200012803
:102BC00008BF052070472DE9F0414F1E00EBC701FB
:102BD0000446D1E9000115461E4637F006020DD025
:102BE0002A46334603F004FA7F1E04EBC703D3E9F9
:102BF000002302F0ADFF37F00602F1D1022F25D0FD
:102C0000042F13D0062F18BFBDE8F0812A463346A3
:102C100003F0EEF9D4E90A2302F09AFF2A4633467C
:102C200003F0E6F9D4E9082302F092FF2A4633467E
:102C300003F0DEF9D4E9062302F08AFF2A46334680
:102C400003F0D6F9D4E9042302F082FF2A46334682
:102C500003F0CEF9D4E9022302F07AFF2A46334684
:102C600003F0C6F9D4E90023BDE8F04102F070BFDB
:102C7000012204F06AB802F06BBF0022134610462E
:102C8000114603F021B80000024A0020110704F0A9
:102C90005CB8000001FDFFFF30380A2801D2012096
:102CA000704700207047014600BF70472DE9FE4F76
:102CB00006460F460025684601F0EAF9002442E086
:102CC00056F8240057F82410A0EB010ABAF1000FBF
:102CD00001DB514601E0CAF10001084603F02EFE77
:102CE00083464FF08F4103F0F7FC80465DF82400E7
:102CF000002103F0B3FD16D05DF82410404603F028
:102D0000EBFC82464FF07E5103F076FF814629F0BE
:102D1000004A0F48416A504603F03CFF12D201209E
:102D2000A04005430EE00A48C169404603F032FE68
:102D300005D30748016A404603F02CFF02D2012068
:102D4000A0400543641C032CBADB2846BDE8FE8F77
:102D5000006E00082DE9F04D8D4F21F0004A86B03D
:102D600005460C46BA452ADBAAEB070028430AD0E1
:102D70008848824501DC1AD1CDB106B02846BDE8AD
:102D8000F04DFFF775BF844A844B284603F030F9B5
:102D900007460E46824A834B2846214603F028F90F
:102DA00006B03A463346BDE8F04D02F0D1BE0120F0
:102DB000FDF7D7FB06B0BDE8F04DFFF75EBF7A48E0
:102DC000824542DABAF1795F0BDA2846FFF7E7FE6F
:102DD000042808BFFFF758FF284606B02146BDE883
:102DE000F08D2A460B46104603F002F98346024650
:102DF0006E480E460B4606217844FFF7E4FE5A461D
:102E0000334603F0F5F8804669488A465A46334609
:102E100004217844FFF7D7FE5A46334603F0E8F81A
:102E200000223B4602F094FE02460B4640465146C5
:102E300002F04AFF2A46234603F0DAF806B02A4693
:102E40002346BDE8F04D02F083BE284624F0004141
:102E500000223D463B4603F0C9F94FF0FF3203F034
:102E600074FF0646024653480F460B460621784437
:102E7000FFF7A9FE32463B4603F0BAF8CDE9000160
:102E80004D4832463B4604217844FFF79CFE3246CB
:102E90003B4603F0ADF800222B4602F059FE834674
:102EA00002913046394602F095FD804643480D4672
:102EB000504517DCDDE900015A46029B02F004FF91
:102EC00042462B4603F094F842462B4602F040FE61
:102ED000012203F03AFF304A304B03F079FA304ACE
:102EE000304B4CE04FF0000A52460B46404602F091
:102EF0002FFECDE9031052462B461046194603F02B
:102F000077F832463B4603F071F9DDE9033202F00F
:102F1000DBFE06460F46DDE900015A46029B02F041
:102F2000D3FE8346009101223046394603F00DFF5F
:102F3000194A1A4B03F05AF906460F460122404639
:102F4000294603F002FF5A46009B03F051F832462F
:102F50003B4603F03DFA06460F46012250462946FD
:102F600003F0F3FE0E4DDFF858802A46434603F087
:102F70003DF932463B4603F039F92A46434603F011
:102F800035F9002CD8BF81F0004106B0BDE8F08DC6
:102F90000000F03F0000F07F075C143326A6913C50
:102FA000182D4454FB21F93F0000E03F0466000067
:102FB0001A6600008E650000A46500003333EF3F01
:102FC000FB21E93F2DE9F84F04460D4621F0004072
:102FD00000917349814211DC7249884201DC06D1BB
:102FE0002CB120462946BDE8F84FFFF741BE6E4898
:102FF000002DCCBF6D496E49BDE8F88F6D49814207
:1030000011DD6D498142D8BF4FF0FF366DDD20469E
:103010002946FFF7C4FD042808BFFFF735FE204608
:103020002946BDE8F88F6549654F25F00045814286
:1030300033DD6449814219DD002632464FF080437A
:103040002046294602F084FD80468A460122204619
:10305000294603F07AFE00223B4603F0B9F94246C6
:10306000534602F031FE04460D463EE001260022A2
:10307000BA463B462046294602F06AFD80460F4686
:10308000002253462046294603F0A2F942463B4619
:1030900002F01AFE04460D4627E04B4981421BDD33
:1030A000DFF828A10226002253462046294602F0D6
:1030B0009FFF00223B4602F04BFD80460F46002258
:1030C00053462046294603F083F942463B4602F028
:1030D000FBFD04460D4608E0032622462B46002051
:1030E0003B4902F0F1FD04460D4622462B461046B0
:1030F000194602F07DFF8B46824602460B4602F0DF
:1031000077FF07460246334888460B460621784437
:10311000FFF759FD52465B4602F06AFF82462E4891
:103120008B463A46434605217844FFF74CFD3A4624
:10313000434602F05DFF02460B46002E50465946BC
:103140000CDA02F005FD22462B4602F051FF01B0D9
:1031500022462B46BDE8F04F03F048B802F0F8FCD9
:1031600022462B4602F044FF1C4A7A4402EBC60377
:10317000D3E9002303F02CF922462B4603F028F96B
:10318000174A7A4402EBC603D3E9002303F02EF872
:10319000009A002AB8BF81F00041BDE8F88F000016
:1031A000000010440000F07F182D4454FB21F93F2B
:1031B000FB21F9BF0000DC3F0000203E0000F33F90
:1031C0000000F03F0000E63F008003400000F83FB1
:1031D0000000F0BFA663000064630000026300000B
:1031E000CA6200002DE9F04D9446CCF1000423F0B2
:1031F00000464CEA0404594F46EAD4749A4688467D
:1032000021F00042BC4206D8454240EA050442EAA9
:10321000D474BC4204D9BDE8F04D6246FFF72BBD23
:10322000AAF14055A5F17F6555EA0C040BD00224A4
:1032300004EAAA744A4DDFF82CE144EAD87452EA51
:10324000000B04D00CE0BDE8F04DFFF7BBBE002C36
:1032500014BF012CBDE8F08D022C30D0032C32D0ED
:1032600056EA0C0B0AD0BE4220D1BA4209D126F050
:10327000804622F080423346114617E000291ADBCF
:1032800025E0DFF8E4B0FB44002C04BFDBE90001DB
:10329000BDE8F08D012C02BFDBE9000181F00041A7
:1032A000BDE8F08D022C0AD0032C0CD0BA4212D10A
:1032B000B8F1000F0BDA2A482C49BDE8F08D2846FA
:1032C0002B49BDE8F08D28467146BDE8F08D2448B5
:1032D0002849BDE8F08D921B12153C2AC4BF204F2F
:1032E000244E10DCBAF1000FBEBF12F13C0F0027D4
:1032F0003E4608DB624602F0E7FC21F00041FFF7A2
:1033000061FE07460E4694B1012C08BF86F00046C8
:103310000DD0194A194B022C3846314615D003F00E
:1033200057F82A46BDE8F04D114B03F051B8002282
:1033300013463846314602F01FFE04BF0220FDF757
:1033400010F938463146BDE8F08D03F041F82A46C1
:10335000BDE8F04D064B02F049BF00000000F07FD1
:10336000182D4454FB2109C05E620000FB21F9BF07
:10337000FB210940FB21F93F075C143326A6A13C41
:103380002DE9F0410446E07800F0C006E07800F056
:103390003F05607800F0010098B1EF102846E9176A
:1033A00005EB5171C910A5EBC101491C01F0FF08E3
:1033B0000B48006820B10A484146026838469047E9
:1033C00000BF607800F0080030B10548406818B1CF
:1033D000B011034A516888470020BDE8F081000021
:1033E0009C00002010B56FF00400FFF787F90A4831
:1033F00000680A49B0FBF1F00949087008460078F6
:1034000000EB4001C1EBC0104FF6FF7101EAC000B4
:103410000449088010BD00000C00002000127A0052
:1034200090000020920000200146114A12884A4371
:103430004FF0E0235A6100229A611A46126942F065
:1034400001021A6100BF4FF0E022106900F0010292
:103450001AB100F48032002AF5D04FF0E022126950
:1034600022F001024FF0E0231A6100229A617047B6
:10347000920000200146114A12784A434FF0E0239F
:103480005A6100229A611A46126942F001021A61D9
:1034900000BF4FF0E022106900F001021AB100F401
:1034A0008032002AF5D04FF0E022126922F00102AA
:1034B0004FF0E0231A6100229A61704790000020CB
:1034C00038B5044664B120208DF8000028208DF81E
:1034D000010030208DF8020038208DF8030004E050
:1034E000A32204216846FCF7B4FF6A46042140F693
:1034F0009E2002F087F901F077FD38BD3EB5044605
:1035000002208DF80000CA208DF80100E3208DF81C
:10351000020009208DF803006A460421682002F0A9
:1035200071F9A3208DF8000004F0400048B1C020DC
:103530008DF80100C8208DF80200C2208DF803002C
:1035400006E0A3208DF801008DF802008DF803003D
:1035500004F4C07048B1C4208DF80400CC208DF86C
:103560000500C6208DF8060006E0A3208DF80400B3
:103570008DF805008DF80600A3208DF807008DF862
:1035800008008DF809006A460A2140F6A72002F0DB
:1035900039F904F0030018B120208DF8000002E092
:1035A000D8208DF800006A46012140F6B62002F0CE
:1035B00029F904F0200018B1012000F0ADF802E074
:1035C000002000F0A9F804F4C07008B304F480707F
:1035D00060B1B2208DF800008B208DF80100B6207C
:1035E0008DF802009B208DF803000BE0B0208DF8D1
:1035F000000080208DF80100B4208DF8020090209A
:103600008DF803006A46042140F6A22002F0FAF881
:1036100004F0010020B3F8208DF800006A46012173
:103620004FF40B6002F0EEF8FA21072000F02CFCBA
:10363000072000F0F3FB012000F013FC642000F0F1
:10364000F3FC4FF4FA7000F002FDC821304800F09E
:10365000A3FB282000F0BCFB0A2000F0CCFB08E014
:10366000D8208DF800006A4601214FF40B6002F06B
:10367000C9F804F0020018B1D9208DF8000002E06A
:10368000D8208DF800006A46012140F23D7002F01A
:10369000B9F804F0040018B1012000F069F802E064
:1036A000002000F065F804F0100018B10120FFF7C9
:1036B00007FF02E00020FFF703FF44F00800154970
:1036C000488101F091FC00201249887304F0400009
:1036D00018B10846807B801D887304F4C07020B147
:1036E0000C48807B801D0B49887304F0140020B1C6
:1036F0000848807B10300749887304F0030020B12C
:103700000448807B001D0349887300203EBD0000F3
:1037100009E3CA029C0000203EB504466CB10EA12C
:10372000D1E900208968CDE9002002916A4609218B
:103730004FF4976002F066F83EBD0AA2D2E900108D
:103740009268CDE9010200916A4609214FF4976021
:1037500002F058F8F0E70000B8AAB38DB4980D3520
:103760005D000000B8AAAAAAB088C3C5C7000000BF
:1037700038B5044664B1C0208DF80000C2208DF831
:103780000100C4208DF80200C6208DF8030004E07B
:103790008B2204216846FCF75CFE6A46042140F651
:1037A000982002F02FF801F01FFC38BD10B5C82397
:1037B0004FF48062024940F6F63001F0A9FA10BDDC
:1037C000286E00082DE9F04F8DB007468846154653
:1037D0009946DDE9166B0024002030806B49887B18
:1037E0005A4605A901F060FB18B1601E0DB0BDE896
:1037F000F08F6648807A00F01400002867D09DF8AA
:10380000140000069DF8151040EA01409DF81610BE
:1038100040EA01209DF81710084328609DF8180021
:1038200000069DF8191040EA01409DF81A1040EA80
:1038300001209DF81B10084368609DF81C000006DD
:103840009DF81D1040EA01409DF81E1040EA01203D
:103850009DF81F100843A8609DF8200000069DF801
:10386000211040EA01409DF8221040EA01209DF815
:1038700023100843E86004F11000C4B22868001463
:103880000190686800140290A86800140390E8682A
:103890000014049001984043029901FB0100039930
:1038A00001FB0100049901FB010ABAF1706F02DB10
:1038B000BAF1885F05DD01F097FB00203080401EE3
:1038C00094E7B6F9000040F48070308000BF2F48C4
:1038D000807A00F0400020B305A9601C085C095DF7
:1038E00040EA012000B2A8F8000005A9E01C095C2C
:1038F00005AAA01C105C41EA002000B2A8F8020052
:1039000005A9601D095C201D105C41EA002000B281
:10391000A8F80400A01DC4B2B6F9000040F00800E9
:1039200030801A48408900F4C07008B305A9601CB3
:10393000085C095D40EA012000B2388005A9E01C5E
:10394000095C05AAA01C105C41EA002000B2788046
:1039500005A9601D095C201D105C41EA002000B231
:10396000B880A01DC4B2B6F9000040F070003080ED
:103970000648807A00F0030018B105A90819FFF77E
:10398000FFFC484601F07EFF00202FE79C0000204E
:1039900070B588B0064601A801F00EF8BDF8040025
:1039A0000021C90341EA5045C4034448007A00F0AD
:1039B000030056F8200005904048007A00F004000B
:1039C00010B10598404205903C48007AC0F3C10010
:1039D00056F8200006903948007A00F0200010B117
:1039E0000698404206903548007AC0F3811056F898
:1039F000200007903148008900F4807010B10798CA
:103A0000404207900598C117A0FB042301FB043135
:103A100000FB0510810041EA927005900698C117DD
:103A2000A0FB042301FB043100FB0510810041EAE7
:103A3000927006900798C117A0FB042301FB043184
:103A400000FB0510810041EA927007900598000E76
:103A50008DF808000598000C8DF809000598000AFB
:103A60008DF80A000598C0B28DF80B000698000E7C
:103A70008DF80C000698000C8DF80D000698000AD1
:103A80008DF80E000698C0B28DF80F000798000E52
:103A90008DF810000798000C8DF811000798000AA7
:103AA0008DF812000798C0B28DF8130002AA0C21FD
:103AB0004FF4257001F0A6FE08B070BD9C000020F8
:103AC00030B585B0044616A207CA02AB07C3C82C9E
:103AD00003DD4FF0FF3005B030BDC82090FBF4F09F
:103AE000401E85B2280A8DF80000E8B28DF801006A
:103AF0006A46022140F2162001F084FE10B14FF018
:103B0000FF30E8E702AA0C2140F6C12001F07AFE5E
:103B100010B14FF0FF30DEE7044884810020DAE77F
:103B2000FEF2ABC4AAF1DFDFBBAFDFDF9C000020F9
:103B30001FB504464848007A00F0030054F82000FE
:103B400001904548007A00F0040010B1019840420D
:103B500001904148007AC0F3C10054F8200002905F
:103B60003D48007A00F0200010B1029840420290D7
:103B70003948007AC0F3811054F820000390364889
:103B8000008900F4807010B10398404203903349DB
:103B9000019880FB0101800F40EA810001902F49CC
:103BA000029880FB0110820042EA917002902B493A
:103BB000039880FB0110820042EA91700390019803
:103BC000000E8DF800000198000C8DF8010001989E
:103BD000000A8DF802000198C0B28DF803006A4611
:103BE00004214FF4747001F00DFE18B14FF0FF3056
:103BF00004B010BD0298000E8DF800000298000C71
:103C00008DF801000298000A8DF802000298C0B2F7
:103C10008DF803006A4604214FF4757001F0F2FD3F
:103C200010B14FF0FF30E3E70398000E8DF800006D
:103C30000398000C8DF801000398000A8DF802002B
:103C40000398C0B28DF803006A4604214FF47670E1
:103C500001F0D8FDCCE700009C00002009E3CA0277
:103C600010B586B0044647A00068039046A00068DF
:103C7000029046A00068019045A00068009004F002
:103C8000030003A9085C8DF8140003A8C4F3C10164
:103C9000405C8DF8150003A8C4F38111405C8DF8D9
:103CA000160004F0030002A9085C8DF8100002A8B9
:103CB000C4F3C101405C8DF8110002A8C4F3811166
:103CC000405C8DF8120005AA032140F2264001F065
:103CD00099FD18B14FF0FF3006B010BD04AA0321C2
:103CE00040F22A4001F08EFD10B14FF0FF30F3E7B3
:103CF000019805900098049004F0040058B19DF8D4
:103D0000140040F001008DF814009DF8100040F000
:103D100001008DF8100004F0200058B19DF8150046
:103D200040F001008DF815009DF8110040F00100F1
:103D30008DF8110004F4807058B19DF8160040F021
:103D400001008DF816009DF8120040F001008DF87A
:103D5000120005AA03214FF4886001F053FD10B151
:103D60004FF0FF30B8E704AA032140F2314001F0E0
:103D700049FD10B14FF0FF30AEE706480481002046
:103D8000AAE700004CCD6C000CC92C00365676001A
:103D9000264666009C000020F8B505460E464FF406
:103DA0007A7095FBF0F000FB06F4200E8DF8000011
:103DB000200C8DF80100200A8DF80200E0B28DF889
:103DC00003006A4604214FF4AE7001F01BFDF8BDFC
:103DD00038B50446052094FBF0F084B220128DF82B
:103DE0000000E0B28DF801006A4602214FF4AD7088
:103DF00001F008FD38BD38B50446052094FBF0F00D
:103E000084B220128DF80000E0B28DF801006A46FD
:103E100002214FF4AC7001F0F5FC38BD38B5044612
:103E20000020009004F0010020B19DF8000040F057
:103E30003000009004F0020020B19DF8000040F036
:103E40000C00009004F0040020B19DF8000040F048
:103E5000030000906A4601214FF4A47001F0D2FCE7
:103E600038BD38B50446012C01DA012402E0042CE7
:103E700000DD0424601EC0B200906A46012140F2B9
:103E80004F1001F0BFFC38BD2DE9FC4706460F4638
:103E900006F0070010B1B7F5C86F03DD4FF0FF3033
:103EA000BDE8FC87384602F061FD8146594902F0C1
:103EB00013FC8046684600F059FD9DF8000002287A
:103EC00006D0042816D0082826D0102848D135E07E
:103ED0004FF08D41404602F091FD814602F00EFD0B
:103EE00084B24D49404602F089FD814602F006FD4C
:103EF00085B238E04FF08C41404602F07FFD8146AC
:103F000002F0FCFC84B24549404602F077FD814650
:103F100002F0F4FC85B226E04FF08B41404602F0FF
:103F20006DFD814602F0EAFC84B23D49404602F054
:103F300065FD814602F0E2FC85B214E04FF08A4153
:103F4000404602F05BFD814602F0D8FC84B2354960
:103F5000404602F053FD814602F0D0FC85B202E0FB
:103F60004FF0FF309CE700BF20128DF80400E0B254
:103F70008DF8050028128DF80600E8B28DF80700CC
:103F800006F00100A0B101AA02214FF4EA7001F08D
:103F900039FC10B14FF0FF3082E70DF1060202212B
:103FA0004FF4927001F02EFC10B14FF0FF3077E724
:103FB00006F00200A0B101AA02214FF4EC7001F05A
:103FC00021FC10B14FF0FF306AE70DF1060202212B
:103FD0004FF4947001F016FC10B14FF0FF305FE722
:103FE00006F00400A0B101AA02214FF4EE7001F026
:103FF00009FC10B14FF0FF3052E70DF1060202212B
:104000004FF4967001F0FEFB10B14FF0FF3047E720
:10401000002045E700004843000040460000C0453E
:10402000000040450000C04438B50446052094FB1C
:10403000F0F085B228128DF80000E8B28DF801008A
:104040006A4602214FF4EF7001F0DCFB38BD38B551
:104050000446052094FBF0F085B228128DF800008C
:10406000E8B28DF801006A4602214FF4ED7001F0CC
:10407000C9FB38BD00BF054A128802F04002002A81
:10408000F9D0C2B2014B1B1D1A80704700380140A5
:104090007CB5054628494968087801AB04220D2102
:1040A00000F00EFB08B107207CBD9DF80700C0F3AF
:1040B00001109DF8041001F0E00140EAE1008DF8E4
:1040C00000009DF80700C0F381009DF8051001F085
:1040D000E00140EAE1008DF801009DF8070000F0E2
:1040E00003009DF8061001F0E00140EAE1008DF8C0
:1040F000020000241CE01DF8040018B9002045F857
:10410000240013E00D4845F8240006E055F824008B
:104110000B4902F073FC45F824001DF80400401E12
:10412000C0B20DF804000028F0D100BF601CC4B27A
:10413000032CE0DB0020B7E7640000207B14AE3ED8
:104140001D5A843F2DE9F04F87B005460C46914635
:1041500001208DF8100000208DF81100FE4A126831
:10416000917CFD4A5268107804AB022200F0E3FA19
:1041700020B14FF0FF3007B0BDE8F08FC820FFF747
:1041800053F900208DF81000F34A1268D17BF24AEF
:104190005268107804AB012200F0CDFA10B14FF054
:1041A000FF30E8E7EC4A12685179EB4A5268107820
:1041B00004AB012200F0BFFA10B14FF0FF30DAE794
:1041C000E54A1268917CE44A5268107804AB0122F7
:1041D00000F0B1FA10B14FF0FF30CCE7DE4A1268C0
:1041E000D17DDD4A5268107804AB012200F0A3FAB9
:1041F00010B14FF0FF30BEE7D74A12681179D64AA6
:104200005268107804AB012200F095FA10B14FF01B
:10421000FF30B0E70C208DF81000CF4A12681179FA
:10422000CD4A5268107804AB012200F084FA10B134
:104230004FF0FF309FE70F20FFF7F6F8C648806A7F
:10424000407A8DF81000C44A12689178C24A5268C8
:10425000107804AB012200F06EFA10B14FF0FF307D
:1042600089E7BD48806A007A8DF81000BA4A126862
:104270005178B94A5268107804AB012200F05BFA19
:1042800010B14FF0FF3076E7B9F1000F07D0B24818
:10429000806A807A40F0E0008DF8100004E0AE48BB
:1042A000806A807A8DF81000AB4A12689179AA4A28
:1042B0005268107804AB012200F03DFA10B14FF0C3
:1042C000FF3058E7B9F1000F07D0A348806AC07AE1
:1042D00040F0E0008DF8100003E0A048C07A8DF8AF
:1042E00010009D4A1268D1799B4A5268107804AB3D
:1042F000012200F020FA10B14FF0FF303BE7B9F196
:10430000000F02D0C820FFF78FF840208DF8100072
:10431000914A12681179904A5268107804AB0122D0
:1043200000F009FA10B14FF0FF3024E778208DF843
:104330001000894A12685179874A5268107804AB94
:10434000012200F0F8F910B14FF0FF3013E7834974
:104350008889FFF769F800208DF810007E4A1268FE
:1043600051797D4A5268107804AB012200F0E3F9DC
:1043700010B14FF0FF30FEE6774A1268917A764A24
:104380005268107804AB022200F09AF910B14FF095
:10439000FF30F0E69DF811009DF8101040EA012B67
:1043A0000C209BFBF0F0C6B20020A860686028607B
:1043B000A06060602060824665E0674A1268D17A3A
:1043C000654A5268107804AB0C2200F079F910B1FC
:1043D0004FF0FF30CFE69DF811009DF8101040EA35
:1043E000012000B2ADF808009DF813009DF81210EE
:1043F00040EA012000B2ADF80A009DF815009DF8D2
:10440000141040EA012000B2ADF80C00BDF908100C
:10441000206808442060BDF90A10606808446060A4
:10442000BDF90C10A0680844A0609DF817009DF825
:10443000161040EA012000B2ADF800009DF8190006
:104440009DF8181040EA012000B2ADF802009DF876
:104450001B009DF81A1040EA012000B2ADF80400DC
:10446000BDF90010286808442860BDF9021068688A
:1044700008446860BDF90410A8680844A8600AF1FF
:10448000010000F0FF0AB24597DB3448D0F800C0C5
:104490002868C117090441EA104107046246002355
:1044A0003846FBF7A2FE32460023CDE90201FBF7B6
:1044B0009CFE28602948D0F800C06868C11709042C
:1044C00041EA10410704624600233846FBF78DFE9F
:1044D00032460023CDE90201FBF787FE68601F48E2
:1044E000D0F800C0A868C117090441EA10410704C8
:1044F000624600233846FBF778FE32460023CDE9BA
:104500000201FBF772FEA8601448D0F804C02068CE
:10451000C117090441EA10410704624600233846E6
:10452000FBF763FE32460023CDE90201FBF75DFE97
:1045300020600A48D0F804C06068C117090441EA45
:1045400010410704624600233846FBF74EFE324610
:104550000023CDE9020103E064000020006E0008A2
:10456000FBF743FE60601148D0F804C0A068C11793
:10457000090441EA10410704624600233846FBF76C
:1045800034FE32460023CDE90201FBF72EFEA06087
:10459000A068002804DDA068A0F58030A06003E0DA
:1045A000A06800F58030A0600020E4E5006E0008FF
:1045B0002DE9FC5F06460F4600253D49496808780D
:1045C00001AB03220D2100F07BF810B10720BDE8FC
:1045D000FC9F9DF8040000F01F008DF804009DF87A
:1045E000050000F01F008DF805009DF8060000F0A2
:1045F0001F008DF80600002456E056F8240057F8F6
:104600002410A0EB010BBBF1000F01DB594601E0C8
:10461000CBF10001084602F091F94FF08F41009074
:1046200002F05AF8814601A8005D68B32149086884
:1046300002F09CF9834659461F4802F04DF8804627
:1046400004E01E49404602F0D9F9804601A8005D09
:10465000401EC0B201A908550028F2D14146484683
:1046600002F03AF883464FF07E5102F0C5FA8246D6
:104670002AF0004B0F488169584602F08BFA12D29B
:104680000120A04005430EE00A480169484602F0B7
:1046900081F905D307484169484602F07BFA02D206
:1046A0000120A0400543641C032CA6DB28468EE7AE
:1046B00064000020006E000800B04C4554E3853FC4
:1046C0002DE9F04106460F4614461D46FDF744FA13
:1046D00010B90120BDE8F0817106080EFDF704FA5B
:1046E000FDF792FA18B9FDF76BFA0120F2E73846A8
:1046F000FDF7FAF9FDF788FAFDF72EFA012101EB33
:104700004601C8B2FDF7F0F9FDF77EFA0DE0012C85
:1047100004D10020FDF7B2F9287003E00120FDF775
:10472000ADF928706D1C601EC4B2002CEFD1FDF7EE
:1047300047FA0020CEE72DE9F04105460E46174620
:104740009846FDF709FA10B90120BDE8F081690625
:10475000080EFDF7C9F9FDF757FA18B9FDF730FA59
:104760000120F2E73046FDF7BFF9FDF74DFA0024CE
:104770000BE018F80400FDF7B7F9FDF745FA18B992
:10478000FDF71EFA0020E0E7641CBC42F1DBFDF7F8
:1047900017FA0020D9E770B50546284600F00FF853
:1047A0000446E81C00F00BF844EAC00084B2A81DDF
:1047B00000F005F844EA801084B2204670BD01463E
:1047C00091F90020002A01DD00201EE091F900206F
:1047D000002A01DA042018E091F90120002A01DD05
:1047E000012012E091F90120002A01DA05200CE0F5
:1047F00091F90220002A01DD022006E091F9022051
:10480000002A01DA062000E0072070470EB50020DC
:10481000009001900290FEF7E5FD4FF4E13001F0C9
:10482000FFF8FDF7A1FB102326A200212820FDF7A9
:10483000CFFCFDF729FCFDF7E1F8FDF7A6FAFCF740
:10484000B9FE40F2CF2140F2CF70FDF79DFF38E076
:1048500040F2E730FEF7E8FD1C48006801F0A2FED8
:10486000044622460B461AA16846FBF7EFFC1023CC
:104870006A4619461846FDF7ABFC1848006801F077
:1048800091FE044622460B4615A16846FBF7DEFC66
:1048900010236A4620211846FDF79AFC1348006849
:1048A00001F080FE044622460B4611A16846FBF744
:1048B000CDFC10236A4630211846FDF789FCFDF730
:1048C000E3FBC5E74D505536303530000000002081
:1048D00050697463683A252E326600000400002097
:1048E000526F6C6C203A252E3266000008000020C2
:1048F00059617720203A252E3266000070B50446B3
:10490000002624F00104184890F8240008B1002083
:1049100070BD1548807A10B94FF0FF30F8E71248A3
:10492000057C807A2040104908740846007CA0422B
:1049300002D04FF0FF3600E0002614B90A48007D8F
:1049400018B1012000F0FEFF02E0002000F0FAFFA5
:104950003CB100F049FB20B1034805744FF0FF3033
:10496000D6E73046D4E70000640000200146114835
:10497000407A30B1012807D0022808D003280CD192
:1049800008E0022008700BE00420087008E008200E
:10499000087005E01020087002E04FF0FF3070470B
:1049A00000BF0448C07C18B108784006000E0870AB
:1049B0000020F4E76400002001461348407A30B13B
:1049C000012808D002280AD0032810D10BE04FF4A8
:1049D000804008800EE041F69C7008800AE04FF4A9
:1049E0008050088006E04FF40060088002E04FF03D
:1049F000FF30704700BF0448C07C10B108884010E9
:104A000008800020F5E7000064000020014602480D
:104A1000007C0870002070476400002001460F48A9
:104A2000007A30B1012807D0022809D003280FD11D
:104A30000AE0FA2008800EE04FF4FA7008800AE0DD
:104A40004FF47A70088006E04FF4FA60088002E0C4
:104A50000020088000BF00BF0020704764000020D5
:104A600001460E48007A30B1012807D0022808D04C
:104A700003280CD108E00A4808600BE009480860E8
:104A800008E00948086005E00848086002E04FF0C7
:104A9000FF30704700BF0020FBE7000064000020EB
:104AA0000000034300008342333303423333834126
:104AB00001461248C07A082817D2DFE800F0170430
:104AC000070A0D101318BC20088013E0622008802C
:104AD00010E02A2008800DE0142008800AE00A2057
:104AE000088007E00520088004E000BF00BF002028
:104AF000088000BF00BF0020704700006400002055
:104B00000146064890F8240010B14FF0FF3070477E
:104B10000248C08908800020F9E7000064000020F6
:104B20001CB580208DF80000654A1268917C644AAB
:104B3000526810786B460122FFF7FDFD10B14FF06F
:104B4000FF301CBD6420FEF76FFC00208DF80000D4
:104B50005B4A1268917C5A4A526810786B4601226F
:104B6000FFF7E9FD10B14FF0FF30EAE7544A126851
:104B7000917D534A526810786B460622FFF7A0FDDC
:104B800010B14FF0FF30DCE79DF80500C007400F83
:104B90009DF8031001F0010140EA41009DF8011069
:104BA00001F0010140EA010494B1012C03D101217B
:104BB0004348C17431E0022C03D100214048C17444
:104BC0002BE021463FA0FBF735FB4FF0FF30B8E765
:104BD0003B4A1268D1783A4A526810786B460122F3
:104BE000FFF76EFD10B14FF0FF30AAE79DF800000F
:104BF00000F00F042CB93D48FBF71CFB4FF0FF30D1
:104C00009FE7042C06D13AA0FBF714FB01212C48A6
:104C1000C17402E000212A48C174FF212848817232
:104C2000FF2027490872FF2125484172C1724FF6C3
:104C3000FF71C181FF21017481740121017380F82A
:104C40002210002180F82310417501751630016093
:104C500041608160163880F8241080F82510C184E6
:104C60004FF4FA6000F05CFC10B14FF0FF3068E7E1
:104C7000022000F025FB10B14FF0FF3061E72A2041
:104C800000F0C8FC10B14FF0FF305AE7322000F0BE
:104C900003FD10B14FF0FF3053E70020FFF72EFE69
:104CA00010B14FF0FF304CE7002000F04BFB10B18B
:104CB0004FF0FF3045E7002000F03CFD002040E7CA
:104CC00064000020556E737570706F727465642097
:104CD000736F6674776172652070726F6475637448
:104CE000207265762025642E0A0000008495000855
:104CF00048616C662073656E73697469766974794E
:104D0000207061727420666F756E642E0D0A00004B
:104D10002DE9F04385B005460E4690469946294850
:104D200090F8250020B14FF0FF3005B0BDE8F083CA
:104D300016B94FF0FF30F8E7002423E0281B1028B5
:104D400001DD102000E0281B87B2321939462046C9
:104D500000F058FD10B14FF0FF30E6E701AA3946E8
:104D6000204600F001F910B14FF0FF30DDE73019B7
:104D70003A4601A9FBF741FB10B16FF00100D4E7FF
:104D8000E01984B2AC42D9DB4FEA28208DF800004C
:104D900008F0FF008DF801000A4A1268917E094A66
:104DA000526810786B460222FFF7C5FC10B14FF035
:104DB000FF30BAE70121034880F82510A0F82690BB
:104DC0000020B2E76400002038B50446282C02DD3C
:104DD0004FF0FF3038BDDCB9002000F0E5FB0020CB
:104DE0008DF8000007208DF801002E4A1268917C92
:104DF0002C4A526810786B460222FFF79CFC10B1D7
:104E00004FF0FF30E6E70021264801750020E1E77A
:104E1000012000F0C9FB20208DF80000012C06D1F4
:104E200000208DF80100052000F0F4FB17E0052CB0
:104E300006DC01208DF80100052000F0EBFB0EE000
:104E4000142C06DC02208DF801000A2000F0E2FBA1
:104E500005E003208DF80100142000F0DBFB9DF835
:104E60000100072101EB8010C0B28DF801000D4A4E
:104E70001268917C0B4A526810786B460222FFF749
:104E80005AFC10B14FF0FF30A4E7082105488172A9
:104E900000210173012101750020FFF72FFD002083
:104EA00098E7000064000020F8B504460F46164657
:104EB0002C4890F8240010B94FF0FF30F8BD294875
:104EC000807A10B94FF0FF30F8E7264A1268917ADD
:104ED000244A526810786B460222FFF7F1FB10B1AA
:104EE0004FF0FF30EAE79DF801009DF8001040EA1E
:104EF0000125A54203DA00203070401EDEE7194884
:104F000040684088B5EB600F17DD164A1268517C87
:104F1000144A526810786B460122FFF7D1FB10B19A
:104F20004FF0FF30CAE79DF8000000F0100020B1FC
:104F300000F05AF86FF00100C0E7E2B2094B1B68BD
:104F4000D97A084B5B6818783B46FFF7B9FB10B17C
:104F50004FF0FF30B2E795FBF4F0401E30700020B8
:104F6000ACE7000064000020F8B504460D46164684
:104F700016B94FF0FF30F8BD1A48807A10B94FF0DB
:104F8000FF30F8E720128DF80000E0B28DF8010044
:104F90009DF801002844134949684989884202DD87
:104FA0004FF0FF30E7E70F4A1268117E0D4A526852
:104FB00010786B460222FFF7BEFB10B14FF0FF30B6
:104FC000D9E7EAB2074B1B68597D064B5B68187836
:104FD0003346FFF775FB10B14FF0FF30CBE70020F1
:104FE000C9E700006400002008B56D48807A10B958
:104FF0004FF0FF3008BD00200090694A1268D17B55
:10500000674A526810786B460122FFF794FB10B193
:105010004FF0FF30EEE7624A12685179604A5268F9
:1050200010786B460122FFF786FB10B14FF0FF307E
:10503000E0E75B4A12681179594A526810786B466A
:105040000122FFF778FB10B14FF0FF30D2E7544850
:1050500090F82400002850D00C200090504A12688C
:1050600011794F4A526810786B460122FFF763FBB3
:1050700010B14FF0FF30BDE7C02000904848807A63
:1050800000F0010020B19DF8000040F020000090E9
:10509000434A12681179424A526810786B460122DD
:1050A000FFF749FB10B14FF0FF30A3E73C48407CCD
:1050B00010B10220009001E000200090384A1268F0
:1050C000D17B374A526810786B460122FFF733FBD9
:1050D00010B14FF0FF308DE700200090304A126889
:1050E00051792F4A526810786B460122FFF723FB53
:1050F000002852D04FF0FF307CE704200090284A6F
:1051000012681179264A526810786B460122FFF71F
:1051100012FB10B14FF0FF306CE72148807C20B9C2
:105120001F48807A00F0010010B94020009001E093
:10513000602000901A4A12681179194A5268107852
:105140006B460122FFF7F7FA10B14FF0FF3051E73D
:105150001348407C10B10120009001E00020009035
:105160000F4A1268D17B0E4A526810786B460122B2
:10517000FFF7E1FA10B14FF0FF303BE7084A126841
:105180005179074A52681078054B10330122FFF716
:10519000D2FA10B14FF0FF302CE700202AE70000D0
:1051A000640000202DE9F04F8DB083460F460220A9
:1051B0000C90424890F8240020B1002000F068F9DB
:1051C000012600E0002603A8FFF728FC05A8FFF74A
:1051D000CDFB01A8FFF76CFC02A8FFF791FC374854
:1051E00090F80AA004A8FFF711FC002407E00022B1
:1051F00039465846FEF7A6FF00B902E0641C022CAF
:10520000F5DB00BF022C01D1002528E0002407E0D7
:10521000012206A909A8FEF795FF00B902E0641C67
:10522000022CF5DB00BF022C01D1002517E006A9F6
:105230003846FDF73BFD00F0FF0809A95846FFF787
:10524000B7F900F0FF090025B9F1000F01D145F0D1
:105250000105B8F1000F01D145F0020500BFFF20A4
:1052600016490872FF2115484172C1724FF6FF714D
:10527000C181FF218172017401210173BDF80C000D
:1052800000F04EF99DF8140000F01AF8BDF8040083
:1052900000F0C0F9BDF8080000F0FEF9504600F03B
:1052A00049FA9DF81000FFF729FB16B1012000F024
:1052B000EFF828460DB0BDE8F08F00006400002034
:1052C00038B504461E48807A10B94FF0FF3038BD1B
:1052D000022C06D0042C07D0082C08D0102C0CD19E
:1052E00008E0002000900BE00820009008E010206B
:1052F000009005E01820009002E04FF0FF30E6E754
:1053000000BF0F48407A9DF80010B0EBE10F01D1CB
:105310000020DCE70A4A1268D179094A52681078FD
:105320006B460122FFF707FA10B14FF0FF30CEE7CE
:105330009DF80000C110024841720020C7E700003C
:105340006400002038B504465048807CA04201D15A
:10535000002038BD002C46D04C4A126811794B4AC7
:10536000526810786B460122FFF7AAF910B14FF08E
:10537000FF30EEE79DF8000020F020000090434A47
:1053800012681179414A526810786B460122FFF782
:10539000D2F910B14FF0FF30DBE70320FEF744F8FD
:1053A00002200090394890F8220020B19DF80000BA
:1053B00040F080000090354890F8230020B19DF81F
:1053C000000040F030000090304A1268117D2F4AF2
:1053D000526810786B460122FFF7ADF9002851D0D2
:1053E0004FF0FF30B5E7294A12681179274A526811
:1053F00010786B460122FFF763F910B14FF0FF30D0
:10540000A7E72248807A00F0010028B19DF800004B
:1054100040F02000009004E09DF8000020F0200003
:1054200000901A4A12681179184A526810786B462F
:105430000122FFF780F910B14FF0FF3089E7032018
:10544000FDF7F2FF114890F8220010B18020009083
:1054500001E0002000900D4890F8230020B19DF855
:10546000000040F030000090084A1268117D074AA1
:10547000526810786B460122FFF75DF910B14FF0CA
:10548000FF3066E701488474002062E76400002072
:1054900038B50446214890F82400A04201D10020EC
:1054A00038BD24B31D4890F8250010B94FF0FF30E7
:1054B000F6E7002000F046FA0020FFF743FF174907
:1054C000C88C00F0E9F80020009014494968087879
:1054D0006B4601222321FFF72EF901210F4880F8A6
:1054E0002410012000F02EFAFFF77EFD13E00020CB
:1054F00000F028FA0948007C0090084949680878BB
:105500006B4601222321FFF716F90021034880F89A
:105510002410FFF769FD0020C2E7000064000020AE
:1055200038B504461F48807A10B94FF0FF3038BDB7
:10553000FA2C09D0B4F5FA7F09D0B4F57A7F09D0F6
:10554000B4F5FA6F0CD108E0002000900BE00820C1
:10555000009008E01020009005E01820009002E084
:105560004FF0FF30E3E700BF0E48007A9DF80010CF
:10557000B0EBE10F01D10020D9E70A4A1268917916
:10558000084A526810786B460122FFF7D4F810B130
:105590004FF0FF30CBE79DF80000C01001490872C2
:1055A0000020C4E76400002038B50446184890F88D
:1055B0002300A04201D1002038BD14B1302000905A
:1055C00001E0002000901248807C20B19DF800008E
:1055D00040F0020000900E4890F8220020B19DF8A3
:1055E000000040F080000090094A1268117D084ACE
:1055F000526810786B460122FFF79DF810B14FF00A
:10560000FF30D9E7024880F823400020D4E70000AB
:105610006400002038B504461E48807A10B94FF067
:10562000FF3038BDBC2C02DB0120009015E0622C5D
:1056300002DB0220009010E02A2C02DB0320009005
:105640000BE0142C02DB0420009006E00A2C02DBA5
:105650000520009001E0062000900E48C07A9DF8D9
:105660000010884201D10020DBE70A4A12689178D5
:10567000084A526810786B460122FFF75CF810B1B7
:105680004FF0FF30CDE79DF800100248C1720020B6
:10569000C7E700006400002038B504462448807A3B
:1056A00010B94FF0FF3038BD214890F8240010B1F8
:1056B0004FF0FF30F7E71E48007D50B134B1282C81
:1056C00004DCE0B2FFF780FB0020ECE70020FFF7EE
:1056D0007BFB042C01DA042404E0B4F57A7F01DDBD
:1056E0004FF47A744FF47A7090FBF4F0401EC0B21D
:1056F00000900F4A126851780D4A526810786B4634
:105700000122FFF718F810B14FF0FF30CBE79DF8FA
:105710000000401C4FF47A7191FBF0F081B2044814
:10572000C1810146C9894810FFF774FF0020BAE71C
:105730006400002038B5044604F0700010B1012068
:10574000009005E014B10020009001E0402000909E
:105750002B4A1268917C2A4A526810786B460122C3
:10576000FEF7E9FF20B1002125488172481E38BDAF
:105770009DF8000020F040012148017300200090B6
:1057800004F0400020B99DF8000040F004000090B3
:1057900004F0200020B99DF8000040F002000090C5
:1057A00004F0100020B99DF8000040F001000090C6
:1057B00004F0080020B99DF8000040F03800009087
:1057C0000F4A1268D17C0E4A526810786B4601224B
:1057D000FEF7B1FF20B1002109488172481EC6E7DB
:1057E00024B1082C02D00020FFF7DEFE04488472AA
:1057F000002101753220FDF717FE0020B7E70000F9
:1058000064000020F8B504460D46164616B94FF060
:10581000FF30F8BD1A48807A10B94FF0FF30F8E732
:1058200020128DF80000E0B28DF801009DF8010013
:105830002844134949684989884202DD4FF0FF3006
:10584000E7E70F4A1268117E0D4A526810786B46DE
:105850000222FEF770FF10B14FF0FF30D9E7EAB235
:10586000074B1B68597D064B5B6818783346FEF77B
:1058700062FF10B14FF0FF30CBE70020C9E7000016
:10588000640000207047000070B588B002A905A828
:10589000FFF788FC0446072C3FD101A8FFF7E0F88A
:1058A000059801F04BF80646019901F0A7F8054666
:1058B00001F008F80590069801F040F806460199B5
:1058C00001F09CF8054600F0FDFF0690079801F0F6
:1058D00035F80646019901F091F8054600F0F2FF0F
:1058E000079005A8FEF724F96846FFF765F8BDF8AC
:1058F0000010029848430290BDF8001003984843F6
:105900000390BDF8001004984843049002A8FEF7E5
:105910003FF803A0FAF78EFC00BF08B070BD00008E
:1059200073657474696E672062696173207375634F
:1059300063657366756C6C79202E2E2E2E2E2E0DBF
:105940000A00000038B50446214890F82400C0B190
:1059500014B10220009001E0002000901C4A12685F
:10596000D17B1B4A526810786B460122FEF7E3FE9A
:1059700010B14FF0FF3038BD9DF80010144841744D
:1059800023E01348807A10B94FF0FF30F3E724B1D9
:105990000F48407C08B10020EDE714B101200090D1
:1059A00001E0002000900A4A1268D17B084A526840
:1059B00010786B460122FEF7BEFE10B14FF0FF30AB
:1059C000D9E79DF80010024841740020D3E7000099
:1059D000640000202DE9F04106460F4600F012FC5D
:1059E000041E0D4618BF0120284320F00040C0F1DE
:1059F0007F6000F1E040C00F0ED0301C18BF0120C6
:105A0000384320F00040C0F17F6000F1E040C00F5B
:105A100004BF0120FAF7A5FD20462946BDE8F08124
:105A200010B586B00446012144F20400FCF71EFCC8
:105A30004FF40070ADF8140003208DF81600182004
:105A40008DF8170005A91C48FBF7BDFE4FF48060D8
:105A5000ADF8140004208DF8170005A91648FBF7CF
:105A6000B2FE25208DF8000003208DF801008DF88E
:105A7000020001208DF803006846FCF7D7F9019475
:105A80000020ADF80800ADF80A00ADF80C00ADF844
:105A900010000C20ADF80E0001A90848FDF70CF825
:105AA000012240F225510548FCF7E0FF012103489F
:105AB000FCF7A6FF06B010BD000801400038014009
:105AC00010B500290AD00878002807D00548784486
:105AD000FBF766F9002801D0002010BD0248784489
